{
	"PIZZA_BITES_TOKEN/contracts/PizzaBitesToken.sol": {
		"PizzaBitesToken": {
			"abi": [
				{
					"inputs": [],
					"stateMutability": "nonpayable",
					"type": "constructor"
				},
				{
					"inputs": [],
					"name": "AccessControlBadConfirmation",
					"type": "error"
				},
				{
					"inputs": [
						{
							"internalType": "address",
							"name": "account",
							"type": "address"
						},
						{
							"internalType": "bytes32",
							"name": "neededRole",
							"type": "bytes32"
						}
					],
					"name": "AccessControlUnauthorizedAccount",
					"type": "error"
				},
				{
					"inputs": [
						{
							"internalType": "address",
							"name": "spender",
							"type": "address"
						},
						{
							"internalType": "uint256",
							"name": "allowance",
							"type": "uint256"
						},
						{
							"internalType": "uint256",
							"name": "needed",
							"type": "uint256"
						}
					],
					"name": "ERC20InsufficientAllowance",
					"type": "error"
				},
				{
					"inputs": [
						{
							"internalType": "address",
							"name": "sender",
							"type": "address"
						},
						{
							"internalType": "uint256",
							"name": "balance",
							"type": "uint256"
						},
						{
							"internalType": "uint256",
							"name": "needed",
							"type": "uint256"
						}
					],
					"name": "ERC20InsufficientBalance",
					"type": "error"
				},
				{
					"inputs": [
						{
							"internalType": "address",
							"name": "approver",
							"type": "address"
						}
					],
					"name": "ERC20InvalidApprover",
					"type": "error"
				},
				{
					"inputs": [
						{
							"internalType": "address",
							"name": "receiver",
							"type": "address"
						}
					],
					"name": "ERC20InvalidReceiver",
					"type": "error"
				},
				{
					"inputs": [
						{
							"internalType": "address",
							"name": "sender",
							"type": "address"
						}
					],
					"name": "ERC20InvalidSender",
					"type": "error"
				},
				{
					"inputs": [
						{
							"internalType": "address",
							"name": "spender",
							"type": "address"
						}
					],
					"name": "ERC20InvalidSpender",
					"type": "error"
				},
				{
					"anonymous": false,
					"inputs": [
						{
							"indexed": true,
							"internalType": "address",
							"name": "owner",
							"type": "address"
						},
						{
							"indexed": true,
							"internalType": "address",
							"name": "spender",
							"type": "address"
						},
						{
							"indexed": false,
							"internalType": "uint256",
							"name": "value",
							"type": "uint256"
						}
					],
					"name": "Approval",
					"type": "event"
				},
				{
					"anonymous": false,
					"inputs": [
						{
							"indexed": true,
							"internalType": "bytes32",
							"name": "role",
							"type": "bytes32"
						},
						{
							"indexed": true,
							"internalType": "bytes32",
							"name": "previousAdminRole",
							"type": "bytes32"
						},
						{
							"indexed": true,
							"internalType": "bytes32",
							"name": "newAdminRole",
							"type": "bytes32"
						}
					],
					"name": "RoleAdminChanged",
					"type": "event"
				},
				{
					"anonymous": false,
					"inputs": [
						{
							"indexed": true,
							"internalType": "bytes32",
							"name": "role",
							"type": "bytes32"
						},
						{
							"indexed": true,
							"internalType": "address",
							"name": "account",
							"type": "address"
						},
						{
							"indexed": true,
							"internalType": "address",
							"name": "sender",
							"type": "address"
						}
					],
					"name": "RoleGranted",
					"type": "event"
				},
				{
					"anonymous": false,
					"inputs": [
						{
							"indexed": true,
							"internalType": "bytes32",
							"name": "role",
							"type": "bytes32"
						},
						{
							"indexed": true,
							"internalType": "address",
							"name": "account",
							"type": "address"
						},
						{
							"indexed": true,
							"internalType": "address",
							"name": "sender",
							"type": "address"
						}
					],
					"name": "RoleRevoked",
					"type": "event"
				},
				{
					"anonymous": false,
					"inputs": [
						{
							"indexed": true,
							"internalType": "address",
							"name": "from",
							"type": "address"
						},
						{
							"indexed": true,
							"internalType": "address",
							"name": "to",
							"type": "address"
						},
						{
							"indexed": false,
							"internalType": "uint256",
							"name": "value",
							"type": "uint256"
						}
					],
					"name": "Transfer",
					"type": "event"
				},
				{
					"anonymous": false,
					"inputs": [
						{
							"indexed": false,
							"internalType": "address",
							"name": "",
							"type": "address"
						},
						{
							"indexed": false,
							"internalType": "string",
							"name": "",
							"type": "string"
						},
						{
							"indexed": false,
							"internalType": "uint256",
							"name": "",
							"type": "uint256"
						}
					],
					"name": "tokenMintLogs",
					"type": "event"
				},
				{
					"anonymous": false,
					"inputs": [
						{
							"indexed": false,
							"internalType": "address",
							"name": "",
							"type": "address"
						},
						{
							"indexed": false,
							"internalType": "string",
							"name": "",
							"type": "string"
						}
					],
					"name": "tokenPurchaseLogs",
					"type": "event"
				},
				{
					"inputs": [],
					"name": "BURNER_ROLE",
					"outputs": [
						{
							"internalType": "bytes32",
							"name": "",
							"type": "bytes32"
						}
					],
					"stateMutability": "view",
					"type": "function"
				},
				{
					"inputs": [],
					"name": "DEFAULT_ADMIN_ROLE",
					"outputs": [
						{
							"internalType": "bytes32",
							"name": "",
							"type": "bytes32"
						}
					],
					"stateMutability": "view",
					"type": "function"
				},
				{
					"inputs": [],
					"name": "MINTER_ROLE",
					"outputs": [
						{
							"internalType": "bytes32",
							"name": "",
							"type": "bytes32"
						}
					],
					"stateMutability": "view",
					"type": "function"
				},
				{
					"inputs": [],
					"name": "SPEND_ALLOWANCER",
					"outputs": [
						{
							"internalType": "bytes32",
							"name": "",
							"type": "bytes32"
						}
					],
					"stateMutability": "view",
					"type": "function"
				},
				{
					"inputs": [
						{
							"internalType": "address",
							"name": "owner",
							"type": "address"
						},
						{
							"internalType": "address",
							"name": "spender",
							"type": "address"
						}
					],
					"name": "allowance",
					"outputs": [
						{
							"internalType": "uint256",
							"name": "",
							"type": "uint256"
						}
					],
					"stateMutability": "view",
					"type": "function"
				},
				{
					"inputs": [
						{
							"internalType": "address",
							"name": "spender",
							"type": "address"
						},
						{
							"internalType": "uint256",
							"name": "value",
							"type": "uint256"
						}
					],
					"name": "approve",
					"outputs": [
						{
							"internalType": "bool",
							"name": "",
							"type": "bool"
						}
					],
					"stateMutability": "nonpayable",
					"type": "function"
				},
				{
					"inputs": [
						{
							"internalType": "address",
							"name": "account",
							"type": "address"
						}
					],
					"name": "balanceOf",
					"outputs": [
						{
							"internalType": "uint256",
							"name": "",
							"type": "uint256"
						}
					],
					"stateMutability": "view",
					"type": "function"
				},
				{
					"inputs": [
						{
							"internalType": "uint256",
							"name": "numOfPizza",
							"type": "uint256"
						}
					],
					"name": "buyPizza",
					"outputs": [],
					"stateMutability": "nonpayable",
					"type": "function"
				},
				{
					"inputs": [],
					"name": "decimals",
					"outputs": [
						{
							"internalType": "uint8",
							"name": "",
							"type": "uint8"
						}
					],
					"stateMutability": "view",
					"type": "function"
				},
				{
					"inputs": [
						{
							"internalType": "bytes32",
							"name": "role",
							"type": "bytes32"
						}
					],
					"name": "getRoleAdmin",
					"outputs": [
						{
							"internalType": "bytes32",
							"name": "",
							"type": "bytes32"
						}
					],
					"stateMutability": "view",
					"type": "function"
				},
				{
					"inputs": [
						{
							"internalType": "bytes32",
							"name": "role",
							"type": "bytes32"
						},
						{
							"internalType": "address",
							"name": "account",
							"type": "address"
						}
					],
					"name": "grantRole",
					"outputs": [],
					"stateMutability": "nonpayable",
					"type": "function"
				},
				{
					"inputs": [
						{
							"internalType": "bytes32",
							"name": "role",
							"type": "bytes32"
						},
						{
							"internalType": "address",
							"name": "account",
							"type": "address"
						}
					],
					"name": "hasRole",
					"outputs": [
						{
							"internalType": "bool",
							"name": "",
							"type": "bool"
						}
					],
					"stateMutability": "view",
					"type": "function"
				},
				{
					"inputs": [
						{
							"internalType": "address",
							"name": "to",
							"type": "address"
						},
						{
							"internalType": "uint256",
							"name": "amount",
							"type": "uint256"
						}
					],
					"name": "mint",
					"outputs": [],
					"stateMutability": "nonpayable",
					"type": "function"
				},
				{
					"inputs": [],
					"name": "name",
					"outputs": [
						{
							"internalType": "string",
							"name": "",
							"type": "string"
						}
					],
					"stateMutability": "view",
					"type": "function"
				},
				{
					"inputs": [
						{
							"internalType": "bytes32",
							"name": "role",
							"type": "bytes32"
						},
						{
							"internalType": "address",
							"name": "callerConfirmation",
							"type": "address"
						}
					],
					"name": "renounceRole",
					"outputs": [],
					"stateMutability": "nonpayable",
					"type": "function"
				},
				{
					"inputs": [
						{
							"internalType": "bytes32",
							"name": "role",
							"type": "bytes32"
						},
						{
							"internalType": "address",
							"name": "account",
							"type": "address"
						}
					],
					"name": "revokeRole",
					"outputs": [],
					"stateMutability": "nonpayable",
					"type": "function"
				},
				{
					"inputs": [
						{
							"internalType": "address",
							"name": "_spender",
							"type": "address"
						},
						{
							"internalType": "uint256",
							"name": "_value",
							"type": "uint256"
						},
						{
							"internalType": "address",
							"name": "_to",
							"type": "address"
						}
					],
					"name": "spendAllowance",
					"outputs": [],
					"stateMutability": "nonpayable",
					"type": "function"
				},
				{
					"inputs": [
						{
							"internalType": "bytes4",
							"name": "interfaceId",
							"type": "bytes4"
						}
					],
					"name": "supportsInterface",
					"outputs": [
						{
							"internalType": "bool",
							"name": "",
							"type": "bool"
						}
					],
					"stateMutability": "view",
					"type": "function"
				},
				{
					"inputs": [],
					"name": "symbol",
					"outputs": [
						{
							"internalType": "string",
							"name": "",
							"type": "string"
						}
					],
					"stateMutability": "view",
					"type": "function"
				},
				{
					"inputs": [
						{
							"internalType": "address",
							"name": "",
							"type": "address"
						}
					],
					"name": "tokenBalanceLeadger",
					"outputs": [
						{
							"internalType": "uint256",
							"name": "",
							"type": "uint256"
						}
					],
					"stateMutability": "view",
					"type": "function"
				},
				{
					"inputs": [],
					"name": "totalSupply",
					"outputs": [
						{
							"internalType": "uint256",
							"name": "",
							"type": "uint256"
						}
					],
					"stateMutability": "view",
					"type": "function"
				},
				{
					"inputs": [
						{
							"internalType": "address",
							"name": "to",
							"type": "address"
						},
						{
							"internalType": "uint256",
							"name": "value",
							"type": "uint256"
						}
					],
					"name": "transfer",
					"outputs": [
						{
							"internalType": "bool",
							"name": "",
							"type": "bool"
						}
					],
					"stateMutability": "nonpayable",
					"type": "function"
				},
				{
					"inputs": [
						{
							"internalType": "address",
							"name": "from",
							"type": "address"
						},
						{
							"internalType": "address",
							"name": "to",
							"type": "address"
						},
						{
							"internalType": "uint256",
							"name": "value",
							"type": "uint256"
						}
					],
					"name": "transferFrom",
					"outputs": [
						{
							"internalType": "bool",
							"name": "",
							"type": "bool"
						}
					],
					"stateMutability": "nonpayable",
					"type": "function"
				}
			],
			"devdoc": {
				"errors": {
					"AccessControlBadConfirmation()": [
						{
							"details": "The caller of a function is not the expected one. NOTE: Don't confuse with {AccessControlUnauthorizedAccount}."
						}
					],
					"AccessControlUnauthorizedAccount(address,bytes32)": [
						{
							"details": "The `account` is missing a role."
						}
					],
					"ERC20InsufficientAllowance(address,uint256,uint256)": [
						{
							"details": "Indicates a failure with the `spender`’s `allowance`. Used in transfers.",
							"params": {
								"allowance": "Amount of tokens a `spender` is allowed to operate with.",
								"needed": "Minimum amount required to perform a transfer.",
								"spender": "Address that may be allowed to operate on tokens without being their owner."
							}
						}
					],
					"ERC20InsufficientBalance(address,uint256,uint256)": [
						{
							"details": "Indicates an error related to the current `balance` of a `sender`. Used in transfers.",
							"params": {
								"balance": "Current balance for the interacting account.",
								"needed": "Minimum amount required to perform a transfer.",
								"sender": "Address whose tokens are being transferred."
							}
						}
					],
					"ERC20InvalidApprover(address)": [
						{
							"details": "Indicates a failure with the `approver` of a token to be approved. Used in approvals.",
							"params": {
								"approver": "Address initiating an approval operation."
							}
						}
					],
					"ERC20InvalidReceiver(address)": [
						{
							"details": "Indicates a failure with the token `receiver`. Used in transfers.",
							"params": {
								"receiver": "Address to which tokens are being transferred."
							}
						}
					],
					"ERC20InvalidSender(address)": [
						{
							"details": "Indicates a failure with the token `sender`. Used in transfers.",
							"params": {
								"sender": "Address whose tokens are being transferred."
							}
						}
					],
					"ERC20InvalidSpender(address)": [
						{
							"details": "Indicates a failure with the `spender` to be approved. Used in approvals.",
							"params": {
								"spender": "Address that may be allowed to operate on tokens without being their owner."
							}
						}
					]
				},
				"events": {
					"Approval(address,address,uint256)": {
						"details": "Emitted when the allowance of a `spender` for an `owner` is set by a call to {approve}. `value` is the new allowance."
					},
					"RoleAdminChanged(bytes32,bytes32,bytes32)": {
						"details": "Emitted when `newAdminRole` is set as ``role``'s admin role, replacing `previousAdminRole` `DEFAULT_ADMIN_ROLE` is the starting admin for all roles, despite {RoleAdminChanged} not being emitted signaling this."
					},
					"RoleGranted(bytes32,address,address)": {
						"details": "Emitted when `account` is granted `role`. `sender` is the account that originated the contract call, an admin role bearer except when using {AccessControl-_setupRole}."
					},
					"RoleRevoked(bytes32,address,address)": {
						"details": "Emitted when `account` is revoked `role`. `sender` is the account that originated the contract call:   - if using `revokeRole`, it is the admin role bearer   - if using `renounceRole`, it is the role bearer (i.e. `account`)"
					},
					"Transfer(address,address,uint256)": {
						"details": "Emitted when `value` tokens are moved from one account (`from`) to another (`to`). Note that `value` may be zero."
					}
				},
				"kind": "dev",
				"methods": {
					"allowance(address,address)": {
						"details": "See {IERC20-allowance}."
					},
					"approve(address,uint256)": {
						"details": "See {IERC20-approve}. NOTE: If `value` is the maximum `uint256`, the allowance is not updated on `transferFrom`. This is semantically equivalent to an infinite approval. Requirements: - `spender` cannot be the zero address."
					},
					"balanceOf(address)": {
						"details": "See {IERC20-balanceOf}."
					},
					"decimals()": {
						"details": "Returns the number of decimals used to get its user representation. For example, if `decimals` equals `2`, a balance of `505` tokens should be displayed to a user as `5.05` (`505 / 10 ** 2`). Tokens usually opt for a value of 18, imitating the relationship between Ether and Wei. This is the default value returned by this function, unless it's overridden. NOTE: This information is only used for _display_ purposes: it in no way affects any of the arithmetic of the contract, including {IERC20-balanceOf} and {IERC20-transfer}."
					},
					"getRoleAdmin(bytes32)": {
						"details": "Returns the admin role that controls `role`. See {grantRole} and {revokeRole}. To change a role's admin, use {_setRoleAdmin}."
					},
					"grantRole(bytes32,address)": {
						"details": "Grants `role` to `account`. If `account` had not been already granted `role`, emits a {RoleGranted} event. Requirements: - the caller must have ``role``'s admin role. May emit a {RoleGranted} event."
					},
					"hasRole(bytes32,address)": {
						"details": "Returns `true` if `account` has been granted `role`."
					},
					"name()": {
						"details": "Returns the name of the token."
					},
					"renounceRole(bytes32,address)": {
						"details": "Revokes `role` from the calling account. Roles are often managed via {grantRole} and {revokeRole}: this function's purpose is to provide a mechanism for accounts to lose their privileges if they are compromised (such as when a trusted device is misplaced). If the calling account had been revoked `role`, emits a {RoleRevoked} event. Requirements: - the caller must be `callerConfirmation`. May emit a {RoleRevoked} event."
					},
					"revokeRole(bytes32,address)": {
						"details": "Revokes `role` from `account`. If `account` had been granted `role`, emits a {RoleRevoked} event. Requirements: - the caller must have ``role``'s admin role. May emit a {RoleRevoked} event."
					},
					"supportsInterface(bytes4)": {
						"details": "See {IERC165-supportsInterface}."
					},
					"symbol()": {
						"details": "Returns the symbol of the token, usually a shorter version of the name."
					},
					"totalSupply()": {
						"details": "See {IERC20-totalSupply}."
					},
					"transfer(address,uint256)": {
						"details": "See {IERC20-transfer}. Requirements: - `to` cannot be the zero address. - the caller must have a balance of at least `value`."
					},
					"transferFrom(address,address,uint256)": {
						"details": "See {IERC20-transferFrom}. Emits an {Approval} event indicating the updated allowance. This is not required by the EIP. See the note at the beginning of {ERC20}. NOTE: Does not update the allowance if the current allowance is the maximum `uint256`. Requirements: - `from` and `to` cannot be the zero address. - `from` must have a balance of at least `value`. - the caller must have allowance for ``from``'s tokens of at least `value`."
					}
				},
				"version": 1
			},
			"evm": {
				"assembly": "    /* \"PIZZA_BITES_TOKEN/contracts/PizzaBitesToken.sol\":383:2851  contract PizzaBitesToken is ERC20, AccessControl {... */\n  mstore(0x40, 0x80)\n    /* \"PIZZA_BITES_TOKEN/contracts/PizzaBitesToken.sol\":1130:1395  constructor()... */\n  callvalue\n  dup1\n  iszero\n  tag_1\n  jumpi\n  0x00\n  dup1\n  revert\ntag_1:\n  pop\n    /* \"@openzeppelin/contracts/token/ERC20/ERC20.sol\":1896:2009  constructor(string memory name_, string memory symbol_) {... */\n  mload(0x40)\n  dup1\n  0x40\n  add\n  0x40\n  mstore\n  dup1\n  0x0f\n  dup2\n  mstore\n  0x20\n  add\n  0x50697a7a614269746573546f6b656e0000000000000000000000000000000000\n  dup2\n  mstore\n  pop\n  mload(0x40)\n  dup1\n  0x40\n  add\n  0x40\n  mstore\n  dup1\n  0x03\n  dup2\n  mstore\n  0x20\n  add\n  0x5042540000000000000000000000000000000000000000000000000000000000\n  dup2\n  mstore\n  pop\n    /* \"@openzeppelin/contracts/token/ERC20/ERC20.sol\":1970:1975  name_ */\n  dup2\n    /* \"@openzeppelin/contracts/token/ERC20/ERC20.sol\":1962:1967  _name */\n  0x03\n    /* \"@openzeppelin/contracts/token/ERC20/ERC20.sol\":1962:1975  _name = name_ */\n  swap1\n  dup2\n  tag_5\n  swap2\n  swap1\n  tag_6\n  jump\t// in\ntag_5:\n  pop\n    /* \"@openzeppelin/contracts/token/ERC20/ERC20.sol\":1995:2002  symbol_ */\n  dup1\n    /* \"@openzeppelin/contracts/token/ERC20/ERC20.sol\":1985:1992  _symbol */\n  0x04\n    /* \"@openzeppelin/contracts/token/ERC20/ERC20.sol\":1985:2002  _symbol = symbol_ */\n  swap1\n  dup2\n  tag_7\n  swap2\n  swap1\n  tag_6\n  jump\t// in\ntag_7:\n  pop\n    /* \"@openzeppelin/contracts/token/ERC20/ERC20.sol\":1896:2009  constructor(string memory name_, string memory symbol_) {... */\n  pop\n  pop\n    /* \"PIZZA_BITES_TOKEN/contracts/PizzaBitesToken.sol\":1198:1242  _grantRole(DEFAULT_ADMIN_ROLE, _msgSender()) */\n  tag_9\n    /* \"@openzeppelin/contracts/access/AccessControl.sol\":2232:2236  0x00 */\n  0x00\n    /* \"PIZZA_BITES_TOKEN/contracts/PizzaBitesToken.sol\":1209:1227  DEFAULT_ADMIN_ROLE */\n  dup1\n  shl\n    /* \"PIZZA_BITES_TOKEN/contracts/PizzaBitesToken.sol\":1229:1241  _msgSender() */\n  tag_10\n    /* \"PIZZA_BITES_TOKEN/contracts/PizzaBitesToken.sol\":1229:1239  _msgSender */\n  shl(0x20, tag_11)\n    /* \"PIZZA_BITES_TOKEN/contracts/PizzaBitesToken.sol\":1229:1241  _msgSender() */\n  0x20\n  shr\n  jump\t// in\ntag_10:\n    /* \"PIZZA_BITES_TOKEN/contracts/PizzaBitesToken.sol\":1198:1208  _grantRole */\n  shl(0x20, tag_12)\n    /* \"PIZZA_BITES_TOKEN/contracts/PizzaBitesToken.sol\":1198:1242  _grantRole(DEFAULT_ADMIN_ROLE, _msgSender()) */\n  0x20\n  shr\n  jump\t// in\ntag_9:\n  pop\n    /* \"PIZZA_BITES_TOKEN/contracts/PizzaBitesToken.sol\":1252:1289  _grantRole(MINTER_ROLE, _msgSender()) */\n  tag_13\n    /* \"PIZZA_BITES_TOKEN/contracts/PizzaBitesToken.sol\":536:560  keccak256(\"MINTER_ROLE\") */\n  0x9f2df0fed2c77648de5860a4cc508cd0818c85b8b8a1ab4ceeef8d981c8956a6\n    /* \"PIZZA_BITES_TOKEN/contracts/PizzaBitesToken.sol\":1276:1288  _msgSender() */\n  tag_14\n    /* \"PIZZA_BITES_TOKEN/contracts/PizzaBitesToken.sol\":1276:1286  _msgSender */\n  shl(0x20, tag_11)\n    /* \"PIZZA_BITES_TOKEN/contracts/PizzaBitesToken.sol\":1276:1288  _msgSender() */\n  0x20\n  shr\n  jump\t// in\ntag_14:\n    /* \"PIZZA_BITES_TOKEN/contracts/PizzaBitesToken.sol\":1252:1262  _grantRole */\n  shl(0x20, tag_12)\n    /* \"PIZZA_BITES_TOKEN/contracts/PizzaBitesToken.sol\":1252:1289  _grantRole(MINTER_ROLE, _msgSender()) */\n  0x20\n  shr\n  jump\t// in\ntag_13:\n  pop\n    /* \"PIZZA_BITES_TOKEN/contracts/PizzaBitesToken.sol\":1299:1336  _grantRole(BURNER_ROLE, _msgSender()) */\n  tag_15\n    /* \"PIZZA_BITES_TOKEN/contracts/PizzaBitesToken.sol\":648:672  keccak256(\"BURNER_ROLE\") */\n  0x3c11d16cbaffd01df69ce1c404f6340ee057498f5f00246190ea54220576a848\n    /* \"PIZZA_BITES_TOKEN/contracts/PizzaBitesToken.sol\":1323:1335  _msgSender() */\n  tag_16\n    /* \"PIZZA_BITES_TOKEN/contracts/PizzaBitesToken.sol\":1323:1333  _msgSender */\n  shl(0x20, tag_11)\n    /* \"PIZZA_BITES_TOKEN/contracts/PizzaBitesToken.sol\":1323:1335  _msgSender() */\n  0x20\n  shr\n  jump\t// in\ntag_16:\n    /* \"PIZZA_BITES_TOKEN/contracts/PizzaBitesToken.sol\":1299:1309  _grantRole */\n  shl(0x20, tag_12)\n    /* \"PIZZA_BITES_TOKEN/contracts/PizzaBitesToken.sol\":1299:1336  _grantRole(BURNER_ROLE, _msgSender()) */\n  0x20\n  shr\n  jump\t// in\ntag_15:\n  pop\n    /* \"PIZZA_BITES_TOKEN/contracts/PizzaBitesToken.sol\":1346:1388  _grantRole(SPEND_ALLOWANCER, _msgSender()) */\n  tag_17\n    /* \"PIZZA_BITES_TOKEN/contracts/PizzaBitesToken.sol\":775:804  keccak256(\"SPEND_ALLOWANCER\") */\n  0xb385ebd07b20f317b5bf0dda1a7179a9d0de6f45757e4ce90c508fdba4c9c831\n    /* \"PIZZA_BITES_TOKEN/contracts/PizzaBitesToken.sol\":1375:1387  _msgSender() */\n  tag_18\n    /* \"PIZZA_BITES_TOKEN/contracts/PizzaBitesToken.sol\":1375:1385  _msgSender */\n  shl(0x20, tag_11)\n    /* \"PIZZA_BITES_TOKEN/contracts/PizzaBitesToken.sol\":1375:1387  _msgSender() */\n  0x20\n  shr\n  jump\t// in\ntag_18:\n    /* \"PIZZA_BITES_TOKEN/contracts/PizzaBitesToken.sol\":1346:1356  _grantRole */\n  shl(0x20, tag_12)\n    /* \"PIZZA_BITES_TOKEN/contracts/PizzaBitesToken.sol\":1346:1388  _grantRole(SPEND_ALLOWANCER, _msgSender()) */\n  0x20\n  shr\n  jump\t// in\ntag_17:\n  pop\n    /* \"PIZZA_BITES_TOKEN/contracts/PizzaBitesToken.sol\":383:2851  contract PizzaBitesToken is ERC20, AccessControl {... */\n  jump(tag_19)\n    /* \"@openzeppelin/contracts/utils/Context.sol\":640:736  function _msgSender() internal view virtual returns (address) {... */\ntag_11:\n    /* \"@openzeppelin/contracts/utils/Context.sol\":693:700  address */\n  0x00\n    /* \"@openzeppelin/contracts/utils/Context.sol\":719:729  msg.sender */\n  caller\n    /* \"@openzeppelin/contracts/utils/Context.sol\":712:729  return msg.sender */\n  swap1\n  pop\n    /* \"@openzeppelin/contracts/utils/Context.sol\":640:736  function _msgSender() internal view virtual returns (address) {... */\n  swap1\n  jump\t// out\n    /* \"@openzeppelin/contracts/access/AccessControl.sol\":6179:6495  function _grantRole(bytes32 role, address account) internal virtual returns (bool) {... */\ntag_12:\n    /* \"@openzeppelin/contracts/access/AccessControl.sol\":6256:6260  bool */\n  0x00\n    /* \"@openzeppelin/contracts/access/AccessControl.sol\":6277:6299  hasRole(role, account) */\n  tag_22\n    /* \"@openzeppelin/contracts/access/AccessControl.sol\":6285:6289  role */\n  dup4\n    /* \"@openzeppelin/contracts/access/AccessControl.sol\":6291:6298  account */\n  dup4\n    /* \"@openzeppelin/contracts/access/AccessControl.sol\":6277:6284  hasRole */\n  shl(0x20, tag_23)\n    /* \"@openzeppelin/contracts/access/AccessControl.sol\":6277:6299  hasRole(role, account) */\n  0x20\n  shr\n  jump\t// in\ntag_22:\n    /* \"@openzeppelin/contracts/access/AccessControl.sol\":6272:6489  if (!hasRole(role, account)) {... */\n  tag_24\n  jumpi\n    /* \"@openzeppelin/contracts/access/AccessControl.sol\":6347:6351  true */\n  0x01\n    /* \"@openzeppelin/contracts/access/AccessControl.sol\":6315:6321  _roles */\n  0x05\n    /* \"@openzeppelin/contracts/access/AccessControl.sol\":6315:6327  _roles[role] */\n  0x00\n    /* \"@openzeppelin/contracts/access/AccessControl.sol\":6322:6326  role */\n  dup6\n    /* \"@openzeppelin/contracts/access/AccessControl.sol\":6315:6327  _roles[role] */\n  dup2\n  mstore\n  0x20\n  add\n  swap1\n  dup2\n  mstore\n  0x20\n  add\n  0x00\n  keccak256\n    /* \"@openzeppelin/contracts/access/AccessControl.sol\":6315:6335  _roles[role].hasRole */\n  0x00\n  add\n    /* \"@openzeppelin/contracts/access/AccessControl.sol\":6315:6344  _roles[role].hasRole[account] */\n  0x00\n    /* \"@openzeppelin/contracts/access/AccessControl.sol\":6336:6343  account */\n  dup5\n    /* \"@openzeppelin/contracts/access/AccessControl.sol\":6315:6344  _roles[role].hasRole[account] */\n  0xffffffffffffffffffffffffffffffffffffffff\n  and\n  0xffffffffffffffffffffffffffffffffffffffff\n  and\n  dup2\n  mstore\n  0x20\n  add\n  swap1\n  dup2\n  mstore\n  0x20\n  add\n  0x00\n  keccak256\n  0x00\n    /* \"@openzeppelin/contracts/access/AccessControl.sol\":6315:6351  _roles[role].hasRole[account] = true */\n  0x0100\n  exp\n  dup2\n  sload\n  dup2\n  0xff\n  mul\n  not\n  and\n  swap1\n  dup4\n  iszero\n  iszero\n  mul\n  or\n  swap1\n  sstore\n  pop\n    /* \"@openzeppelin/contracts/access/AccessControl.sol\":6397:6409  _msgSender() */\n  tag_25\n    /* \"@openzeppelin/contracts/access/AccessControl.sol\":6397:6407  _msgSender */\n  shl(0x20, tag_11)\n    /* \"@openzeppelin/contracts/access/AccessControl.sol\":6397:6409  _msgSender() */\n  0x20\n  shr\n  jump\t// in\ntag_25:\n    /* \"@openzeppelin/contracts/access/AccessControl.sol\":6370:6410  RoleGranted(role, account, _msgSender()) */\n  0xffffffffffffffffffffffffffffffffffffffff\n  and\n    /* \"@openzeppelin/contracts/access/AccessControl.sol\":6388:6395  account */\n  dup3\n    /* \"@openzeppelin/contracts/access/AccessControl.sol\":6370:6410  RoleGranted(role, account, _msgSender()) */\n  0xffffffffffffffffffffffffffffffffffffffff\n  and\n    /* \"@openzeppelin/contracts/access/AccessControl.sol\":6382:6386  role */\n  dup5\n    /* \"@openzeppelin/contracts/access/AccessControl.sol\":6370:6410  RoleGranted(role, account, _msgSender()) */\n  0x2f8788117e7eff1d82e926ec794901d17c78024a50270940304540a733656f0d\n  mload(0x40)\n  mload(0x40)\n  dup1\n  swap2\n  sub\n  swap1\n  log4\n    /* \"@openzeppelin/contracts/access/AccessControl.sol\":6431:6435  true */\n  0x01\n    /* \"@openzeppelin/contracts/access/AccessControl.sol\":6424:6435  return true */\n  swap1\n  pop\n  jump(tag_21)\n    /* \"@openzeppelin/contracts/access/AccessControl.sol\":6272:6489  if (!hasRole(role, account)) {... */\ntag_24:\n    /* \"@openzeppelin/contracts/access/AccessControl.sol\":6473:6478  false */\n  0x00\n    /* \"@openzeppelin/contracts/access/AccessControl.sol\":6466:6478  return false */\n  swap1\n  pop\n    /* \"@openzeppelin/contracts/access/AccessControl.sol\":6179:6495  function _grantRole(bytes32 role, address account) internal virtual returns (bool) {... */\ntag_21:\n  swap3\n  swap2\n  pop\n  pop\n  jump\t// out\n    /* \"@openzeppelin/contracts/access/AccessControl.sol\":2854:2990  function hasRole(bytes32 role, address account) public view virtual returns (bool) {... */\ntag_23:\n    /* \"@openzeppelin/contracts/access/AccessControl.sol\":2931:2935  bool */\n  0x00\n    /* \"@openzeppelin/contracts/access/AccessControl.sol\":2954:2960  _roles */\n  0x05\n    /* \"@openzeppelin/contracts/access/AccessControl.sol\":2954:2966  _roles[role] */\n  0x00\n    /* \"@openzeppelin/contracts/access/AccessControl.sol\":2961:2965  role */\n  dup5\n    /* \"@openzeppelin/contracts/access/AccessControl.sol\":2954:2966  _roles[role] */\n  dup2\n  mstore\n  0x20\n  add\n  swap1\n  dup2\n  mstore\n  0x20\n  add\n  0x00\n  keccak256\n    /* \"@openzeppelin/contracts/access/AccessControl.sol\":2954:2974  _roles[role].hasRole */\n  0x00\n  add\n    /* \"@openzeppelin/contracts/access/AccessControl.sol\":2954:2983  _roles[role].hasRole[account] */\n  0x00\n    /* \"@openzeppelin/contracts/access/AccessControl.sol\":2975:2982  account */\n  dup4\n    /* \"@openzeppelin/contracts/access/AccessControl.sol\":2954:2983  _roles[role].hasRole[account] */\n  0xffffffffffffffffffffffffffffffffffffffff\n  and\n  0xffffffffffffffffffffffffffffffffffffffff\n  and\n  dup2\n  mstore\n  0x20\n  add\n  swap1\n  dup2\n  mstore\n  0x20\n  add\n  0x00\n  keccak256\n  0x00\n  swap1\n  sload\n  swap1\n  0x0100\n  exp\n  swap1\n  div\n  0xff\n  and\n    /* \"@openzeppelin/contracts/access/AccessControl.sol\":2947:2983  return _roles[role].hasRole[account] */\n  swap1\n  pop\n    /* \"@openzeppelin/contracts/access/AccessControl.sol\":2854:2990  function hasRole(bytes32 role, address account) public view virtual returns (bool) {... */\n  swap3\n  swap2\n  pop\n  pop\n  jump\t// out\n    /* \"#utility.yul\":7:106   */\ntag_28:\n    /* \"#utility.yul\":59:65   */\n  0x00\n    /* \"#utility.yul\":93:98   */\n  dup2\n    /* \"#utility.yul\":87:99   */\n  mload\n    /* \"#utility.yul\":77:99   */\n  swap1\n  pop\n    /* \"#utility.yul\":7:106   */\n  swap2\n  swap1\n  pop\n  jump\t// out\n    /* \"#utility.yul\":112:292   */\ntag_29:\n    /* \"#utility.yul\":160:237   */\n  0x4e487b7100000000000000000000000000000000000000000000000000000000\n    /* \"#utility.yul\":157:158   */\n  0x00\n    /* \"#utility.yul\":150:238   */\n  mstore\n    /* \"#utility.yul\":257:261   */\n  0x41\n    /* \"#utility.yul\":254:255   */\n  0x04\n    /* \"#utility.yul\":247:262   */\n  mstore\n    /* \"#utility.yul\":281:285   */\n  0x24\n    /* \"#utility.yul\":278:279   */\n  0x00\n    /* \"#utility.yul\":271:286   */\n  revert\n    /* \"#utility.yul\":298:478   */\ntag_30:\n    /* \"#utility.yul\":346:423   */\n  0x4e487b7100000000000000000000000000000000000000000000000000000000\n    /* \"#utility.yul\":343:344   */\n  0x00\n    /* \"#utility.yul\":336:424   */\n  mstore\n    /* \"#utility.yul\":443:447   */\n  0x22\n    /* \"#utility.yul\":440:441   */\n  0x04\n    /* \"#utility.yul\":433:448   */\n  mstore\n    /* \"#utility.yul\":467:471   */\n  0x24\n    /* \"#utility.yul\":464:465   */\n  0x00\n    /* \"#utility.yul\":457:472   */\n  revert\n    /* \"#utility.yul\":484:804   */\ntag_31:\n    /* \"#utility.yul\":528:534   */\n  0x00\n    /* \"#utility.yul\":565:566   */\n  0x02\n    /* \"#utility.yul\":559:563   */\n  dup3\n    /* \"#utility.yul\":555:567   */\n  div\n    /* \"#utility.yul\":545:567   */\n  swap1\n  pop\n    /* \"#utility.yul\":612:613   */\n  0x01\n    /* \"#utility.yul\":606:610   */\n  dup3\n    /* \"#utility.yul\":602:614   */\n  and\n    /* \"#utility.yul\":633:651   */\n  dup1\n    /* \"#utility.yul\":623:704   */\n  tag_53\n  jumpi\n    /* \"#utility.yul\":689:693   */\n  0x7f\n    /* \"#utility.yul\":681:687   */\n  dup3\n    /* \"#utility.yul\":677:694   */\n  and\n    /* \"#utility.yul\":667:694   */\n  swap2\n  pop\n    /* \"#utility.yul\":623:704   */\ntag_53:\n    /* \"#utility.yul\":751:753   */\n  0x20\n    /* \"#utility.yul\":743:749   */\n  dup3\n    /* \"#utility.yul\":740:754   */\n  lt\n    /* \"#utility.yul\":720:738   */\n  dup2\n    /* \"#utility.yul\":717:755   */\n  sub\n    /* \"#utility.yul\":714:798   */\n  tag_54\n  jumpi\n    /* \"#utility.yul\":770:788   */\n  tag_55\n  tag_30\n  jump\t// in\ntag_55:\n    /* \"#utility.yul\":714:798   */\ntag_54:\n    /* \"#utility.yul\":535:804   */\n  pop\n    /* \"#utility.yul\":484:804   */\n  swap2\n  swap1\n  pop\n  jump\t// out\n    /* \"#utility.yul\":810:951   */\ntag_32:\n    /* \"#utility.yul\":859:863   */\n  0x00\n    /* \"#utility.yul\":882:885   */\n  dup2\n    /* \"#utility.yul\":874:885   */\n  swap1\n  pop\n    /* \"#utility.yul\":905:908   */\n  dup2\n    /* \"#utility.yul\":902:903   */\n  0x00\n    /* \"#utility.yul\":895:909   */\n  mstore\n    /* \"#utility.yul\":939:943   */\n  0x20\n    /* \"#utility.yul\":936:937   */\n  0x00\n    /* \"#utility.yul\":926:944   */\n  keccak256\n    /* \"#utility.yul\":918:944   */\n  swap1\n  pop\n    /* \"#utility.yul\":810:951   */\n  swap2\n  swap1\n  pop\n  jump\t// out\n    /* \"#utility.yul\":957:1050   */\ntag_33:\n    /* \"#utility.yul\":994:1000   */\n  0x00\n    /* \"#utility.yul\":1041:1043   */\n  0x20\n    /* \"#utility.yul\":1036:1038   */\n  0x1f\n    /* \"#utility.yul\":1029:1034   */\n  dup4\n    /* \"#utility.yul\":1025:1039   */\n  add\n    /* \"#utility.yul\":1021:1044   */\n  div\n    /* \"#utility.yul\":1011:1044   */\n  swap1\n  pop\n    /* \"#utility.yul\":957:1050   */\n  swap2\n  swap1\n  pop\n  jump\t// out\n    /* \"#utility.yul\":1056:1163   */\ntag_34:\n    /* \"#utility.yul\":1100:1108   */\n  0x00\n    /* \"#utility.yul\":1150:1155   */\n  dup3\n    /* \"#utility.yul\":1144:1148   */\n  dup3\n    /* \"#utility.yul\":1140:1156   */\n  shl\n    /* \"#utility.yul\":1119:1156   */\n  swap1\n  pop\n    /* \"#utility.yul\":1056:1163   */\n  swap3\n  swap2\n  pop\n  pop\n  jump\t// out\n    /* \"#utility.yul\":1169:1562   */\ntag_35:\n    /* \"#utility.yul\":1238:1244   */\n  0x00\n    /* \"#utility.yul\":1288:1289   */\n  0x08\n    /* \"#utility.yul\":1276:1286   */\n  dup4\n    /* \"#utility.yul\":1272:1290   */\n  mul\n    /* \"#utility.yul\":1311:1408   */\n  tag_60\n    /* \"#utility.yul\":1341:1407   */\n  0xffffffffffffffffffffffffffffffffffffffffffffffffffffffffffffffff\n    /* \"#utility.yul\":1330:1339   */\n  dup3\n    /* \"#utility.yul\":1311:1408   */\n  tag_34\n  jump\t// in\ntag_60:\n    /* \"#utility.yul\":1429:1468   */\n  tag_61\n    /* \"#utility.yul\":1459:1467   */\n  dup7\n    /* \"#utility.yul\":1448:1457   */\n  dup4\n    /* \"#utility.yul\":1429:1468   */\n  tag_34\n  jump\t// in\ntag_61:\n    /* \"#utility.yul\":1417:1468   */\n  swap6\n  pop\n    /* \"#utility.yul\":1501:1505   */\n  dup1\n    /* \"#utility.yul\":1497:1506   */\n  not\n    /* \"#utility.yul\":1490:1495   */\n  dup5\n    /* \"#utility.yul\":1486:1507   */\n  and\n    /* \"#utility.yul\":1477:1507   */\n  swap4\n  pop\n    /* \"#utility.yul\":1550:1554   */\n  dup1\n    /* \"#utility.yul\":1540:1548   */\n  dup7\n    /* \"#utility.yul\":1536:1555   */\n  and\n    /* \"#utility.yul\":1529:1534   */\n  dup5\n    /* \"#utility.yul\":1526:1556   */\n  or\n    /* \"#utility.yul\":1516:1556   */\n  swap3\n  pop\n    /* \"#utility.yul\":1245:1562   */\n  pop\n  pop\n    /* \"#utility.yul\":1169:1562   */\n  swap4\n  swap3\n  pop\n  pop\n  pop\n  jump\t// out\n    /* \"#utility.yul\":1568:1645   */\ntag_36:\n    /* \"#utility.yul\":1605:1612   */\n  0x00\n    /* \"#utility.yul\":1634:1639   */\n  dup2\n    /* \"#utility.yul\":1623:1639   */\n  swap1\n  pop\n    /* \"#utility.yul\":1568:1645   */\n  swap2\n  swap1\n  pop\n  jump\t// out\n    /* \"#utility.yul\":1651:1711   */\ntag_37:\n    /* \"#utility.yul\":1679:1682   */\n  0x00\n    /* \"#utility.yul\":1700:1705   */\n  dup2\n    /* \"#utility.yul\":1693:1705   */\n  swap1\n  pop\n    /* \"#utility.yul\":1651:1711   */\n  swap2\n  swap1\n  pop\n  jump\t// out\n    /* \"#utility.yul\":1717:1859   */\ntag_38:\n    /* \"#utility.yul\":1767:1776   */\n  0x00\n    /* \"#utility.yul\":1800:1853   */\n  tag_65\n    /* \"#utility.yul\":1818:1852   */\n  tag_66\n    /* \"#utility.yul\":1827:1851   */\n  tag_67\n    /* \"#utility.yul\":1845:1850   */\n  dup5\n    /* \"#utility.yul\":1827:1851   */\n  tag_36\n  jump\t// in\ntag_67:\n    /* \"#utility.yul\":1818:1852   */\n  tag_37\n  jump\t// in\ntag_66:\n    /* \"#utility.yul\":1800:1853   */\n  tag_36\n  jump\t// in\ntag_65:\n    /* \"#utility.yul\":1787:1853   */\n  swap1\n  pop\n    /* \"#utility.yul\":1717:1859   */\n  swap2\n  swap1\n  pop\n  jump\t// out\n    /* \"#utility.yul\":1865:1940   */\ntag_39:\n    /* \"#utility.yul\":1908:1911   */\n  0x00\n    /* \"#utility.yul\":1929:1934   */\n  dup2\n    /* \"#utility.yul\":1922:1934   */\n  swap1\n  pop\n    /* \"#utility.yul\":1865:1940   */\n  swap2\n  swap1\n  pop\n  jump\t// out\n    /* \"#utility.yul\":1946:2215   */\ntag_40:\n    /* \"#utility.yul\":2056:2095   */\n  tag_70\n    /* \"#utility.yul\":2087:2094   */\n  dup4\n    /* \"#utility.yul\":2056:2095   */\n  tag_38\n  jump\t// in\ntag_70:\n    /* \"#utility.yul\":2117:2208   */\n  tag_71\n    /* \"#utility.yul\":2166:2207   */\n  tag_72\n    /* \"#utility.yul\":2190:2206   */\n  dup3\n    /* \"#utility.yul\":2166:2207   */\n  tag_39\n  jump\t// in\ntag_72:\n    /* \"#utility.yul\":2158:2164   */\n  dup5\n    /* \"#utility.yul\":2151:2155   */\n  dup5\n    /* \"#utility.yul\":2145:2156   */\n  sload\n    /* \"#utility.yul\":2117:2208   */\n  tag_35\n  jump\t// in\ntag_71:\n    /* \"#utility.yul\":2111:2115   */\n  dup3\n    /* \"#utility.yul\":2104:2209   */\n  sstore\n    /* \"#utility.yul\":2022:2215   */\n  pop\n    /* \"#utility.yul\":1946:2215   */\n  pop\n  pop\n  pop\n  jump\t// out\n    /* \"#utility.yul\":2221:2294   */\ntag_41:\n    /* \"#utility.yul\":2266:2269   */\n  0x00\n    /* \"#utility.yul\":2221:2294   */\n  swap1\n  jump\t// out\n    /* \"#utility.yul\":2300:2489   */\ntag_42:\n    /* \"#utility.yul\":2377:2409   */\n  tag_75\n  tag_41\n  jump\t// in\ntag_75:\n    /* \"#utility.yul\":2418:2483   */\n  tag_76\n    /* \"#utility.yul\":2476:2482   */\n  dup2\n    /* \"#utility.yul\":2468:2474   */\n  dup5\n    /* \"#utility.yul\":2462:2466   */\n  dup5\n    /* \"#utility.yul\":2418:2483   */\n  tag_40\n  jump\t// in\ntag_76:\n    /* \"#utility.yul\":2353:2489   */\n  pop\n    /* \"#utility.yul\":2300:2489   */\n  pop\n  pop\n  jump\t// out\n    /* \"#utility.yul\":2495:2681   */\ntag_43:\n    /* \"#utility.yul\":2555:2675   */\ntag_78:\n    /* \"#utility.yul\":2572:2575   */\n  dup2\n    /* \"#utility.yul\":2565:2570   */\n  dup2\n    /* \"#utility.yul\":2562:2576   */\n  lt\n    /* \"#utility.yul\":2555:2675   */\n  iszero\n  tag_80\n  jumpi\n    /* \"#utility.yul\":2626:2665   */\n  tag_81\n    /* \"#utility.yul\":2663:2664   */\n  0x00\n    /* \"#utility.yul\":2656:2661   */\n  dup3\n    /* \"#utility.yul\":2626:2665   */\n  tag_42\n  jump\t// in\ntag_81:\n    /* \"#utility.yul\":2599:2600   */\n  0x01\n    /* \"#utility.yul\":2592:2597   */\n  dup2\n    /* \"#utility.yul\":2588:2601   */\n  add\n    /* \"#utility.yul\":2579:2601   */\n  swap1\n  pop\n    /* \"#utility.yul\":2555:2675   */\n  jump(tag_78)\ntag_80:\n    /* \"#utility.yul\":2495:2681   */\n  pop\n  pop\n  jump\t// out\n    /* \"#utility.yul\":2687:3230   */\ntag_44:\n    /* \"#utility.yul\":2788:2790   */\n  0x1f\n    /* \"#utility.yul\":2783:2786   */\n  dup3\n    /* \"#utility.yul\":2780:2791   */\n  gt\n    /* \"#utility.yul\":2777:3223   */\n  iszero\n  tag_83\n  jumpi\n    /* \"#utility.yul\":2822:2860   */\n  tag_84\n    /* \"#utility.yul\":2854:2859   */\n  dup2\n    /* \"#utility.yul\":2822:2860   */\n  tag_32\n  jump\t// in\ntag_84:\n    /* \"#utility.yul\":2906:2935   */\n  tag_85\n    /* \"#utility.yul\":2924:2934   */\n  dup5\n    /* \"#utility.yul\":2906:2935   */\n  tag_33\n  jump\t// in\ntag_85:\n    /* \"#utility.yul\":2896:2904   */\n  dup2\n    /* \"#utility.yul\":2892:2936   */\n  add\n    /* \"#utility.yul\":3089:3091   */\n  0x20\n    /* \"#utility.yul\":3077:3087   */\n  dup6\n    /* \"#utility.yul\":3074:3092   */\n  lt\n    /* \"#utility.yul\":3071:3120   */\n  iszero\n  tag_86\n  jumpi\n    /* \"#utility.yul\":3110:3118   */\n  dup2\n    /* \"#utility.yul\":3095:3118   */\n  swap1\n  pop\n    /* \"#utility.yul\":3071:3120   */\ntag_86:\n    /* \"#utility.yul\":3133:3213   */\n  tag_87\n    /* \"#utility.yul\":3189:3211   */\n  tag_88\n    /* \"#utility.yul\":3207:3210   */\n  dup6\n    /* \"#utility.yul\":3189:3211   */\n  tag_33\n  jump\t// in\ntag_88:\n    /* \"#utility.yul\":3179:3187   */\n  dup4\n    /* \"#utility.yul\":3175:3212   */\n  add\n    /* \"#utility.yul\":3162:3173   */\n  dup3\n    /* \"#utility.yul\":3133:3213   */\n  tag_43\n  jump\t// in\ntag_87:\n    /* \"#utility.yul\":2792:3223   */\n  pop\n  pop\n    /* \"#utility.yul\":2777:3223   */\ntag_83:\n    /* \"#utility.yul\":2687:3230   */\n  pop\n  pop\n  pop\n  jump\t// out\n    /* \"#utility.yul\":3236:3353   */\ntag_45:\n    /* \"#utility.yul\":3290:3298   */\n  0x00\n    /* \"#utility.yul\":3340:3345   */\n  dup3\n    /* \"#utility.yul\":3334:3338   */\n  dup3\n    /* \"#utility.yul\":3330:3346   */\n  shr\n    /* \"#utility.yul\":3309:3346   */\n  swap1\n  pop\n    /* \"#utility.yul\":3236:3353   */\n  swap3\n  swap2\n  pop\n  pop\n  jump\t// out\n    /* \"#utility.yul\":3359:3528   */\ntag_46:\n    /* \"#utility.yul\":3403:3409   */\n  0x00\n    /* \"#utility.yul\":3436:3487   */\n  tag_91\n    /* \"#utility.yul\":3484:3485   */\n  0x00\n    /* \"#utility.yul\":3480:3486   */\n  not\n    /* \"#utility.yul\":3472:3477   */\n  dup5\n    /* \"#utility.yul\":3469:3470   */\n  0x08\n    /* \"#utility.yul\":3465:3478   */\n  mul\n    /* \"#utility.yul\":3436:3487   */\n  tag_45\n  jump\t// in\ntag_91:\n    /* \"#utility.yul\":3432:3488   */\n  not\n    /* \"#utility.yul\":3517:3521   */\n  dup1\n    /* \"#utility.yul\":3511:3515   */\n  dup4\n    /* \"#utility.yul\":3507:3522   */\n  and\n    /* \"#utility.yul\":3497:3522   */\n  swap2\n  pop\n    /* \"#utility.yul\":3410:3528   */\n  pop\n    /* \"#utility.yul\":3359:3528   */\n  swap3\n  swap2\n  pop\n  pop\n  jump\t// out\n    /* \"#utility.yul\":3533:3828   */\ntag_47:\n    /* \"#utility.yul\":3609:3613   */\n  0x00\n    /* \"#utility.yul\":3755:3784   */\n  tag_93\n    /* \"#utility.yul\":3780:3783   */\n  dup4\n    /* \"#utility.yul\":3774:3778   */\n  dup4\n    /* \"#utility.yul\":3755:3784   */\n  tag_46\n  jump\t// in\ntag_93:\n    /* \"#utility.yul\":3747:3784   */\n  swap2\n  pop\n    /* \"#utility.yul\":3817:3820   */\n  dup3\n    /* \"#utility.yul\":3814:3815   */\n  0x02\n    /* \"#utility.yul\":3810:3821   */\n  mul\n    /* \"#utility.yul\":3804:3808   */\n  dup3\n    /* \"#utility.yul\":3801:3822   */\n  or\n    /* \"#utility.yul\":3793:3822   */\n  swap1\n  pop\n    /* \"#utility.yul\":3533:3828   */\n  swap3\n  swap2\n  pop\n  pop\n  jump\t// out\n    /* \"#utility.yul\":3833:5228   */\ntag_6:\n    /* \"#utility.yul\":3950:3987   */\n  tag_95\n    /* \"#utility.yul\":3983:3986   */\n  dup3\n    /* \"#utility.yul\":3950:3987   */\n  tag_28\n  jump\t// in\ntag_95:\n    /* \"#utility.yul\":4052:4070   */\n  0xffffffffffffffff\n    /* \"#utility.yul\":4044:4050   */\n  dup2\n    /* \"#utility.yul\":4041:4071   */\n  gt\n    /* \"#utility.yul\":4038:4094   */\n  iszero\n  tag_96\n  jumpi\n    /* \"#utility.yul\":4074:4092   */\n  tag_97\n  tag_29\n  jump\t// in\ntag_97:\n    /* \"#utility.yul\":4038:4094   */\ntag_96:\n    /* \"#utility.yul\":4118:4156   */\n  tag_98\n    /* \"#utility.yul\":4150:4154   */\n  dup3\n    /* \"#utility.yul\":4144:4155   */\n  sload\n    /* \"#utility.yul\":4118:4156   */\n  tag_31\n  jump\t// in\ntag_98:\n    /* \"#utility.yul\":4203:4270   */\n  tag_99\n    /* \"#utility.yul\":4263:4269   */\n  dup3\n    /* \"#utility.yul\":4255:4261   */\n  dup3\n    /* \"#utility.yul\":4249:4253   */\n  dup6\n    /* \"#utility.yul\":4203:4270   */\n  tag_44\n  jump\t// in\ntag_99:\n    /* \"#utility.yul\":4297:4298   */\n  0x00\n    /* \"#utility.yul\":4321:4325   */\n  0x20\n    /* \"#utility.yul\":4308:4325   */\n  swap1\n  pop\n    /* \"#utility.yul\":4353:4355   */\n  0x1f\n    /* \"#utility.yul\":4345:4351   */\n  dup4\n    /* \"#utility.yul\":4342:4356   */\n  gt\n    /* \"#utility.yul\":4370:4371   */\n  0x01\n    /* \"#utility.yul\":4365:4983   */\n  dup2\n  eq\n  tag_101\n  jumpi\n    /* \"#utility.yul\":5027:5028   */\n  0x00\n    /* \"#utility.yul\":5044:5050   */\n  dup5\n    /* \"#utility.yul\":5041:5118   */\n  iszero\n  tag_102\n  jumpi\n    /* \"#utility.yul\":5093:5102   */\n  dup3\n    /* \"#utility.yul\":5088:5091   */\n  dup8\n    /* \"#utility.yul\":5084:5103   */\n  add\n    /* \"#utility.yul\":5078:5104   */\n  mload\n    /* \"#utility.yul\":5069:5104   */\n  swap1\n  pop\n    /* \"#utility.yul\":5041:5118   */\ntag_102:\n    /* \"#utility.yul\":5144:5211   */\n  tag_103\n    /* \"#utility.yul\":5204:5210   */\n  dup6\n    /* \"#utility.yul\":5197:5202   */\n  dup3\n    /* \"#utility.yul\":5144:5211   */\n  tag_47\n  jump\t// in\ntag_103:\n    /* \"#utility.yul\":5138:5142   */\n  dup7\n    /* \"#utility.yul\":5131:5212   */\n  sstore\n    /* \"#utility.yul\":5000:5222   */\n  pop\n    /* \"#utility.yul\":4335:5222   */\n  jump(tag_100)\n    /* \"#utility.yul\":4365:4983   */\ntag_101:\n    /* \"#utility.yul\":4417:4421   */\n  0x1f\n    /* \"#utility.yul\":4413:4422   */\n  not\n    /* \"#utility.yul\":4405:4411   */\n  dup5\n    /* \"#utility.yul\":4401:4423   */\n  and\n    /* \"#utility.yul\":4451:4488   */\n  tag_104\n    /* \"#utility.yul\":4483:4487   */\n  dup7\n    /* \"#utility.yul\":4451:4488   */\n  tag_32\n  jump\t// in\ntag_104:\n    /* \"#utility.yul\":4510:4511   */\n  0x00\n    /* \"#utility.yul\":4524:4732   */\ntag_105:\n    /* \"#utility.yul\":4538:4545   */\n  dup3\n    /* \"#utility.yul\":4535:4536   */\n  dup2\n    /* \"#utility.yul\":4532:4546   */\n  lt\n    /* \"#utility.yul\":4524:4732   */\n  iszero\n  tag_107\n  jumpi\n    /* \"#utility.yul\":4617:4626   */\n  dup5\n    /* \"#utility.yul\":4612:4615   */\n  dup10\n    /* \"#utility.yul\":4608:4627   */\n  add\n    /* \"#utility.yul\":4602:4628   */\n  mload\n    /* \"#utility.yul\":4594:4600   */\n  dup3\n    /* \"#utility.yul\":4587:4629   */\n  sstore\n    /* \"#utility.yul\":4668:4669   */\n  0x01\n    /* \"#utility.yul\":4660:4666   */\n  dup3\n    /* \"#utility.yul\":4656:4670   */\n  add\n    /* \"#utility.yul\":4646:4670   */\n  swap2\n  pop\n    /* \"#utility.yul\":4715:4717   */\n  0x20\n    /* \"#utility.yul\":4704:4713   */\n  dup6\n    /* \"#utility.yul\":4700:4718   */\n  add\n    /* \"#utility.yul\":4687:4718   */\n  swap5\n  pop\n    /* \"#utility.yul\":4561:4565   */\n  0x20\n    /* \"#utility.yul\":4558:4559   */\n  dup2\n    /* \"#utility.yul\":4554:4566   */\n  add\n    /* \"#utility.yul\":4549:4566   */\n  swap1\n  pop\n    /* \"#utility.yul\":4524:4732   */\n  jump(tag_105)\ntag_107:\n    /* \"#utility.yul\":4760:4766   */\n  dup7\n    /* \"#utility.yul\":4751:4758   */\n  dup4\n    /* \"#utility.yul\":4748:4767   */\n  lt\n    /* \"#utility.yul\":4745:4924   */\n  iszero\n  tag_108\n  jumpi\n    /* \"#utility.yul\":4818:4827   */\n  dup5\n    /* \"#utility.yul\":4813:4816   */\n  dup10\n    /* \"#utility.yul\":4809:4828   */\n  add\n    /* \"#utility.yul\":4803:4829   */\n  mload\n    /* \"#utility.yul\":4861:4909   */\n  tag_109\n    /* \"#utility.yul\":4903:4907   */\n  0x1f\n    /* \"#utility.yul\":4895:4901   */\n  dup10\n    /* \"#utility.yul\":4891:4908   */\n  and\n    /* \"#utility.yul\":4880:4889   */\n  dup3\n    /* \"#utility.yul\":4861:4909   */\n  tag_46\n  jump\t// in\ntag_109:\n    /* \"#utility.yul\":4853:4859   */\n  dup4\n    /* \"#utility.yul\":4846:4910   */\n  sstore\n    /* \"#utility.yul\":4768:4924   */\n  pop\n    /* \"#utility.yul\":4745:4924   */\ntag_108:\n    /* \"#utility.yul\":4970:4971   */\n  0x01\n    /* \"#utility.yul\":4966:4967   */\n  0x02\n    /* \"#utility.yul\":4958:4964   */\n  dup9\n    /* \"#utility.yul\":4954:4968   */\n  mul\n    /* \"#utility.yul\":4950:4972   */\n  add\n    /* \"#utility.yul\":4944:4948   */\n  dup9\n    /* \"#utility.yul\":4937:4973   */\n  sstore\n    /* \"#utility.yul\":4372:4983   */\n  pop\n  pop\n  pop\n    /* \"#utility.yul\":4335:5222   */\ntag_100:\n  pop\n    /* \"#utility.yul\":3925:5228   */\n  pop\n  pop\n  pop\n    /* \"#utility.yul\":3833:5228   */\n  pop\n  pop\n  jump\t// out\n    /* \"PIZZA_BITES_TOKEN/contracts/PizzaBitesToken.sol\":383:2851  contract PizzaBitesToken is ERC20, AccessControl {... */\ntag_19:\n  dataSize(sub_0)\n  dup1\n  dataOffset(sub_0)\n  0x00\n  codecopy\n  0x00\n  return\nstop\n\nsub_0: assembly {\n        /* \"PIZZA_BITES_TOKEN/contracts/PizzaBitesToken.sol\":383:2851  contract PizzaBitesToken is ERC20, AccessControl {... */\n      mstore(0x40, 0x80)\n      callvalue\n      dup1\n      iszero\n      tag_1\n      jumpi\n      0x00\n      dup1\n      revert\n    tag_1:\n      pop\n      jumpi(tag_2, lt(calldatasize, 0x04))\n      shr(0xe0, calldataload(0x00))\n      dup1\n      0x36568abe\n      gt\n      tag_26\n      jumpi\n      dup1\n      0x95d89b41\n      gt\n      tag_27\n      jumpi\n      dup1\n      0x95d89b41\n      eq\n      tag_20\n      jumpi\n      dup1\n      0xa217fddf\n      eq\n      tag_21\n      jumpi\n      dup1\n      0xa9059cbb\n      eq\n      tag_22\n      jumpi\n      dup1\n      0xd5391393\n      eq\n      tag_23\n      jumpi\n      dup1\n      0xd547741f\n      eq\n      tag_24\n      jumpi\n      dup1\n      0xdd62ed3e\n      eq\n      tag_25\n      jumpi\n      jump(tag_2)\n    tag_27:\n      dup1\n      0x36568abe\n      eq\n      tag_14\n      jumpi\n      dup1\n      0x40bed364\n      eq\n      tag_15\n      jumpi\n      dup1\n      0x40c10f19\n      eq\n      tag_16\n      jumpi\n      dup1\n      0x6b5d9a81\n      eq\n      tag_17\n      jumpi\n      dup1\n      0x70a08231\n      eq\n      tag_18\n      jumpi\n      dup1\n      0x91d14854\n      eq\n      tag_19\n      jumpi\n      jump(tag_2)\n    tag_26:\n      dup1\n      0x23b872dd\n      gt\n      tag_28\n      jumpi\n      dup1\n      0x23b872dd\n      eq\n      tag_8\n      jumpi\n      dup1\n      0x248a9ca3\n      eq\n      tag_9\n      jumpi\n      dup1\n      0x282c51f3\n      eq\n      tag_10\n      jumpi\n      dup1\n      0x2f2ff15d\n      eq\n      tag_11\n      jumpi\n      dup1\n      0x3125e46e\n      eq\n      tag_12\n      jumpi\n      dup1\n      0x313ce567\n      eq\n      tag_13\n      jumpi\n      jump(tag_2)\n    tag_28:\n      dup1\n      0x01ffc9a7\n      eq\n      tag_3\n      jumpi\n      dup1\n      0x06fdde03\n      eq\n      tag_4\n      jumpi\n      dup1\n      0x095ea7b3\n      eq\n      tag_5\n      jumpi\n      dup1\n      0x122faf73\n      eq\n      tag_6\n      jumpi\n      dup1\n      0x18160ddd\n      eq\n      tag_7\n      jumpi\n    tag_2:\n      0x00\n      dup1\n      revert\n        /* \"@openzeppelin/contracts/access/AccessControl.sol\":2565:2767  function supportsInterface(bytes4 interfaceId) public view virtual override returns (bool) {... */\n    tag_3:\n      tag_29\n      0x04\n      dup1\n      calldatasize\n      sub\n      dup2\n      add\n      swap1\n      tag_30\n      swap2\n      swap1\n      tag_31\n      jump\t// in\n    tag_30:\n      tag_32\n      jump\t// in\n    tag_29:\n      mload(0x40)\n      tag_33\n      swap2\n      swap1\n      tag_34\n      jump\t// in\n    tag_33:\n      mload(0x40)\n      dup1\n      swap2\n      sub\n      swap1\n      return\n        /* \"@openzeppelin/contracts/token/ERC20/ERC20.sol\":2074:2163  function name() public view virtual returns (string memory) {... */\n    tag_4:\n      tag_35\n      tag_36\n      jump\t// in\n    tag_35:\n      mload(0x40)\n      tag_37\n      swap2\n      swap1\n      tag_38\n      jump\t// in\n    tag_37:\n      mload(0x40)\n      dup1\n      swap2\n      sub\n      swap1\n      return\n        /* \"@openzeppelin/contracts/token/ERC20/ERC20.sol\":4293:4479  function approve(address spender, uint256 value) public virtual returns (bool) {... */\n    tag_5:\n      tag_39\n      0x04\n      dup1\n      calldatasize\n      sub\n      dup2\n      add\n      swap1\n      tag_40\n      swap2\n      swap1\n      tag_41\n      jump\t// in\n    tag_40:\n      tag_42\n      jump\t// in\n    tag_39:\n      mload(0x40)\n      tag_43\n      swap2\n      swap1\n      tag_34\n      jump\t// in\n    tag_43:\n      mload(0x40)\n      dup1\n      swap2\n      sub\n      swap1\n      return\n        /* \"PIZZA_BITES_TOKEN/contracts/PizzaBitesToken.sol\":1053:1107  mapping(address => uint256) public tokenBalanceLeadger */\n    tag_6:\n      tag_44\n      0x04\n      dup1\n      calldatasize\n      sub\n      dup2\n      add\n      swap1\n      tag_45\n      swap2\n      swap1\n      tag_46\n      jump\t// in\n    tag_45:\n      tag_47\n      jump\t// in\n    tag_44:\n      mload(0x40)\n      tag_48\n      swap2\n      swap1\n      tag_49\n      jump\t// in\n    tag_48:\n      mload(0x40)\n      dup1\n      swap2\n      sub\n      swap1\n      return\n        /* \"@openzeppelin/contracts/token/ERC20/ERC20.sol\":3144:3241  function totalSupply() public view virtual returns (uint256) {... */\n    tag_7:\n      tag_50\n      tag_51\n      jump\t// in\n    tag_50:\n      mload(0x40)\n      tag_52\n      swap2\n      swap1\n      tag_49\n      jump\t// in\n    tag_52:\n      mload(0x40)\n      dup1\n      swap2\n      sub\n      swap1\n      return\n        /* \"@openzeppelin/contracts/token/ERC20/ERC20.sol\":5039:5283  function transferFrom(address from, address to, uint256 value) public virtual returns (bool) {... */\n    tag_8:\n      tag_53\n      0x04\n      dup1\n      calldatasize\n      sub\n      dup2\n      add\n      swap1\n      tag_54\n      swap2\n      swap1\n      tag_55\n      jump\t// in\n    tag_54:\n      tag_56\n      jump\t// in\n    tag_53:\n      mload(0x40)\n      tag_57\n      swap2\n      swap1\n      tag_34\n      jump\t// in\n    tag_57:\n      mload(0x40)\n      dup1\n      swap2\n      sub\n      swap1\n      return\n        /* \"@openzeppelin/contracts/access/AccessControl.sol\":3810:3930  function getRoleAdmin(bytes32 role) public view virtual returns (bytes32) {... */\n    tag_9:\n      tag_58\n      0x04\n      dup1\n      calldatasize\n      sub\n      dup2\n      add\n      swap1\n      tag_59\n      swap2\n      swap1\n      tag_60\n      jump\t// in\n    tag_59:\n      tag_61\n      jump\t// in\n    tag_58:\n      mload(0x40)\n      tag_62\n      swap2\n      swap1\n      tag_63\n      jump\t// in\n    tag_62:\n      mload(0x40)\n      dup1\n      swap2\n      sub\n      swap1\n      return\n        /* \"PIZZA_BITES_TOKEN/contracts/PizzaBitesToken.sol\":610:672  bytes32 public constant BURNER_ROLE = keccak256(\"BURNER_ROLE\") */\n    tag_10:\n      tag_64\n      tag_65\n      jump\t// in\n    tag_64:\n      mload(0x40)\n      tag_66\n      swap2\n      swap1\n      tag_63\n      jump\t// in\n    tag_66:\n      mload(0x40)\n      dup1\n      swap2\n      sub\n      swap1\n      return\n        /* \"@openzeppelin/contracts/access/AccessControl.sol\":4226:4362  function grantRole(bytes32 role, address account) public virtual onlyRole(getRoleAdmin(role)) {... */\n    tag_11:\n      tag_67\n      0x04\n      dup1\n      calldatasize\n      sub\n      dup2\n      add\n      swap1\n      tag_68\n      swap2\n      swap1\n      tag_69\n      jump\t// in\n    tag_68:\n      tag_70\n      jump\t// in\n    tag_67:\n      stop\n        /* \"PIZZA_BITES_TOKEN/contracts/PizzaBitesToken.sol\":1924:2277  function buyPizza(uint256 numOfPizza)  external  {... */\n    tag_12:\n      tag_71\n      0x04\n      dup1\n      calldatasize\n      sub\n      dup2\n      add\n      swap1\n      tag_72\n      swap2\n      swap1\n      tag_73\n      jump\t// in\n    tag_72:\n      tag_74\n      jump\t// in\n    tag_71:\n      stop\n        /* \"@openzeppelin/contracts/token/ERC20/ERC20.sol\":3002:3084  function decimals() public view virtual returns (uint8) {... */\n    tag_13:\n      tag_75\n      tag_76\n      jump\t// in\n    tag_75:\n      mload(0x40)\n      tag_77\n      swap2\n      swap1\n      tag_78\n      jump\t// in\n    tag_77:\n      mload(0x40)\n      dup1\n      swap2\n      sub\n      swap1\n      return\n        /* \"@openzeppelin/contracts/access/AccessControl.sol\":5328:5573  function renounceRole(bytes32 role, address callerConfirmation) public virtual {... */\n    tag_14:\n      tag_79\n      0x04\n      dup1\n      calldatasize\n      sub\n      dup2\n      add\n      swap1\n      tag_80\n      swap2\n      swap1\n      tag_69\n      jump\t// in\n    tag_80:\n      tag_81\n      jump\t// in\n    tag_79:\n      stop\n        /* \"PIZZA_BITES_TOKEN/contracts/PizzaBitesToken.sol\":2467:2845  function spendAllowance(address _spender, uint256 _value, address _to) public onlyRole(SPEND_ALLOWANCER) {... */\n    tag_15:\n      tag_82\n      0x04\n      dup1\n      calldatasize\n      sub\n      dup2\n      add\n      swap1\n      tag_83\n      swap2\n      swap1\n      tag_84\n      jump\t// in\n    tag_83:\n      tag_85\n      jump\t// in\n    tag_82:\n      stop\n        /* \"PIZZA_BITES_TOKEN/contracts/PizzaBitesToken.sol\":1576:1900  function mint(address to, uint256 amount) public onlyRole(MINTER_ROLE) {... */\n    tag_16:\n      tag_86\n      0x04\n      dup1\n      calldatasize\n      sub\n      dup2\n      add\n      swap1\n      tag_87\n      swap2\n      swap1\n      tag_41\n      jump\t// in\n    tag_87:\n      tag_88\n      jump\t// in\n    tag_86:\n      stop\n        /* \"PIZZA_BITES_TOKEN/contracts/PizzaBitesToken.sol\":732:804  bytes32 public constant SPEND_ALLOWANCER = keccak256(\"SPEND_ALLOWANCER\") */\n    tag_17:\n      tag_89\n      tag_90\n      jump\t// in\n    tag_89:\n      mload(0x40)\n      tag_91\n      swap2\n      swap1\n      tag_63\n      jump\t// in\n    tag_91:\n      mload(0x40)\n      dup1\n      swap2\n      sub\n      swap1\n      return\n        /* \"@openzeppelin/contracts/token/ERC20/ERC20.sol\":3299:3415  function balanceOf(address account) public view virtual returns (uint256) {... */\n    tag_18:\n      tag_92\n      0x04\n      dup1\n      calldatasize\n      sub\n      dup2\n      add\n      swap1\n      tag_93\n      swap2\n      swap1\n      tag_46\n      jump\t// in\n    tag_93:\n      tag_94\n      jump\t// in\n    tag_92:\n      mload(0x40)\n      tag_95\n      swap2\n      swap1\n      tag_49\n      jump\t// in\n    tag_95:\n      mload(0x40)\n      dup1\n      swap2\n      sub\n      swap1\n      return\n        /* \"@openzeppelin/contracts/access/AccessControl.sol\":2854:2990  function hasRole(bytes32 role, address account) public view virtual returns (bool) {... */\n    tag_19:\n      tag_96\n      0x04\n      dup1\n      calldatasize\n      sub\n      dup2\n      add\n      swap1\n      tag_97\n      swap2\n      swap1\n      tag_69\n      jump\t// in\n    tag_97:\n      tag_98\n      jump\t// in\n    tag_96:\n      mload(0x40)\n      tag_99\n      swap2\n      swap1\n      tag_34\n      jump\t// in\n    tag_99:\n      mload(0x40)\n      dup1\n      swap2\n      sub\n      swap1\n      return\n        /* \"@openzeppelin/contracts/token/ERC20/ERC20.sol\":2276:2369  function symbol() public view virtual returns (string memory) {... */\n    tag_20:\n      tag_100\n      tag_101\n      jump\t// in\n    tag_100:\n      mload(0x40)\n      tag_102\n      swap2\n      swap1\n      tag_38\n      jump\t// in\n    tag_102:\n      mload(0x40)\n      dup1\n      swap2\n      sub\n      swap1\n      return\n        /* \"@openzeppelin/contracts/access/AccessControl.sol\":2187:2236  bytes32 public constant DEFAULT_ADMIN_ROLE = 0x00 */\n    tag_21:\n      tag_103\n      tag_104\n      jump\t// in\n    tag_103:\n      mload(0x40)\n      tag_105\n      swap2\n      swap1\n      tag_63\n      jump\t// in\n    tag_105:\n      mload(0x40)\n      dup1\n      swap2\n      sub\n      swap1\n      return\n        /* \"@openzeppelin/contracts/token/ERC20/ERC20.sol\":3610:3788  function transfer(address to, uint256 value) public virtual returns (bool) {... */\n    tag_22:\n      tag_106\n      0x04\n      dup1\n      calldatasize\n      sub\n      dup2\n      add\n      swap1\n      tag_107\n      swap2\n      swap1\n      tag_41\n      jump\t// in\n    tag_107:\n      tag_108\n      jump\t// in\n    tag_106:\n      mload(0x40)\n      tag_109\n      swap2\n      swap1\n      tag_34\n      jump\t// in\n    tag_109:\n      mload(0x40)\n      dup1\n      swap2\n      sub\n      swap1\n      return\n        /* \"PIZZA_BITES_TOKEN/contracts/PizzaBitesToken.sol\":498:560  bytes32 public constant MINTER_ROLE = keccak256(\"MINTER_ROLE\") */\n    tag_23:\n      tag_110\n      tag_111\n      jump\t// in\n    tag_110:\n      mload(0x40)\n      tag_112\n      swap2\n      swap1\n      tag_63\n      jump\t// in\n    tag_112:\n      mload(0x40)\n      dup1\n      swap2\n      sub\n      swap1\n      return\n        /* \"@openzeppelin/contracts/access/AccessControl.sol\":4642:4780  function revokeRole(bytes32 role, address account) public virtual onlyRole(getRoleAdmin(role)) {... */\n    tag_24:\n      tag_113\n      0x04\n      dup1\n      calldatasize\n      sub\n      dup2\n      add\n      swap1\n      tag_114\n      swap2\n      swap1\n      tag_69\n      jump\t// in\n    tag_114:\n      tag_115\n      jump\t// in\n    tag_113:\n      stop\n        /* \"@openzeppelin/contracts/token/ERC20/ERC20.sol\":3846:3986  function allowance(address owner, address spender) public view virtual returns (uint256) {... */\n    tag_25:\n      tag_116\n      0x04\n      dup1\n      calldatasize\n      sub\n      dup2\n      add\n      swap1\n      tag_117\n      swap2\n      swap1\n      tag_118\n      jump\t// in\n    tag_117:\n      tag_119\n      jump\t// in\n    tag_116:\n      mload(0x40)\n      tag_120\n      swap2\n      swap1\n      tag_49\n      jump\t// in\n    tag_120:\n      mload(0x40)\n      dup1\n      swap2\n      sub\n      swap1\n      return\n        /* \"@openzeppelin/contracts/access/AccessControl.sol\":2565:2767  function supportsInterface(bytes4 interfaceId) public view virtual override returns (bool) {... */\n    tag_32:\n        /* \"@openzeppelin/contracts/access/AccessControl.sol\":2650:2654  bool */\n      0x00\n        /* \"@openzeppelin/contracts/access/AccessControl.sol\":2688:2720  type(IAccessControl).interfaceId */\n      0x7965db0b00000000000000000000000000000000000000000000000000000000\n        /* \"@openzeppelin/contracts/access/AccessControl.sol\":2673:2720  interfaceId == type(IAccessControl).interfaceId */\n      not(0xffffffffffffffffffffffffffffffffffffffffffffffffffffffff)\n      and\n        /* \"@openzeppelin/contracts/access/AccessControl.sol\":2673:2684  interfaceId */\n      dup3\n        /* \"@openzeppelin/contracts/access/AccessControl.sol\":2673:2720  interfaceId == type(IAccessControl).interfaceId */\n      not(0xffffffffffffffffffffffffffffffffffffffffffffffffffffffff)\n      and\n      eq\n        /* \"@openzeppelin/contracts/access/AccessControl.sol\":2673:2760  interfaceId == type(IAccessControl).interfaceId || super.supportsInterface(interfaceId) */\n      dup1\n      tag_122\n      jumpi\n      pop\n        /* \"@openzeppelin/contracts/access/AccessControl.sol\":2724:2760  super.supportsInterface(interfaceId) */\n      tag_123\n        /* \"@openzeppelin/contracts/access/AccessControl.sol\":2748:2759  interfaceId */\n      dup3\n        /* \"@openzeppelin/contracts/access/AccessControl.sol\":2724:2747  super.supportsInterface */\n      tag_124\n        /* \"@openzeppelin/contracts/access/AccessControl.sol\":2724:2760  super.supportsInterface(interfaceId) */\n      jump\t// in\n    tag_123:\n        /* \"@openzeppelin/contracts/access/AccessControl.sol\":2673:2760  interfaceId == type(IAccessControl).interfaceId || super.supportsInterface(interfaceId) */\n    tag_122:\n        /* \"@openzeppelin/contracts/access/AccessControl.sol\":2666:2760  return interfaceId == type(IAccessControl).interfaceId || super.supportsInterface(interfaceId) */\n      swap1\n      pop\n        /* \"@openzeppelin/contracts/access/AccessControl.sol\":2565:2767  function supportsInterface(bytes4 interfaceId) public view virtual override returns (bool) {... */\n      swap2\n      swap1\n      pop\n      jump\t// out\n        /* \"@openzeppelin/contracts/token/ERC20/ERC20.sol\":2074:2163  function name() public view virtual returns (string memory) {... */\n    tag_36:\n        /* \"@openzeppelin/contracts/token/ERC20/ERC20.sol\":2119:2132  string memory */\n      0x60\n        /* \"@openzeppelin/contracts/token/ERC20/ERC20.sol\":2151:2156  _name */\n      0x03\n        /* \"@openzeppelin/contracts/token/ERC20/ERC20.sol\":2144:2156  return _name */\n      dup1\n      sload\n      tag_126\n      swap1\n      tag_127\n      jump\t// in\n    tag_126:\n      dup1\n      0x1f\n      add\n      0x20\n      dup1\n      swap2\n      div\n      mul\n      0x20\n      add\n      mload(0x40)\n      swap1\n      dup2\n      add\n      0x40\n      mstore\n      dup1\n      swap3\n      swap2\n      swap1\n      dup2\n      dup2\n      mstore\n      0x20\n      add\n      dup3\n      dup1\n      sload\n      tag_128\n      swap1\n      tag_127\n      jump\t// in\n    tag_128:\n      dup1\n      iszero\n      tag_129\n      jumpi\n      dup1\n      0x1f\n      lt\n      tag_130\n      jumpi\n      0x0100\n      dup1\n      dup4\n      sload\n      div\n      mul\n      dup4\n      mstore\n      swap2\n      0x20\n      add\n      swap2\n      jump(tag_129)\n    tag_130:\n      dup3\n      add\n      swap2\n      swap1\n      0x00\n      mstore\n      keccak256(0x00, 0x20)\n      swap1\n    tag_131:\n      dup2\n      sload\n      dup2\n      mstore\n      swap1\n      0x01\n      add\n      swap1\n      0x20\n      add\n      dup1\n      dup4\n      gt\n      tag_131\n      jumpi\n      dup3\n      swap1\n      sub\n      0x1f\n      and\n      dup3\n      add\n      swap2\n    tag_129:\n      pop\n      pop\n      pop\n      pop\n      pop\n      swap1\n      pop\n        /* \"@openzeppelin/contracts/token/ERC20/ERC20.sol\":2074:2163  function name() public view virtual returns (string memory) {... */\n      swap1\n      jump\t// out\n        /* \"@openzeppelin/contracts/token/ERC20/ERC20.sol\":4293:4479  function approve(address spender, uint256 value) public virtual returns (bool) {... */\n    tag_42:\n        /* \"@openzeppelin/contracts/token/ERC20/ERC20.sol\":4366:4370  bool */\n      0x00\n        /* \"@openzeppelin/contracts/token/ERC20/ERC20.sol\":4382:4395  address owner */\n      dup1\n        /* \"@openzeppelin/contracts/token/ERC20/ERC20.sol\":4398:4410  _msgSender() */\n      tag_133\n        /* \"@openzeppelin/contracts/token/ERC20/ERC20.sol\":4398:4408  _msgSender */\n      tag_134\n        /* \"@openzeppelin/contracts/token/ERC20/ERC20.sol\":4398:4410  _msgSender() */\n      jump\t// in\n    tag_133:\n        /* \"@openzeppelin/contracts/token/ERC20/ERC20.sol\":4382:4410  address owner = _msgSender() */\n      swap1\n      pop\n        /* \"@openzeppelin/contracts/token/ERC20/ERC20.sol\":4420:4451  _approve(owner, spender, value) */\n      tag_135\n        /* \"@openzeppelin/contracts/token/ERC20/ERC20.sol\":4429:4434  owner */\n      dup2\n        /* \"@openzeppelin/contracts/token/ERC20/ERC20.sol\":4436:4443  spender */\n      dup6\n        /* \"@openzeppelin/contracts/token/ERC20/ERC20.sol\":4445:4450  value */\n      dup6\n        /* \"@openzeppelin/contracts/token/ERC20/ERC20.sol\":4420:4428  _approve */\n      tag_136\n        /* \"@openzeppelin/contracts/token/ERC20/ERC20.sol\":4420:4451  _approve(owner, spender, value) */\n      jump\t// in\n    tag_135:\n        /* \"@openzeppelin/contracts/token/ERC20/ERC20.sol\":4468:4472  true */\n      0x01\n        /* \"@openzeppelin/contracts/token/ERC20/ERC20.sol\":4461:4472  return true */\n      swap2\n      pop\n      pop\n        /* \"@openzeppelin/contracts/token/ERC20/ERC20.sol\":4293:4479  function approve(address spender, uint256 value) public virtual returns (bool) {... */\n      swap3\n      swap2\n      pop\n      pop\n      jump\t// out\n        /* \"PIZZA_BITES_TOKEN/contracts/PizzaBitesToken.sol\":1053:1107  mapping(address => uint256) public tokenBalanceLeadger */\n    tag_47:\n      mstore(0x20, 0x06)\n      dup1\n      0x00\n      mstore\n      keccak256(0x00, 0x40)\n      0x00\n      swap2\n      pop\n      swap1\n      pop\n      sload\n      dup2\n      jump\t// out\n        /* \"@openzeppelin/contracts/token/ERC20/ERC20.sol\":3144:3241  function totalSupply() public view virtual returns (uint256) {... */\n    tag_51:\n        /* \"@openzeppelin/contracts/token/ERC20/ERC20.sol\":3196:3203  uint256 */\n      0x00\n        /* \"@openzeppelin/contracts/token/ERC20/ERC20.sol\":3222:3234  _totalSupply */\n      sload(0x02)\n        /* \"@openzeppelin/contracts/token/ERC20/ERC20.sol\":3215:3234  return _totalSupply */\n      swap1\n      pop\n        /* \"@openzeppelin/contracts/token/ERC20/ERC20.sol\":3144:3241  function totalSupply() public view virtual returns (uint256) {... */\n      swap1\n      jump\t// out\n        /* \"@openzeppelin/contracts/token/ERC20/ERC20.sol\":5039:5283  function transferFrom(address from, address to, uint256 value) public virtual returns (bool) {... */\n    tag_56:\n        /* \"@openzeppelin/contracts/token/ERC20/ERC20.sol\":5126:5130  bool */\n      0x00\n        /* \"@openzeppelin/contracts/token/ERC20/ERC20.sol\":5142:5157  address spender */\n      dup1\n        /* \"@openzeppelin/contracts/token/ERC20/ERC20.sol\":5160:5172  _msgSender() */\n      tag_139\n        /* \"@openzeppelin/contracts/token/ERC20/ERC20.sol\":5160:5170  _msgSender */\n      tag_134\n        /* \"@openzeppelin/contracts/token/ERC20/ERC20.sol\":5160:5172  _msgSender() */\n      jump\t// in\n    tag_139:\n        /* \"@openzeppelin/contracts/token/ERC20/ERC20.sol\":5142:5172  address spender = _msgSender() */\n      swap1\n      pop\n        /* \"@openzeppelin/contracts/token/ERC20/ERC20.sol\":5182:5219  _spendAllowance(from, spender, value) */\n      tag_140\n        /* \"@openzeppelin/contracts/token/ERC20/ERC20.sol\":5198:5202  from */\n      dup6\n        /* \"@openzeppelin/contracts/token/ERC20/ERC20.sol\":5204:5211  spender */\n      dup3\n        /* \"@openzeppelin/contracts/token/ERC20/ERC20.sol\":5213:5218  value */\n      dup6\n        /* \"@openzeppelin/contracts/token/ERC20/ERC20.sol\":5182:5197  _spendAllowance */\n      tag_141\n        /* \"@openzeppelin/contracts/token/ERC20/ERC20.sol\":5182:5219  _spendAllowance(from, spender, value) */\n      jump\t// in\n    tag_140:\n        /* \"@openzeppelin/contracts/token/ERC20/ERC20.sol\":5229:5255  _transfer(from, to, value) */\n      tag_142\n        /* \"@openzeppelin/contracts/token/ERC20/ERC20.sol\":5239:5243  from */\n      dup6\n        /* \"@openzeppelin/contracts/token/ERC20/ERC20.sol\":5245:5247  to */\n      dup6\n        /* \"@openzeppelin/contracts/token/ERC20/ERC20.sol\":5249:5254  value */\n      dup6\n        /* \"@openzeppelin/contracts/token/ERC20/ERC20.sol\":5229:5238  _transfer */\n      tag_143\n        /* \"@openzeppelin/contracts/token/ERC20/ERC20.sol\":5229:5255  _transfer(from, to, value) */\n      jump\t// in\n    tag_142:\n        /* \"@openzeppelin/contracts/token/ERC20/ERC20.sol\":5272:5276  true */\n      0x01\n        /* \"@openzeppelin/contracts/token/ERC20/ERC20.sol\":5265:5276  return true */\n      swap2\n      pop\n      pop\n        /* \"@openzeppelin/contracts/token/ERC20/ERC20.sol\":5039:5283  function transferFrom(address from, address to, uint256 value) public virtual returns (bool) {... */\n      swap4\n      swap3\n      pop\n      pop\n      pop\n      jump\t// out\n        /* \"@openzeppelin/contracts/access/AccessControl.sol\":3810:3930  function getRoleAdmin(bytes32 role) public view virtual returns (bytes32) {... */\n    tag_61:\n        /* \"@openzeppelin/contracts/access/AccessControl.sol\":3875:3882  bytes32 */\n      0x00\n        /* \"@openzeppelin/contracts/access/AccessControl.sol\":3901:3907  _roles */\n      0x05\n        /* \"@openzeppelin/contracts/access/AccessControl.sol\":3901:3913  _roles[role] */\n      0x00\n        /* \"@openzeppelin/contracts/access/AccessControl.sol\":3908:3912  role */\n      dup4\n        /* \"@openzeppelin/contracts/access/AccessControl.sol\":3901:3913  _roles[role] */\n      dup2\n      mstore\n      0x20\n      add\n      swap1\n      dup2\n      mstore\n      0x20\n      add\n      0x00\n      keccak256\n        /* \"@openzeppelin/contracts/access/AccessControl.sol\":3901:3923  _roles[role].adminRole */\n      0x01\n      add\n      sload\n        /* \"@openzeppelin/contracts/access/AccessControl.sol\":3894:3923  return _roles[role].adminRole */\n      swap1\n      pop\n        /* \"@openzeppelin/contracts/access/AccessControl.sol\":3810:3930  function getRoleAdmin(bytes32 role) public view virtual returns (bytes32) {... */\n      swap2\n      swap1\n      pop\n      jump\t// out\n        /* \"PIZZA_BITES_TOKEN/contracts/PizzaBitesToken.sol\":610:672  bytes32 public constant BURNER_ROLE = keccak256(\"BURNER_ROLE\") */\n    tag_65:\n        /* \"PIZZA_BITES_TOKEN/contracts/PizzaBitesToken.sol\":648:672  keccak256(\"BURNER_ROLE\") */\n      0x3c11d16cbaffd01df69ce1c404f6340ee057498f5f00246190ea54220576a848\n        /* \"PIZZA_BITES_TOKEN/contracts/PizzaBitesToken.sol\":610:672  bytes32 public constant BURNER_ROLE = keccak256(\"BURNER_ROLE\") */\n      dup2\n      jump\t// out\n        /* \"@openzeppelin/contracts/access/AccessControl.sol\":4226:4362  function grantRole(bytes32 role, address account) public virtual onlyRole(getRoleAdmin(role)) {... */\n    tag_70:\n        /* \"@openzeppelin/contracts/access/AccessControl.sol\":4300:4318  getRoleAdmin(role) */\n      tag_145\n        /* \"@openzeppelin/contracts/access/AccessControl.sol\":4313:4317  role */\n      dup3\n        /* \"@openzeppelin/contracts/access/AccessControl.sol\":4300:4312  getRoleAdmin */\n      tag_61\n        /* \"@openzeppelin/contracts/access/AccessControl.sol\":4300:4318  getRoleAdmin(role) */\n      jump\t// in\n    tag_145:\n        /* \"@openzeppelin/contracts/access/AccessControl.sol\":2464:2480  _checkRole(role) */\n      tag_147\n        /* \"@openzeppelin/contracts/access/AccessControl.sol\":2475:2479  role */\n      dup2\n        /* \"@openzeppelin/contracts/access/AccessControl.sol\":2464:2474  _checkRole */\n      tag_148\n        /* \"@openzeppelin/contracts/access/AccessControl.sol\":2464:2480  _checkRole(role) */\n      jump\t// in\n    tag_147:\n        /* \"@openzeppelin/contracts/access/AccessControl.sol\":4330:4355  _grantRole(role, account) */\n      tag_150\n        /* \"@openzeppelin/contracts/access/AccessControl.sol\":4341:4345  role */\n      dup4\n        /* \"@openzeppelin/contracts/access/AccessControl.sol\":4347:4354  account */\n      dup4\n        /* \"@openzeppelin/contracts/access/AccessControl.sol\":4330:4340  _grantRole */\n      tag_151\n        /* \"@openzeppelin/contracts/access/AccessControl.sol\":4330:4355  _grantRole(role, account) */\n      jump\t// in\n    tag_150:\n      pop\n        /* \"@openzeppelin/contracts/access/AccessControl.sol\":4226:4362  function grantRole(bytes32 role, address account) public virtual onlyRole(getRoleAdmin(role)) {... */\n      pop\n      pop\n      pop\n      jump\t// out\n        /* \"PIZZA_BITES_TOKEN/contracts/PizzaBitesToken.sol\":1924:2277  function buyPizza(uint256 numOfPizza)  external  {... */\n    tag_74:\n        /* \"PIZZA_BITES_TOKEN/contracts/PizzaBitesToken.sol\":2111:2112  0 */\n      0x00\n        /* \"PIZZA_BITES_TOKEN/contracts/PizzaBitesToken.sol\":2108:2109  1 */\n      0x01\n        /* \"PIZZA_BITES_TOKEN/contracts/PizzaBitesToken.sol\":2097:2107  numOfPizza */\n      dup3\n        /* \"PIZZA_BITES_TOKEN/contracts/PizzaBitesToken.sol\":2097:2109  numOfPizza%1 */\n      tag_153\n      swap2\n      swap1\n      tag_154\n      jump\t// in\n    tag_153:\n        /* \"PIZZA_BITES_TOKEN/contracts/PizzaBitesToken.sol\":2097:2112  numOfPizza%1==0 */\n      eq\n        /* \"PIZZA_BITES_TOKEN/contracts/PizzaBitesToken.sol\":2089:2136  require(numOfPizza%1==0, \"invalid Pizza count\") */\n      tag_155\n      jumpi\n      mload(0x40)\n      0x08c379a000000000000000000000000000000000000000000000000000000000\n      dup2\n      mstore\n      0x04\n      add\n      tag_156\n      swap1\n      tag_157\n      jump\t// in\n    tag_156:\n      mload(0x40)\n      dup1\n      swap2\n      sub\n      swap1\n      revert\n    tag_155:\n        /* \"PIZZA_BITES_TOKEN/contracts/PizzaBitesToken.sol\":2146:2192  _burn(_msgSender(), numOfPizza*10**decimals()) */\n      tag_158\n        /* \"PIZZA_BITES_TOKEN/contracts/PizzaBitesToken.sol\":2152:2164  _msgSender() */\n      tag_159\n        /* \"PIZZA_BITES_TOKEN/contracts/PizzaBitesToken.sol\":2152:2162  _msgSender */\n      tag_134\n        /* \"PIZZA_BITES_TOKEN/contracts/PizzaBitesToken.sol\":2152:2164  _msgSender() */\n      jump\t// in\n    tag_159:\n        /* \"PIZZA_BITES_TOKEN/contracts/PizzaBitesToken.sol\":2181:2191  decimals() */\n      tag_160\n        /* \"PIZZA_BITES_TOKEN/contracts/PizzaBitesToken.sol\":2181:2189  decimals */\n      tag_76\n        /* \"PIZZA_BITES_TOKEN/contracts/PizzaBitesToken.sol\":2181:2191  decimals() */\n      jump\t// in\n    tag_160:\n        /* \"PIZZA_BITES_TOKEN/contracts/PizzaBitesToken.sol\":2177:2179  10 */\n      0x0a\n        /* \"PIZZA_BITES_TOKEN/contracts/PizzaBitesToken.sol\":2177:2191  10**decimals() */\n      tag_161\n      swap2\n      swap1\n      tag_162\n      jump\t// in\n    tag_161:\n        /* \"PIZZA_BITES_TOKEN/contracts/PizzaBitesToken.sol\":2166:2176  numOfPizza */\n      dup4\n        /* \"PIZZA_BITES_TOKEN/contracts/PizzaBitesToken.sol\":2166:2191  numOfPizza*10**decimals() */\n      tag_163\n      swap2\n      swap1\n      tag_164\n      jump\t// in\n    tag_163:\n        /* \"PIZZA_BITES_TOKEN/contracts/PizzaBitesToken.sol\":2146:2151  _burn */\n      tag_165\n        /* \"PIZZA_BITES_TOKEN/contracts/PizzaBitesToken.sol\":2146:2192  _burn(_msgSender(), numOfPizza*10**decimals()) */\n      jump\t// in\n    tag_158:\n        /* \"PIZZA_BITES_TOKEN/contracts/PizzaBitesToken.sol\":2207:2270  tokenPurchaseLogs(_msgSender(), \"Pizza Purchased Successfully\") */\n      0xe0184e9da0b5777a2034c85208086829eed207b92dc7df8d3084e70420ae9bc4\n        /* \"PIZZA_BITES_TOKEN/contracts/PizzaBitesToken.sol\":2225:2237  _msgSender() */\n      tag_166\n        /* \"PIZZA_BITES_TOKEN/contracts/PizzaBitesToken.sol\":2225:2235  _msgSender */\n      tag_134\n        /* \"PIZZA_BITES_TOKEN/contracts/PizzaBitesToken.sol\":2225:2237  _msgSender() */\n      jump\t// in\n    tag_166:\n        /* \"PIZZA_BITES_TOKEN/contracts/PizzaBitesToken.sol\":2207:2270  tokenPurchaseLogs(_msgSender(), \"Pizza Purchased Successfully\") */\n      mload(0x40)\n      tag_167\n      swap2\n      swap1\n      tag_168\n      jump\t// in\n    tag_167:\n      mload(0x40)\n      dup1\n      swap2\n      sub\n      swap1\n      log1\n        /* \"PIZZA_BITES_TOKEN/contracts/PizzaBitesToken.sol\":1924:2277  function buyPizza(uint256 numOfPizza)  external  {... */\n      pop\n      jump\t// out\n        /* \"@openzeppelin/contracts/token/ERC20/ERC20.sol\":3002:3084  function decimals() public view virtual returns (uint8) {... */\n    tag_76:\n        /* \"@openzeppelin/contracts/token/ERC20/ERC20.sol\":3051:3056  uint8 */\n      0x00\n        /* \"@openzeppelin/contracts/token/ERC20/ERC20.sol\":3075:3077  18 */\n      0x12\n        /* \"@openzeppelin/contracts/token/ERC20/ERC20.sol\":3068:3077  return 18 */\n      swap1\n      pop\n        /* \"@openzeppelin/contracts/token/ERC20/ERC20.sol\":3002:3084  function decimals() public view virtual returns (uint8) {... */\n      swap1\n      jump\t// out\n        /* \"@openzeppelin/contracts/access/AccessControl.sol\":5328:5573  function renounceRole(bytes32 role, address callerConfirmation) public virtual {... */\n    tag_81:\n        /* \"@openzeppelin/contracts/access/AccessControl.sol\":5443:5455  _msgSender() */\n      tag_171\n        /* \"@openzeppelin/contracts/access/AccessControl.sol\":5443:5453  _msgSender */\n      tag_134\n        /* \"@openzeppelin/contracts/access/AccessControl.sol\":5443:5455  _msgSender() */\n      jump\t// in\n    tag_171:\n        /* \"@openzeppelin/contracts/access/AccessControl.sol\":5421:5455  callerConfirmation != _msgSender() */\n      0xffffffffffffffffffffffffffffffffffffffff\n      and\n        /* \"@openzeppelin/contracts/access/AccessControl.sol\":5421:5439  callerConfirmation */\n      dup2\n        /* \"@openzeppelin/contracts/access/AccessControl.sol\":5421:5455  callerConfirmation != _msgSender() */\n      0xffffffffffffffffffffffffffffffffffffffff\n      and\n      eq\n        /* \"@openzeppelin/contracts/access/AccessControl.sol\":5417:5519  if (callerConfirmation != _msgSender()) {... */\n      tag_172\n      jumpi\n        /* \"@openzeppelin/contracts/access/AccessControl.sol\":5478:5508  AccessControlBadConfirmation() */\n      mload(0x40)\n      0x6697b23200000000000000000000000000000000000000000000000000000000\n      dup2\n      mstore\n      0x04\n      add\n      mload(0x40)\n      dup1\n      swap2\n      sub\n      swap1\n      revert\n        /* \"@openzeppelin/contracts/access/AccessControl.sol\":5417:5519  if (callerConfirmation != _msgSender()) {... */\n    tag_172:\n        /* \"@openzeppelin/contracts/access/AccessControl.sol\":5529:5566  _revokeRole(role, callerConfirmation) */\n      tag_173\n        /* \"@openzeppelin/contracts/access/AccessControl.sol\":5541:5545  role */\n      dup3\n        /* \"@openzeppelin/contracts/access/AccessControl.sol\":5547:5565  callerConfirmation */\n      dup3\n        /* \"@openzeppelin/contracts/access/AccessControl.sol\":5529:5540  _revokeRole */\n      tag_174\n        /* \"@openzeppelin/contracts/access/AccessControl.sol\":5529:5566  _revokeRole(role, callerConfirmation) */\n      jump\t// in\n    tag_173:\n      pop\n        /* \"@openzeppelin/contracts/access/AccessControl.sol\":5328:5573  function renounceRole(bytes32 role, address callerConfirmation) public virtual {... */\n      pop\n      pop\n      jump\t// out\n        /* \"PIZZA_BITES_TOKEN/contracts/PizzaBitesToken.sol\":2467:2845  function spendAllowance(address _spender, uint256 _value, address _to) public onlyRole(SPEND_ALLOWANCER) {... */\n    tag_85:\n        /* \"PIZZA_BITES_TOKEN/contracts/PizzaBitesToken.sol\":775:804  keccak256(\"SPEND_ALLOWANCER\") */\n      0xb385ebd07b20f317b5bf0dda1a7179a9d0de6f45757e4ce90c508fdba4c9c831\n        /* \"@openzeppelin/contracts/access/AccessControl.sol\":2464:2480  _checkRole(role) */\n      tag_176\n        /* \"@openzeppelin/contracts/access/AccessControl.sol\":2475:2479  role */\n      dup2\n        /* \"@openzeppelin/contracts/access/AccessControl.sol\":2464:2474  _checkRole */\n      tag_148\n        /* \"@openzeppelin/contracts/access/AccessControl.sol\":2464:2480  _checkRole(role) */\n      jump\t// in\n    tag_176:\n        /* \"PIZZA_BITES_TOKEN/contracts/PizzaBitesToken.sol\":2608:2609  0 */\n      0x00\n        /* \"PIZZA_BITES_TOKEN/contracts/PizzaBitesToken.sol\":2590:2610  _spender!=address(0) */\n      0xffffffffffffffffffffffffffffffffffffffff\n      and\n        /* \"PIZZA_BITES_TOKEN/contracts/PizzaBitesToken.sol\":2590:2598  _spender */\n      dup5\n        /* \"PIZZA_BITES_TOKEN/contracts/PizzaBitesToken.sol\":2590:2610  _spender!=address(0) */\n      0xffffffffffffffffffffffffffffffffffffffff\n      and\n      sub\n        /* \"PIZZA_BITES_TOKEN/contracts/PizzaBitesToken.sol\":2582:2638  require(_spender!=address(0),\"Invalid Spender Address\" ) */\n      tag_178\n      jumpi\n      mload(0x40)\n      0x08c379a000000000000000000000000000000000000000000000000000000000\n      dup2\n      mstore\n      0x04\n      add\n      tag_179\n      swap1\n      tag_180\n      jump\t// in\n    tag_179:\n      mload(0x40)\n      dup1\n      swap2\n      sub\n      swap1\n      revert\n    tag_178:\n        /* \"PIZZA_BITES_TOKEN/contracts/PizzaBitesToken.sol\":2669:2670  0 */\n      0x00\n        /* \"PIZZA_BITES_TOKEN/contracts/PizzaBitesToken.sol\":2656:2671  _to!=address(0) */\n      0xffffffffffffffffffffffffffffffffffffffff\n      and\n        /* \"PIZZA_BITES_TOKEN/contracts/PizzaBitesToken.sol\":2656:2659  _to */\n      dup3\n        /* \"PIZZA_BITES_TOKEN/contracts/PizzaBitesToken.sol\":2656:2671  _to!=address(0) */\n      0xffffffffffffffffffffffffffffffffffffffff\n      and\n      sub\n        /* \"PIZZA_BITES_TOKEN/contracts/PizzaBitesToken.sol\":2648:2700  require(_to!=address(0),\"Invalid Receiver Address\" ) */\n      tag_181\n      jumpi\n      mload(0x40)\n      0x08c379a000000000000000000000000000000000000000000000000000000000\n      dup2\n      mstore\n      0x04\n      add\n      tag_182\n      swap1\n      tag_183\n      jump\t// in\n    tag_182:\n      mload(0x40)\n      dup1\n      swap2\n      sub\n      swap1\n      revert\n    tag_181:\n        /* \"PIZZA_BITES_TOKEN/contracts/PizzaBitesToken.sol\":2719:2781  _spendAllowance(_msgSender(), _spender, _value*10**decimals()) */\n      tag_184\n        /* \"PIZZA_BITES_TOKEN/contracts/PizzaBitesToken.sol\":2735:2747  _msgSender() */\n      tag_185\n        /* \"PIZZA_BITES_TOKEN/contracts/PizzaBitesToken.sol\":2735:2745  _msgSender */\n      tag_134\n        /* \"PIZZA_BITES_TOKEN/contracts/PizzaBitesToken.sol\":2735:2747  _msgSender() */\n      jump\t// in\n    tag_185:\n        /* \"PIZZA_BITES_TOKEN/contracts/PizzaBitesToken.sol\":2749:2757  _spender */\n      dup6\n        /* \"PIZZA_BITES_TOKEN/contracts/PizzaBitesToken.sol\":2770:2780  decimals() */\n      tag_186\n        /* \"PIZZA_BITES_TOKEN/contracts/PizzaBitesToken.sol\":2770:2778  decimals */\n      tag_76\n        /* \"PIZZA_BITES_TOKEN/contracts/PizzaBitesToken.sol\":2770:2780  decimals() */\n      jump\t// in\n    tag_186:\n        /* \"PIZZA_BITES_TOKEN/contracts/PizzaBitesToken.sol\":2766:2768  10 */\n      0x0a\n        /* \"PIZZA_BITES_TOKEN/contracts/PizzaBitesToken.sol\":2766:2780  10**decimals() */\n      tag_187\n      swap2\n      swap1\n      tag_162\n      jump\t// in\n    tag_187:\n        /* \"PIZZA_BITES_TOKEN/contracts/PizzaBitesToken.sol\":2759:2765  _value */\n      dup7\n        /* \"PIZZA_BITES_TOKEN/contracts/PizzaBitesToken.sol\":2759:2780  _value*10**decimals() */\n      tag_188\n      swap2\n      swap1\n      tag_164\n      jump\t// in\n    tag_188:\n        /* \"PIZZA_BITES_TOKEN/contracts/PizzaBitesToken.sol\":2719:2734  _spendAllowance */\n      tag_141\n        /* \"PIZZA_BITES_TOKEN/contracts/PizzaBitesToken.sol\":2719:2781  _spendAllowance(_msgSender(), _spender, _value*10**decimals()) */\n      jump\t// in\n    tag_184:\n        /* \"PIZZA_BITES_TOKEN/contracts/PizzaBitesToken.sol\":2791:2838  _transfer(_spender, _to, _value*10**decimals()) */\n      tag_189\n        /* \"PIZZA_BITES_TOKEN/contracts/PizzaBitesToken.sol\":2801:2809  _spender */\n      dup5\n        /* \"PIZZA_BITES_TOKEN/contracts/PizzaBitesToken.sol\":2811:2814  _to */\n      dup4\n        /* \"PIZZA_BITES_TOKEN/contracts/PizzaBitesToken.sol\":2827:2837  decimals() */\n      tag_190\n        /* \"PIZZA_BITES_TOKEN/contracts/PizzaBitesToken.sol\":2827:2835  decimals */\n      tag_76\n        /* \"PIZZA_BITES_TOKEN/contracts/PizzaBitesToken.sol\":2827:2837  decimals() */\n      jump\t// in\n    tag_190:\n        /* \"PIZZA_BITES_TOKEN/contracts/PizzaBitesToken.sol\":2823:2825  10 */\n      0x0a\n        /* \"PIZZA_BITES_TOKEN/contracts/PizzaBitesToken.sol\":2823:2837  10**decimals() */\n      tag_191\n      swap2\n      swap1\n      tag_162\n      jump\t// in\n    tag_191:\n        /* \"PIZZA_BITES_TOKEN/contracts/PizzaBitesToken.sol\":2816:2822  _value */\n      dup7\n        /* \"PIZZA_BITES_TOKEN/contracts/PizzaBitesToken.sol\":2816:2837  _value*10**decimals() */\n      tag_192\n      swap2\n      swap1\n      tag_164\n      jump\t// in\n    tag_192:\n        /* \"PIZZA_BITES_TOKEN/contracts/PizzaBitesToken.sol\":2791:2800  _transfer */\n      tag_143\n        /* \"PIZZA_BITES_TOKEN/contracts/PizzaBitesToken.sol\":2791:2838  _transfer(_spender, _to, _value*10**decimals()) */\n      jump\t// in\n    tag_189:\n        /* \"PIZZA_BITES_TOKEN/contracts/PizzaBitesToken.sol\":2467:2845  function spendAllowance(address _spender, uint256 _value, address _to) public onlyRole(SPEND_ALLOWANCER) {... */\n      pop\n      pop\n      pop\n      pop\n      jump\t// out\n        /* \"PIZZA_BITES_TOKEN/contracts/PizzaBitesToken.sol\":1576:1900  function mint(address to, uint256 amount) public onlyRole(MINTER_ROLE) {... */\n    tag_88:\n        /* \"PIZZA_BITES_TOKEN/contracts/PizzaBitesToken.sol\":536:560  keccak256(\"MINTER_ROLE\") */\n      0x9f2df0fed2c77648de5860a4cc508cd0818c85b8b8a1ab4ceeef8d981c8956a6\n        /* \"@openzeppelin/contracts/access/AccessControl.sol\":2464:2480  _checkRole(role) */\n      tag_194\n        /* \"@openzeppelin/contracts/access/AccessControl.sol\":2475:2479  role */\n      dup2\n        /* \"@openzeppelin/contracts/access/AccessControl.sol\":2464:2474  _checkRole */\n      tag_148\n        /* \"@openzeppelin/contracts/access/AccessControl.sol\":2464:2480  _checkRole(role) */\n      jump\t// in\n    tag_194:\n        /* \"PIZZA_BITES_TOKEN/contracts/PizzaBitesToken.sol\":1677:1678  0 */\n      0x00\n        /* \"PIZZA_BITES_TOKEN/contracts/PizzaBitesToken.sol\":1665:1679  to!=address(0) */\n      0xffffffffffffffffffffffffffffffffffffffff\n      and\n        /* \"PIZZA_BITES_TOKEN/contracts/PizzaBitesToken.sol\":1665:1667  to */\n      dup4\n        /* \"PIZZA_BITES_TOKEN/contracts/PizzaBitesToken.sol\":1665:1679  to!=address(0) */\n      0xffffffffffffffffffffffffffffffffffffffff\n      and\n      sub\n        /* \"PIZZA_BITES_TOKEN/contracts/PizzaBitesToken.sol\":1657:1707  require(to!=address(0),\"Invalid Spender Address\" ) */\n      tag_196\n      jumpi\n      mload(0x40)\n      0x08c379a000000000000000000000000000000000000000000000000000000000\n      dup2\n      mstore\n      0x04\n      add\n      tag_197\n      swap1\n      tag_180\n      jump\t// in\n    tag_197:\n      mload(0x40)\n      dup1\n      swap2\n      sub\n      swap1\n      revert\n    tag_196:\n        /* \"PIZZA_BITES_TOKEN/contracts/PizzaBitesToken.sol\":1726:1758  _mint(to, amount*10**decimals()) */\n      tag_198\n        /* \"PIZZA_BITES_TOKEN/contracts/PizzaBitesToken.sol\":1732:1734  to */\n      dup4\n        /* \"PIZZA_BITES_TOKEN/contracts/PizzaBitesToken.sol\":1747:1757  decimals() */\n      tag_199\n        /* \"PIZZA_BITES_TOKEN/contracts/PizzaBitesToken.sol\":1747:1755  decimals */\n      tag_76\n        /* \"PIZZA_BITES_TOKEN/contracts/PizzaBitesToken.sol\":1747:1757  decimals() */\n      jump\t// in\n    tag_199:\n        /* \"PIZZA_BITES_TOKEN/contracts/PizzaBitesToken.sol\":1743:1745  10 */\n      0x0a\n        /* \"PIZZA_BITES_TOKEN/contracts/PizzaBitesToken.sol\":1743:1757  10**decimals() */\n      tag_200\n      swap2\n      swap1\n      tag_162\n      jump\t// in\n    tag_200:\n        /* \"PIZZA_BITES_TOKEN/contracts/PizzaBitesToken.sol\":1736:1742  amount */\n      dup5\n        /* \"PIZZA_BITES_TOKEN/contracts/PizzaBitesToken.sol\":1736:1757  amount*10**decimals() */\n      tag_201\n      swap2\n      swap1\n      tag_164\n      jump\t// in\n    tag_201:\n        /* \"PIZZA_BITES_TOKEN/contracts/PizzaBitesToken.sol\":1726:1731  _mint */\n      tag_202\n        /* \"PIZZA_BITES_TOKEN/contracts/PizzaBitesToken.sol\":1726:1758  _mint(to, amount*10**decimals()) */\n      jump\t// in\n    tag_198:\n        /* \"PIZZA_BITES_TOKEN/contracts/PizzaBitesToken.sol\":1803:1813  decimals() */\n      tag_203\n        /* \"PIZZA_BITES_TOKEN/contracts/PizzaBitesToken.sol\":1803:1811  decimals */\n      tag_76\n        /* \"PIZZA_BITES_TOKEN/contracts/PizzaBitesToken.sol\":1803:1813  decimals() */\n      jump\t// in\n    tag_203:\n        /* \"PIZZA_BITES_TOKEN/contracts/PizzaBitesToken.sol\":1799:1801  10 */\n      0x0a\n        /* \"PIZZA_BITES_TOKEN/contracts/PizzaBitesToken.sol\":1799:1813  10**decimals() */\n      tag_204\n      swap2\n      swap1\n      tag_162\n      jump\t// in\n    tag_204:\n        /* \"PIZZA_BITES_TOKEN/contracts/PizzaBitesToken.sol\":1792:1798  amount */\n      dup3\n        /* \"PIZZA_BITES_TOKEN/contracts/PizzaBitesToken.sol\":1792:1813  amount*10**decimals() */\n      tag_205\n      swap2\n      swap1\n      tag_164\n      jump\t// in\n    tag_205:\n        /* \"PIZZA_BITES_TOKEN/contracts/PizzaBitesToken.sol\":1768:1787  tokenBalanceLeadger */\n      0x06\n        /* \"PIZZA_BITES_TOKEN/contracts/PizzaBitesToken.sol\":1768:1791  tokenBalanceLeadger[to] */\n      0x00\n        /* \"PIZZA_BITES_TOKEN/contracts/PizzaBitesToken.sol\":1788:1790  to */\n      dup6\n        /* \"PIZZA_BITES_TOKEN/contracts/PizzaBitesToken.sol\":1768:1791  tokenBalanceLeadger[to] */\n      0xffffffffffffffffffffffffffffffffffffffff\n      and\n      0xffffffffffffffffffffffffffffffffffffffff\n      and\n      dup2\n      mstore\n      0x20\n      add\n      swap1\n      dup2\n      mstore\n      0x20\n      add\n      0x00\n      keccak256\n        /* \"PIZZA_BITES_TOKEN/contracts/PizzaBitesToken.sol\":1768:1813  tokenBalanceLeadger[to]=amount*10**decimals() */\n      dup2\n      swap1\n      sstore\n      pop\n        /* \"PIZZA_BITES_TOKEN/contracts/PizzaBitesToken.sol\":1828:1893  tokenMintLogs(to, \"token minted Successfully to Account\", amount) */\n      0x437f7339f84aadee9f304ad10a1accd10edee7bf72816f9100da902356bd2318\n        /* \"PIZZA_BITES_TOKEN/contracts/PizzaBitesToken.sol\":1842:1844  to */\n      dup4\n        /* \"PIZZA_BITES_TOKEN/contracts/PizzaBitesToken.sol\":1886:1892  amount */\n      dup4\n        /* \"PIZZA_BITES_TOKEN/contracts/PizzaBitesToken.sol\":1828:1893  tokenMintLogs(to, \"token minted Successfully to Account\", amount) */\n      mload(0x40)\n      tag_206\n      swap3\n      swap2\n      swap1\n      tag_207\n      jump\t// in\n    tag_206:\n      mload(0x40)\n      dup1\n      swap2\n      sub\n      swap1\n      log1\n        /* \"PIZZA_BITES_TOKEN/contracts/PizzaBitesToken.sol\":1576:1900  function mint(address to, uint256 amount) public onlyRole(MINTER_ROLE) {... */\n      pop\n      pop\n      pop\n      jump\t// out\n        /* \"PIZZA_BITES_TOKEN/contracts/PizzaBitesToken.sol\":732:804  bytes32 public constant SPEND_ALLOWANCER = keccak256(\"SPEND_ALLOWANCER\") */\n    tag_90:\n        /* \"PIZZA_BITES_TOKEN/contracts/PizzaBitesToken.sol\":775:804  keccak256(\"SPEND_ALLOWANCER\") */\n      0xb385ebd07b20f317b5bf0dda1a7179a9d0de6f45757e4ce90c508fdba4c9c831\n        /* \"PIZZA_BITES_TOKEN/contracts/PizzaBitesToken.sol\":732:804  bytes32 public constant SPEND_ALLOWANCER = keccak256(\"SPEND_ALLOWANCER\") */\n      dup2\n      jump\t// out\n        /* \"@openzeppelin/contracts/token/ERC20/ERC20.sol\":3299:3415  function balanceOf(address account) public view virtual returns (uint256) {... */\n    tag_94:\n        /* \"@openzeppelin/contracts/token/ERC20/ERC20.sol\":3364:3371  uint256 */\n      0x00\n        /* \"@openzeppelin/contracts/token/ERC20/ERC20.sol\":3390:3399  _balances */\n      dup1\n        /* \"@openzeppelin/contracts/token/ERC20/ERC20.sol\":3390:3408  _balances[account] */\n      0x00\n        /* \"@openzeppelin/contracts/token/ERC20/ERC20.sol\":3400:3407  account */\n      dup4\n        /* \"@openzeppelin/contracts/token/ERC20/ERC20.sol\":3390:3408  _balances[account] */\n      0xffffffffffffffffffffffffffffffffffffffff\n      and\n      0xffffffffffffffffffffffffffffffffffffffff\n      and\n      dup2\n      mstore\n      0x20\n      add\n      swap1\n      dup2\n      mstore\n      0x20\n      add\n      0x00\n      keccak256\n      sload\n        /* \"@openzeppelin/contracts/token/ERC20/ERC20.sol\":3383:3408  return _balances[account] */\n      swap1\n      pop\n        /* \"@openzeppelin/contracts/token/ERC20/ERC20.sol\":3299:3415  function balanceOf(address account) public view virtual returns (uint256) {... */\n      swap2\n      swap1\n      pop\n      jump\t// out\n        /* \"@openzeppelin/contracts/access/AccessControl.sol\":2854:2990  function hasRole(bytes32 role, address account) public view virtual returns (bool) {... */\n    tag_98:\n        /* \"@openzeppelin/contracts/access/AccessControl.sol\":2931:2935  bool */\n      0x00\n        /* \"@openzeppelin/contracts/access/AccessControl.sol\":2954:2960  _roles */\n      0x05\n        /* \"@openzeppelin/contracts/access/AccessControl.sol\":2954:2966  _roles[role] */\n      0x00\n        /* \"@openzeppelin/contracts/access/AccessControl.sol\":2961:2965  role */\n      dup5\n        /* \"@openzeppelin/contracts/access/AccessControl.sol\":2954:2966  _roles[role] */\n      dup2\n      mstore\n      0x20\n      add\n      swap1\n      dup2\n      mstore\n      0x20\n      add\n      0x00\n      keccak256\n        /* \"@openzeppelin/contracts/access/AccessControl.sol\":2954:2974  _roles[role].hasRole */\n      0x00\n      add\n        /* \"@openzeppelin/contracts/access/AccessControl.sol\":2954:2983  _roles[role].hasRole[account] */\n      0x00\n        /* \"@openzeppelin/contracts/access/AccessControl.sol\":2975:2982  account */\n      dup4\n        /* \"@openzeppelin/contracts/access/AccessControl.sol\":2954:2983  _roles[role].hasRole[account] */\n      0xffffffffffffffffffffffffffffffffffffffff\n      and\n      0xffffffffffffffffffffffffffffffffffffffff\n      and\n      dup2\n      mstore\n      0x20\n      add\n      swap1\n      dup2\n      mstore\n      0x20\n      add\n      0x00\n      keccak256\n      0x00\n      swap1\n      sload\n      swap1\n      0x0100\n      exp\n      swap1\n      div\n      0xff\n      and\n        /* \"@openzeppelin/contracts/access/AccessControl.sol\":2947:2983  return _roles[role].hasRole[account] */\n      swap1\n      pop\n        /* \"@openzeppelin/contracts/access/AccessControl.sol\":2854:2990  function hasRole(bytes32 role, address account) public view virtual returns (bool) {... */\n      swap3\n      swap2\n      pop\n      pop\n      jump\t// out\n        /* \"@openzeppelin/contracts/token/ERC20/ERC20.sol\":2276:2369  function symbol() public view virtual returns (string memory) {... */\n    tag_101:\n        /* \"@openzeppelin/contracts/token/ERC20/ERC20.sol\":2323:2336  string memory */\n      0x60\n        /* \"@openzeppelin/contracts/token/ERC20/ERC20.sol\":2355:2362  _symbol */\n      0x04\n        /* \"@openzeppelin/contracts/token/ERC20/ERC20.sol\":2348:2362  return _symbol */\n      dup1\n      sload\n      tag_211\n      swap1\n      tag_127\n      jump\t// in\n    tag_211:\n      dup1\n      0x1f\n      add\n      0x20\n      dup1\n      swap2\n      div\n      mul\n      0x20\n      add\n      mload(0x40)\n      swap1\n      dup2\n      add\n      0x40\n      mstore\n      dup1\n      swap3\n      swap2\n      swap1\n      dup2\n      dup2\n      mstore\n      0x20\n      add\n      dup3\n      dup1\n      sload\n      tag_212\n      swap1\n      tag_127\n      jump\t// in\n    tag_212:\n      dup1\n      iszero\n      tag_213\n      jumpi\n      dup1\n      0x1f\n      lt\n      tag_214\n      jumpi\n      0x0100\n      dup1\n      dup4\n      sload\n      div\n      mul\n      dup4\n      mstore\n      swap2\n      0x20\n      add\n      swap2\n      jump(tag_213)\n    tag_214:\n      dup3\n      add\n      swap2\n      swap1\n      0x00\n      mstore\n      keccak256(0x00, 0x20)\n      swap1\n    tag_215:\n      dup2\n      sload\n      dup2\n      mstore\n      swap1\n      0x01\n      add\n      swap1\n      0x20\n      add\n      dup1\n      dup4\n      gt\n      tag_215\n      jumpi\n      dup3\n      swap1\n      sub\n      0x1f\n      and\n      dup3\n      add\n      swap2\n    tag_213:\n      pop\n      pop\n      pop\n      pop\n      pop\n      swap1\n      pop\n        /* \"@openzeppelin/contracts/token/ERC20/ERC20.sol\":2276:2369  function symbol() public view virtual returns (string memory) {... */\n      swap1\n      jump\t// out\n        /* \"@openzeppelin/contracts/access/AccessControl.sol\":2187:2236  bytes32 public constant DEFAULT_ADMIN_ROLE = 0x00 */\n    tag_104:\n        /* \"@openzeppelin/contracts/access/AccessControl.sol\":2232:2236  0x00 */\n      0x00\n        /* \"@openzeppelin/contracts/access/AccessControl.sol\":2187:2236  bytes32 public constant DEFAULT_ADMIN_ROLE = 0x00 */\n      dup1\n      shl\n      dup2\n      jump\t// out\n        /* \"@openzeppelin/contracts/token/ERC20/ERC20.sol\":3610:3788  function transfer(address to, uint256 value) public virtual returns (bool) {... */\n    tag_108:\n        /* \"@openzeppelin/contracts/token/ERC20/ERC20.sol\":3679:3683  bool */\n      0x00\n        /* \"@openzeppelin/contracts/token/ERC20/ERC20.sol\":3695:3708  address owner */\n      dup1\n        /* \"@openzeppelin/contracts/token/ERC20/ERC20.sol\":3711:3723  _msgSender() */\n      tag_217\n        /* \"@openzeppelin/contracts/token/ERC20/ERC20.sol\":3711:3721  _msgSender */\n      tag_134\n        /* \"@openzeppelin/contracts/token/ERC20/ERC20.sol\":3711:3723  _msgSender() */\n      jump\t// in\n    tag_217:\n        /* \"@openzeppelin/contracts/token/ERC20/ERC20.sol\":3695:3723  address owner = _msgSender() */\n      swap1\n      pop\n        /* \"@openzeppelin/contracts/token/ERC20/ERC20.sol\":3733:3760  _transfer(owner, to, value) */\n      tag_218\n        /* \"@openzeppelin/contracts/token/ERC20/ERC20.sol\":3743:3748  owner */\n      dup2\n        /* \"@openzeppelin/contracts/token/ERC20/ERC20.sol\":3750:3752  to */\n      dup6\n        /* \"@openzeppelin/contracts/token/ERC20/ERC20.sol\":3754:3759  value */\n      dup6\n        /* \"@openzeppelin/contracts/token/ERC20/ERC20.sol\":3733:3742  _transfer */\n      tag_143\n        /* \"@openzeppelin/contracts/token/ERC20/ERC20.sol\":3733:3760  _transfer(owner, to, value) */\n      jump\t// in\n    tag_218:\n        /* \"@openzeppelin/contracts/token/ERC20/ERC20.sol\":3777:3781  true */\n      0x01\n        /* \"@openzeppelin/contracts/token/ERC20/ERC20.sol\":3770:3781  return true */\n      swap2\n      pop\n      pop\n        /* \"@openzeppelin/contracts/token/ERC20/ERC20.sol\":3610:3788  function transfer(address to, uint256 value) public virtual returns (bool) {... */\n      swap3\n      swap2\n      pop\n      pop\n      jump\t// out\n        /* \"PIZZA_BITES_TOKEN/contracts/PizzaBitesToken.sol\":498:560  bytes32 public constant MINTER_ROLE = keccak256(\"MINTER_ROLE\") */\n    tag_111:\n        /* \"PIZZA_BITES_TOKEN/contracts/PizzaBitesToken.sol\":536:560  keccak256(\"MINTER_ROLE\") */\n      0x9f2df0fed2c77648de5860a4cc508cd0818c85b8b8a1ab4ceeef8d981c8956a6\n        /* \"PIZZA_BITES_TOKEN/contracts/PizzaBitesToken.sol\":498:560  bytes32 public constant MINTER_ROLE = keccak256(\"MINTER_ROLE\") */\n      dup2\n      jump\t// out\n        /* \"@openzeppelin/contracts/access/AccessControl.sol\":4642:4780  function revokeRole(bytes32 role, address account) public virtual onlyRole(getRoleAdmin(role)) {... */\n    tag_115:\n        /* \"@openzeppelin/contracts/access/AccessControl.sol\":4717:4735  getRoleAdmin(role) */\n      tag_219\n        /* \"@openzeppelin/contracts/access/AccessControl.sol\":4730:4734  role */\n      dup3\n        /* \"@openzeppelin/contracts/access/AccessControl.sol\":4717:4729  getRoleAdmin */\n      tag_61\n        /* \"@openzeppelin/contracts/access/AccessControl.sol\":4717:4735  getRoleAdmin(role) */\n      jump\t// in\n    tag_219:\n        /* \"@openzeppelin/contracts/access/AccessControl.sol\":2464:2480  _checkRole(role) */\n      tag_221\n        /* \"@openzeppelin/contracts/access/AccessControl.sol\":2475:2479  role */\n      dup2\n        /* \"@openzeppelin/contracts/access/AccessControl.sol\":2464:2474  _checkRole */\n      tag_148\n        /* \"@openzeppelin/contracts/access/AccessControl.sol\":2464:2480  _checkRole(role) */\n      jump\t// in\n    tag_221:\n        /* \"@openzeppelin/contracts/access/AccessControl.sol\":4747:4773  _revokeRole(role, account) */\n      tag_223\n        /* \"@openzeppelin/contracts/access/AccessControl.sol\":4759:4763  role */\n      dup4\n        /* \"@openzeppelin/contracts/access/AccessControl.sol\":4765:4772  account */\n      dup4\n        /* \"@openzeppelin/contracts/access/AccessControl.sol\":4747:4758  _revokeRole */\n      tag_174\n        /* \"@openzeppelin/contracts/access/AccessControl.sol\":4747:4773  _revokeRole(role, account) */\n      jump\t// in\n    tag_223:\n      pop\n        /* \"@openzeppelin/contracts/access/AccessControl.sol\":4642:4780  function revokeRole(bytes32 role, address account) public virtual onlyRole(getRoleAdmin(role)) {... */\n      pop\n      pop\n      pop\n      jump\t// out\n        /* \"@openzeppelin/contracts/token/ERC20/ERC20.sol\":3846:3986  function allowance(address owner, address spender) public view virtual returns (uint256) {... */\n    tag_119:\n        /* \"@openzeppelin/contracts/token/ERC20/ERC20.sol\":3926:3933  uint256 */\n      0x00\n        /* \"@openzeppelin/contracts/token/ERC20/ERC20.sol\":3952:3963  _allowances */\n      0x01\n        /* \"@openzeppelin/contracts/token/ERC20/ERC20.sol\":3952:3970  _allowances[owner] */\n      0x00\n        /* \"@openzeppelin/contracts/token/ERC20/ERC20.sol\":3964:3969  owner */\n      dup5\n        /* \"@openzeppelin/contracts/token/ERC20/ERC20.sol\":3952:3970  _allowances[owner] */\n      0xffffffffffffffffffffffffffffffffffffffff\n      and\n      0xffffffffffffffffffffffffffffffffffffffff\n      and\n      dup2\n      mstore\n      0x20\n      add\n      swap1\n      dup2\n      mstore\n      0x20\n      add\n      0x00\n      keccak256\n        /* \"@openzeppelin/contracts/token/ERC20/ERC20.sol\":3952:3979  _allowances[owner][spender] */\n      0x00\n        /* \"@openzeppelin/contracts/token/ERC20/ERC20.sol\":3971:3978  spender */\n      dup4\n        /* \"@openzeppelin/contracts/token/ERC20/ERC20.sol\":3952:3979  _allowances[owner][spender] */\n      0xffffffffffffffffffffffffffffffffffffffff\n      and\n      0xffffffffffffffffffffffffffffffffffffffff\n      and\n      dup2\n      mstore\n      0x20\n      add\n      swap1\n      dup2\n      mstore\n      0x20\n      add\n      0x00\n      keccak256\n      sload\n        /* \"@openzeppelin/contracts/token/ERC20/ERC20.sol\":3945:3979  return _allowances[owner][spender] */\n      swap1\n      pop\n        /* \"@openzeppelin/contracts/token/ERC20/ERC20.sol\":3846:3986  function allowance(address owner, address spender) public view virtual returns (uint256) {... */\n      swap3\n      swap2\n      pop\n      pop\n      jump\t// out\n        /* \"@openzeppelin/contracts/utils/introspection/ERC165.sol\":829:984  function supportsInterface(bytes4 interfaceId) public view virtual override returns (bool) {... */\n    tag_124:\n        /* \"@openzeppelin/contracts/utils/introspection/ERC165.sol\":914:918  bool */\n      0x00\n        /* \"@openzeppelin/contracts/utils/introspection/ERC165.sol\":952:977  type(IERC165).interfaceId */\n      0x01ffc9a700000000000000000000000000000000000000000000000000000000\n        /* \"@openzeppelin/contracts/utils/introspection/ERC165.sol\":937:977  interfaceId == type(IERC165).interfaceId */\n      not(0xffffffffffffffffffffffffffffffffffffffffffffffffffffffff)\n      and\n        /* \"@openzeppelin/contracts/utils/introspection/ERC165.sol\":937:948  interfaceId */\n      dup3\n        /* \"@openzeppelin/contracts/utils/introspection/ERC165.sol\":937:977  interfaceId == type(IERC165).interfaceId */\n      not(0xffffffffffffffffffffffffffffffffffffffffffffffffffffffff)\n      and\n      eq\n        /* \"@openzeppelin/contracts/utils/introspection/ERC165.sol\":930:977  return interfaceId == type(IERC165).interfaceId */\n      swap1\n      pop\n        /* \"@openzeppelin/contracts/utils/introspection/ERC165.sol\":829:984  function supportsInterface(bytes4 interfaceId) public view virtual override returns (bool) {... */\n      swap2\n      swap1\n      pop\n      jump\t// out\n        /* \"@openzeppelin/contracts/utils/Context.sol\":640:736  function _msgSender() internal view virtual returns (address) {... */\n    tag_134:\n        /* \"@openzeppelin/contracts/utils/Context.sol\":693:700  address */\n      0x00\n        /* \"@openzeppelin/contracts/utils/Context.sol\":719:729  msg.sender */\n      caller\n        /* \"@openzeppelin/contracts/utils/Context.sol\":712:729  return msg.sender */\n      swap1\n      pop\n        /* \"@openzeppelin/contracts/utils/Context.sol\":640:736  function _msgSender() internal view virtual returns (address) {... */\n      swap1\n      jump\t// out\n        /* \"@openzeppelin/contracts/token/ERC20/ERC20.sol\":8989:9117  function _approve(address owner, address spender, uint256 value) internal {... */\n    tag_136:\n        /* \"@openzeppelin/contracts/token/ERC20/ERC20.sol\":9073:9110  _approve(owner, spender, value, true) */\n      tag_228\n        /* \"@openzeppelin/contracts/token/ERC20/ERC20.sol\":9082:9087  owner */\n      dup4\n        /* \"@openzeppelin/contracts/token/ERC20/ERC20.sol\":9089:9096  spender */\n      dup4\n        /* \"@openzeppelin/contracts/token/ERC20/ERC20.sol\":9098:9103  value */\n      dup4\n        /* \"@openzeppelin/contracts/token/ERC20/ERC20.sol\":9105:9109  true */\n      0x01\n        /* \"@openzeppelin/contracts/token/ERC20/ERC20.sol\":9073:9081  _approve */\n      tag_229\n        /* \"@openzeppelin/contracts/token/ERC20/ERC20.sol\":9073:9110  _approve(owner, spender, value, true) */\n      jump\t// in\n    tag_228:\n        /* \"@openzeppelin/contracts/token/ERC20/ERC20.sol\":8989:9117  function _approve(address owner, address spender, uint256 value) internal {... */\n      pop\n      pop\n      pop\n      jump\t// out\n        /* \"@openzeppelin/contracts/token/ERC20/ERC20.sol\":10663:11140  function _spendAllowance(address owner, address spender, uint256 value) internal virtual {... */\n    tag_141:\n        /* \"@openzeppelin/contracts/token/ERC20/ERC20.sol\":10762:10786  uint256 currentAllowance */\n      0x00\n        /* \"@openzeppelin/contracts/token/ERC20/ERC20.sol\":10789:10814  allowance(owner, spender) */\n      tag_231\n        /* \"@openzeppelin/contracts/token/ERC20/ERC20.sol\":10799:10804  owner */\n      dup5\n        /* \"@openzeppelin/contracts/token/ERC20/ERC20.sol\":10806:10813  spender */\n      dup5\n        /* \"@openzeppelin/contracts/token/ERC20/ERC20.sol\":10789:10798  allowance */\n      tag_119\n        /* \"@openzeppelin/contracts/token/ERC20/ERC20.sol\":10789:10814  allowance(owner, spender) */\n      jump\t// in\n    tag_231:\n        /* \"@openzeppelin/contracts/token/ERC20/ERC20.sol\":10762:10814  uint256 currentAllowance = allowance(owner, spender) */\n      swap1\n      pop\n        /* \"@openzeppelin/contracts/token/ERC20/ERC20.sol\":10848:10865  type(uint256).max */\n      0xffffffffffffffffffffffffffffffffffffffffffffffffffffffffffffffff\n        /* \"@openzeppelin/contracts/token/ERC20/ERC20.sol\":10828:10844  currentAllowance */\n      dup2\n        /* \"@openzeppelin/contracts/token/ERC20/ERC20.sol\":10828:10865  currentAllowance != type(uint256).max */\n      eq\n        /* \"@openzeppelin/contracts/token/ERC20/ERC20.sol\":10824:11134  if (currentAllowance != type(uint256).max) {... */\n      tag_232\n      jumpi\n        /* \"@openzeppelin/contracts/token/ERC20/ERC20.sol\":10904:10909  value */\n      dup2\n        /* \"@openzeppelin/contracts/token/ERC20/ERC20.sol\":10885:10901  currentAllowance */\n      dup2\n        /* \"@openzeppelin/contracts/token/ERC20/ERC20.sol\":10885:10909  currentAllowance < value */\n      lt\n        /* \"@openzeppelin/contracts/token/ERC20/ERC20.sol\":10881:11011  if (currentAllowance < value) {... */\n      iszero\n      tag_233\n      jumpi\n        /* \"@openzeppelin/contracts/token/ERC20/ERC20.sol\":10963:10970  spender */\n      dup3\n        /* \"@openzeppelin/contracts/token/ERC20/ERC20.sol\":10972:10988  currentAllowance */\n      dup2\n        /* \"@openzeppelin/contracts/token/ERC20/ERC20.sol\":10990:10995  value */\n      dup4\n        /* \"@openzeppelin/contracts/token/ERC20/ERC20.sol\":10936:10996  ERC20InsufficientAllowance(spender, currentAllowance, value) */\n      mload(0x40)\n      0xfb8f41b200000000000000000000000000000000000000000000000000000000\n      dup2\n      mstore\n      0x04\n      add\n      tag_234\n      swap4\n      swap3\n      swap2\n      swap1\n      tag_235\n      jump\t// in\n    tag_234:\n      mload(0x40)\n      dup1\n      swap2\n      sub\n      swap1\n      revert\n        /* \"@openzeppelin/contracts/token/ERC20/ERC20.sol\":10881:11011  if (currentAllowance < value) {... */\n    tag_233:\n        /* \"@openzeppelin/contracts/token/ERC20/ERC20.sol\":11052:11109  _approve(owner, spender, currentAllowance - value, false) */\n      tag_236\n        /* \"@openzeppelin/contracts/token/ERC20/ERC20.sol\":11061:11066  owner */\n      dup5\n        /* \"@openzeppelin/contracts/token/ERC20/ERC20.sol\":11068:11075  spender */\n      dup5\n        /* \"@openzeppelin/contracts/token/ERC20/ERC20.sol\":11096:11101  value */\n      dup5\n        /* \"@openzeppelin/contracts/token/ERC20/ERC20.sol\":11077:11093  currentAllowance */\n      dup5\n        /* \"@openzeppelin/contracts/token/ERC20/ERC20.sol\":11077:11101  currentAllowance - value */\n      sub\n        /* \"@openzeppelin/contracts/token/ERC20/ERC20.sol\":11103:11108  false */\n      0x00\n        /* \"@openzeppelin/contracts/token/ERC20/ERC20.sol\":11052:11060  _approve */\n      tag_229\n        /* \"@openzeppelin/contracts/token/ERC20/ERC20.sol\":11052:11109  _approve(owner, spender, currentAllowance - value, false) */\n      jump\t// in\n    tag_236:\n        /* \"@openzeppelin/contracts/token/ERC20/ERC20.sol\":10824:11134  if (currentAllowance != type(uint256).max) {... */\n    tag_232:\n        /* \"@openzeppelin/contracts/token/ERC20/ERC20.sol\":10752:11140  {... */\n      pop\n        /* \"@openzeppelin/contracts/token/ERC20/ERC20.sol\":10663:11140  function _spendAllowance(address owner, address spender, uint256 value) internal virtual {... */\n      pop\n      pop\n      pop\n      jump\t// out\n        /* \"@openzeppelin/contracts/token/ERC20/ERC20.sol\":5656:5956  function _transfer(address from, address to, uint256 value) internal {... */\n    tag_143:\n        /* \"@openzeppelin/contracts/token/ERC20/ERC20.sol\":5755:5756  0 */\n      0x00\n        /* \"@openzeppelin/contracts/token/ERC20/ERC20.sol\":5739:5757  from == address(0) */\n      0xffffffffffffffffffffffffffffffffffffffff\n      and\n        /* \"@openzeppelin/contracts/token/ERC20/ERC20.sol\":5739:5743  from */\n      dup4\n        /* \"@openzeppelin/contracts/token/ERC20/ERC20.sol\":5739:5757  from == address(0) */\n      0xffffffffffffffffffffffffffffffffffffffff\n      and\n      sub\n        /* \"@openzeppelin/contracts/token/ERC20/ERC20.sol\":5735:5821  if (from == address(0)) {... */\n      tag_238\n      jumpi\n        /* \"@openzeppelin/contracts/token/ERC20/ERC20.sol\":5807:5808  0 */\n      0x00\n        /* \"@openzeppelin/contracts/token/ERC20/ERC20.sol\":5780:5810  ERC20InvalidSender(address(0)) */\n      mload(0x40)\n      0x96c6fd1e00000000000000000000000000000000000000000000000000000000\n      dup2\n      mstore\n      0x04\n      add\n      tag_239\n      swap2\n      swap1\n      tag_240\n      jump\t// in\n    tag_239:\n      mload(0x40)\n      dup1\n      swap2\n      sub\n      swap1\n      revert\n        /* \"@openzeppelin/contracts/token/ERC20/ERC20.sol\":5735:5821  if (from == address(0)) {... */\n    tag_238:\n        /* \"@openzeppelin/contracts/token/ERC20/ERC20.sol\":5848:5849  0 */\n      0x00\n        /* \"@openzeppelin/contracts/token/ERC20/ERC20.sol\":5834:5850  to == address(0) */\n      0xffffffffffffffffffffffffffffffffffffffff\n      and\n        /* \"@openzeppelin/contracts/token/ERC20/ERC20.sol\":5834:5836  to */\n      dup3\n        /* \"@openzeppelin/contracts/token/ERC20/ERC20.sol\":5834:5850  to == address(0) */\n      0xffffffffffffffffffffffffffffffffffffffff\n      and\n      sub\n        /* \"@openzeppelin/contracts/token/ERC20/ERC20.sol\":5830:5916  if (to == address(0)) {... */\n      tag_241\n      jumpi\n        /* \"@openzeppelin/contracts/token/ERC20/ERC20.sol\":5902:5903  0 */\n      0x00\n        /* \"@openzeppelin/contracts/token/ERC20/ERC20.sol\":5873:5905  ERC20InvalidReceiver(address(0)) */\n      mload(0x40)\n      0xec442f0500000000000000000000000000000000000000000000000000000000\n      dup2\n      mstore\n      0x04\n      add\n      tag_242\n      swap2\n      swap1\n      tag_240\n      jump\t// in\n    tag_242:\n      mload(0x40)\n      dup1\n      swap2\n      sub\n      swap1\n      revert\n        /* \"@openzeppelin/contracts/token/ERC20/ERC20.sol\":5830:5916  if (to == address(0)) {... */\n    tag_241:\n        /* \"@openzeppelin/contracts/token/ERC20/ERC20.sol\":5925:5949  _update(from, to, value) */\n      tag_243\n        /* \"@openzeppelin/contracts/token/ERC20/ERC20.sol\":5933:5937  from */\n      dup4\n        /* \"@openzeppelin/contracts/token/ERC20/ERC20.sol\":5939:5941  to */\n      dup4\n        /* \"@openzeppelin/contracts/token/ERC20/ERC20.sol\":5943:5948  value */\n      dup4\n        /* \"@openzeppelin/contracts/token/ERC20/ERC20.sol\":5925:5932  _update */\n      tag_244\n        /* \"@openzeppelin/contracts/token/ERC20/ERC20.sol\":5925:5949  _update(from, to, value) */\n      jump\t// in\n    tag_243:\n        /* \"@openzeppelin/contracts/token/ERC20/ERC20.sol\":5656:5956  function _transfer(address from, address to, uint256 value) internal {... */\n      pop\n      pop\n      pop\n      jump\t// out\n        /* \"@openzeppelin/contracts/access/AccessControl.sol\":3199:3302  function _checkRole(bytes32 role) internal view virtual {... */\n    tag_148:\n        /* \"@openzeppelin/contracts/access/AccessControl.sol\":3265:3295  _checkRole(role, _msgSender()) */\n      tag_246\n        /* \"@openzeppelin/contracts/access/AccessControl.sol\":3276:3280  role */\n      dup2\n        /* \"@openzeppelin/contracts/access/AccessControl.sol\":3282:3294  _msgSender() */\n      tag_247\n        /* \"@openzeppelin/contracts/access/AccessControl.sol\":3282:3292  _msgSender */\n      tag_134\n        /* \"@openzeppelin/contracts/access/AccessControl.sol\":3282:3294  _msgSender() */\n      jump\t// in\n    tag_247:\n        /* \"@openzeppelin/contracts/access/AccessControl.sol\":3265:3275  _checkRole */\n      tag_248\n        /* \"@openzeppelin/contracts/access/AccessControl.sol\":3265:3295  _checkRole(role, _msgSender()) */\n      jump\t// in\n    tag_246:\n        /* \"@openzeppelin/contracts/access/AccessControl.sol\":3199:3302  function _checkRole(bytes32 role) internal view virtual {... */\n      pop\n      jump\t// out\n        /* \"@openzeppelin/contracts/access/AccessControl.sol\":6179:6495  function _grantRole(bytes32 role, address account) internal virtual returns (bool) {... */\n    tag_151:\n        /* \"@openzeppelin/contracts/access/AccessControl.sol\":6256:6260  bool */\n      0x00\n        /* \"@openzeppelin/contracts/access/AccessControl.sol\":6277:6299  hasRole(role, account) */\n      tag_250\n        /* \"@openzeppelin/contracts/access/AccessControl.sol\":6285:6289  role */\n      dup4\n        /* \"@openzeppelin/contracts/access/AccessControl.sol\":6291:6298  account */\n      dup4\n        /* \"@openzeppelin/contracts/access/AccessControl.sol\":6277:6284  hasRole */\n      tag_98\n        /* \"@openzeppelin/contracts/access/AccessControl.sol\":6277:6299  hasRole(role, account) */\n      jump\t// in\n    tag_250:\n        /* \"@openzeppelin/contracts/access/AccessControl.sol\":6272:6489  if (!hasRole(role, account)) {... */\n      tag_251\n      jumpi\n        /* \"@openzeppelin/contracts/access/AccessControl.sol\":6347:6351  true */\n      0x01\n        /* \"@openzeppelin/contracts/access/AccessControl.sol\":6315:6321  _roles */\n      0x05\n        /* \"@openzeppelin/contracts/access/AccessControl.sol\":6315:6327  _roles[role] */\n      0x00\n        /* \"@openzeppelin/contracts/access/AccessControl.sol\":6322:6326  role */\n      dup6\n        /* \"@openzeppelin/contracts/access/AccessControl.sol\":6315:6327  _roles[role] */\n      dup2\n      mstore\n      0x20\n      add\n      swap1\n      dup2\n      mstore\n      0x20\n      add\n      0x00\n      keccak256\n        /* \"@openzeppelin/contracts/access/AccessControl.sol\":6315:6335  _roles[role].hasRole */\n      0x00\n      add\n        /* \"@openzeppelin/contracts/access/AccessControl.sol\":6315:6344  _roles[role].hasRole[account] */\n      0x00\n        /* \"@openzeppelin/contracts/access/AccessControl.sol\":6336:6343  account */\n      dup5\n        /* \"@openzeppelin/contracts/access/AccessControl.sol\":6315:6344  _roles[role].hasRole[account] */\n      0xffffffffffffffffffffffffffffffffffffffff\n      and\n      0xffffffffffffffffffffffffffffffffffffffff\n      and\n      dup2\n      mstore\n      0x20\n      add\n      swap1\n      dup2\n      mstore\n      0x20\n      add\n      0x00\n      keccak256\n      0x00\n        /* \"@openzeppelin/contracts/access/AccessControl.sol\":6315:6351  _roles[role].hasRole[account] = true */\n      0x0100\n      exp\n      dup2\n      sload\n      dup2\n      0xff\n      mul\n      not\n      and\n      swap1\n      dup4\n      iszero\n      iszero\n      mul\n      or\n      swap1\n      sstore\n      pop\n        /* \"@openzeppelin/contracts/access/AccessControl.sol\":6397:6409  _msgSender() */\n      tag_252\n        /* \"@openzeppelin/contracts/access/AccessControl.sol\":6397:6407  _msgSender */\n      tag_134\n        /* \"@openzeppelin/contracts/access/AccessControl.sol\":6397:6409  _msgSender() */\n      jump\t// in\n    tag_252:\n        /* \"@openzeppelin/contracts/access/AccessControl.sol\":6370:6410  RoleGranted(role, account, _msgSender()) */\n      0xffffffffffffffffffffffffffffffffffffffff\n      and\n        /* \"@openzeppelin/contracts/access/AccessControl.sol\":6388:6395  account */\n      dup3\n        /* \"@openzeppelin/contracts/access/AccessControl.sol\":6370:6410  RoleGranted(role, account, _msgSender()) */\n      0xffffffffffffffffffffffffffffffffffffffff\n      and\n        /* \"@openzeppelin/contracts/access/AccessControl.sol\":6382:6386  role */\n      dup5\n        /* \"@openzeppelin/contracts/access/AccessControl.sol\":6370:6410  RoleGranted(role, account, _msgSender()) */\n      0x2f8788117e7eff1d82e926ec794901d17c78024a50270940304540a733656f0d\n      mload(0x40)\n      mload(0x40)\n      dup1\n      swap2\n      sub\n      swap1\n      log4\n        /* \"@openzeppelin/contracts/access/AccessControl.sol\":6431:6435  true */\n      0x01\n        /* \"@openzeppelin/contracts/access/AccessControl.sol\":6424:6435  return true */\n      swap1\n      pop\n      jump(tag_249)\n        /* \"@openzeppelin/contracts/access/AccessControl.sol\":6272:6489  if (!hasRole(role, account)) {... */\n    tag_251:\n        /* \"@openzeppelin/contracts/access/AccessControl.sol\":6473:6478  false */\n      0x00\n        /* \"@openzeppelin/contracts/access/AccessControl.sol\":6466:6478  return false */\n      swap1\n      pop\n        /* \"@openzeppelin/contracts/access/AccessControl.sol\":6179:6495  function _grantRole(bytes32 role, address account) internal virtual returns (bool) {... */\n    tag_249:\n      swap3\n      swap2\n      pop\n      pop\n      jump\t// out\n        /* \"@openzeppelin/contracts/token/ERC20/ERC20.sol\":8247:8453  function _burn(address account, uint256 value) internal {... */\n    tag_165:\n        /* \"@openzeppelin/contracts/token/ERC20/ERC20.sol\":8336:8337  0 */\n      0x00\n        /* \"@openzeppelin/contracts/token/ERC20/ERC20.sol\":8317:8338  account == address(0) */\n      0xffffffffffffffffffffffffffffffffffffffff\n      and\n        /* \"@openzeppelin/contracts/token/ERC20/ERC20.sol\":8317:8324  account */\n      dup3\n        /* \"@openzeppelin/contracts/token/ERC20/ERC20.sol\":8317:8338  account == address(0) */\n      0xffffffffffffffffffffffffffffffffffffffff\n      and\n      sub\n        /* \"@openzeppelin/contracts/token/ERC20/ERC20.sol\":8313:8402  if (account == address(0)) {... */\n      tag_255\n      jumpi\n        /* \"@openzeppelin/contracts/token/ERC20/ERC20.sol\":8388:8389  0 */\n      0x00\n        /* \"@openzeppelin/contracts/token/ERC20/ERC20.sol\":8361:8391  ERC20InvalidSender(address(0)) */\n      mload(0x40)\n      0x96c6fd1e00000000000000000000000000000000000000000000000000000000\n      dup2\n      mstore\n      0x04\n      add\n      tag_256\n      swap2\n      swap1\n      tag_240\n      jump\t// in\n    tag_256:\n      mload(0x40)\n      dup1\n      swap2\n      sub\n      swap1\n      revert\n        /* \"@openzeppelin/contracts/token/ERC20/ERC20.sol\":8313:8402  if (account == address(0)) {... */\n    tag_255:\n        /* \"@openzeppelin/contracts/token/ERC20/ERC20.sol\":8411:8446  _update(account, address(0), value) */\n      tag_257\n        /* \"@openzeppelin/contracts/token/ERC20/ERC20.sol\":8419:8426  account */\n      dup3\n        /* \"@openzeppelin/contracts/token/ERC20/ERC20.sol\":8436:8437  0 */\n      0x00\n        /* \"@openzeppelin/contracts/token/ERC20/ERC20.sol\":8440:8445  value */\n      dup4\n        /* \"@openzeppelin/contracts/token/ERC20/ERC20.sol\":8411:8418  _update */\n      tag_244\n        /* \"@openzeppelin/contracts/token/ERC20/ERC20.sol\":8411:8446  _update(account, address(0), value) */\n      jump\t// in\n    tag_257:\n        /* \"@openzeppelin/contracts/token/ERC20/ERC20.sol\":8247:8453  function _burn(address account, uint256 value) internal {... */\n      pop\n      pop\n      jump\t// out\n        /* \"@openzeppelin/contracts/access/AccessControl.sol\":6730:7047  function _revokeRole(bytes32 role, address account) internal virtual returns (bool) {... */\n    tag_174:\n        /* \"@openzeppelin/contracts/access/AccessControl.sol\":6808:6812  bool */\n      0x00\n        /* \"@openzeppelin/contracts/access/AccessControl.sol\":6828:6850  hasRole(role, account) */\n      tag_259\n        /* \"@openzeppelin/contracts/access/AccessControl.sol\":6836:6840  role */\n      dup4\n        /* \"@openzeppelin/contracts/access/AccessControl.sol\":6842:6849  account */\n      dup4\n        /* \"@openzeppelin/contracts/access/AccessControl.sol\":6828:6835  hasRole */\n      tag_98\n        /* \"@openzeppelin/contracts/access/AccessControl.sol\":6828:6850  hasRole(role, account) */\n      jump\t// in\n    tag_259:\n        /* \"@openzeppelin/contracts/access/AccessControl.sol\":6824:7041  if (hasRole(role, account)) {... */\n      iszero\n      tag_260\n      jumpi\n        /* \"@openzeppelin/contracts/access/AccessControl.sol\":6898:6903  false */\n      0x00\n        /* \"@openzeppelin/contracts/access/AccessControl.sol\":6866:6872  _roles */\n      0x05\n        /* \"@openzeppelin/contracts/access/AccessControl.sol\":6866:6878  _roles[role] */\n      0x00\n        /* \"@openzeppelin/contracts/access/AccessControl.sol\":6873:6877  role */\n      dup6\n        /* \"@openzeppelin/contracts/access/AccessControl.sol\":6866:6878  _roles[role] */\n      dup2\n      mstore\n      0x20\n      add\n      swap1\n      dup2\n      mstore\n      0x20\n      add\n      0x00\n      keccak256\n        /* \"@openzeppelin/contracts/access/AccessControl.sol\":6866:6886  _roles[role].hasRole */\n      0x00\n      add\n        /* \"@openzeppelin/contracts/access/AccessControl.sol\":6866:6895  _roles[role].hasRole[account] */\n      0x00\n        /* \"@openzeppelin/contracts/access/AccessControl.sol\":6887:6894  account */\n      dup5\n        /* \"@openzeppelin/contracts/access/AccessControl.sol\":6866:6895  _roles[role].hasRole[account] */\n      0xffffffffffffffffffffffffffffffffffffffff\n      and\n      0xffffffffffffffffffffffffffffffffffffffff\n      and\n      dup2\n      mstore\n      0x20\n      add\n      swap1\n      dup2\n      mstore\n      0x20\n      add\n      0x00\n      keccak256\n      0x00\n        /* \"@openzeppelin/contracts/access/AccessControl.sol\":6866:6903  _roles[role].hasRole[account] = false */\n      0x0100\n      exp\n      dup2\n      sload\n      dup2\n      0xff\n      mul\n      not\n      and\n      swap1\n      dup4\n      iszero\n      iszero\n      mul\n      or\n      swap1\n      sstore\n      pop\n        /* \"@openzeppelin/contracts/access/AccessControl.sol\":6949:6961  _msgSender() */\n      tag_261\n        /* \"@openzeppelin/contracts/access/AccessControl.sol\":6949:6959  _msgSender */\n      tag_134\n        /* \"@openzeppelin/contracts/access/AccessControl.sol\":6949:6961  _msgSender() */\n      jump\t// in\n    tag_261:\n        /* \"@openzeppelin/contracts/access/AccessControl.sol\":6922:6962  RoleRevoked(role, account, _msgSender()) */\n      0xffffffffffffffffffffffffffffffffffffffff\n      and\n        /* \"@openzeppelin/contracts/access/AccessControl.sol\":6940:6947  account */\n      dup3\n        /* \"@openzeppelin/contracts/access/AccessControl.sol\":6922:6962  RoleRevoked(role, account, _msgSender()) */\n      0xffffffffffffffffffffffffffffffffffffffff\n      and\n        /* \"@openzeppelin/contracts/access/AccessControl.sol\":6934:6938  role */\n      dup5\n        /* \"@openzeppelin/contracts/access/AccessControl.sol\":6922:6962  RoleRevoked(role, account, _msgSender()) */\n      0xf6391f5c32d9c69d2a47ea670b442974b53935d1edc7fd64eb21e047a839171b\n      mload(0x40)\n      mload(0x40)\n      dup1\n      swap2\n      sub\n      swap1\n      log4\n        /* \"@openzeppelin/contracts/access/AccessControl.sol\":6983:6987  true */\n      0x01\n        /* \"@openzeppelin/contracts/access/AccessControl.sol\":6976:6987  return true */\n      swap1\n      pop\n      jump(tag_258)\n        /* \"@openzeppelin/contracts/access/AccessControl.sol\":6824:7041  if (hasRole(role, account)) {... */\n    tag_260:\n        /* \"@openzeppelin/contracts/access/AccessControl.sol\":7025:7030  false */\n      0x00\n        /* \"@openzeppelin/contracts/access/AccessControl.sol\":7018:7030  return false */\n      swap1\n      pop\n        /* \"@openzeppelin/contracts/access/AccessControl.sol\":6730:7047  function _revokeRole(bytes32 role, address account) internal virtual returns (bool) {... */\n    tag_258:\n      swap3\n      swap2\n      pop\n      pop\n      jump\t// out\n        /* \"@openzeppelin/contracts/token/ERC20/ERC20.sol\":7721:7929  function _mint(address account, uint256 value) internal {... */\n    tag_202:\n        /* \"@openzeppelin/contracts/token/ERC20/ERC20.sol\":7810:7811  0 */\n      0x00\n        /* \"@openzeppelin/contracts/token/ERC20/ERC20.sol\":7791:7812  account == address(0) */\n      0xffffffffffffffffffffffffffffffffffffffff\n      and\n        /* \"@openzeppelin/contracts/token/ERC20/ERC20.sol\":7791:7798  account */\n      dup3\n        /* \"@openzeppelin/contracts/token/ERC20/ERC20.sol\":7791:7812  account == address(0) */\n      0xffffffffffffffffffffffffffffffffffffffff\n      and\n      sub\n        /* \"@openzeppelin/contracts/token/ERC20/ERC20.sol\":7787:7878  if (account == address(0)) {... */\n      tag_264\n      jumpi\n        /* \"@openzeppelin/contracts/token/ERC20/ERC20.sol\":7864:7865  0 */\n      0x00\n        /* \"@openzeppelin/contracts/token/ERC20/ERC20.sol\":7835:7867  ERC20InvalidReceiver(address(0)) */\n      mload(0x40)\n      0xec442f0500000000000000000000000000000000000000000000000000000000\n      dup2\n      mstore\n      0x04\n      add\n      tag_265\n      swap2\n      swap1\n      tag_240\n      jump\t// in\n    tag_265:\n      mload(0x40)\n      dup1\n      swap2\n      sub\n      swap1\n      revert\n        /* \"@openzeppelin/contracts/token/ERC20/ERC20.sol\":7787:7878  if (account == address(0)) {... */\n    tag_264:\n        /* \"@openzeppelin/contracts/token/ERC20/ERC20.sol\":7887:7922  _update(address(0), account, value) */\n      tag_266\n        /* \"@openzeppelin/contracts/token/ERC20/ERC20.sol\":7903:7904  0 */\n      0x00\n        /* \"@openzeppelin/contracts/token/ERC20/ERC20.sol\":7907:7914  account */\n      dup4\n        /* \"@openzeppelin/contracts/token/ERC20/ERC20.sol\":7916:7921  value */\n      dup4\n        /* \"@openzeppelin/contracts/token/ERC20/ERC20.sol\":7887:7894  _update */\n      tag_244\n        /* \"@openzeppelin/contracts/token/ERC20/ERC20.sol\":7887:7922  _update(address(0), account, value) */\n      jump\t// in\n    tag_266:\n        /* \"@openzeppelin/contracts/token/ERC20/ERC20.sol\":7721:7929  function _mint(address account, uint256 value) internal {... */\n      pop\n      pop\n      jump\t// out\n        /* \"@openzeppelin/contracts/token/ERC20/ERC20.sol\":9949:10381  function _approve(address owner, address spender, uint256 value, bool emitEvent) internal virtual {... */\n    tag_229:\n        /* \"@openzeppelin/contracts/token/ERC20/ERC20.sol\":10078:10079  0 */\n      0x00\n        /* \"@openzeppelin/contracts/token/ERC20/ERC20.sol\":10061:10080  owner == address(0) */\n      0xffffffffffffffffffffffffffffffffffffffff\n      and\n        /* \"@openzeppelin/contracts/token/ERC20/ERC20.sol\":10061:10066  owner */\n      dup5\n        /* \"@openzeppelin/contracts/token/ERC20/ERC20.sol\":10061:10080  owner == address(0) */\n      0xffffffffffffffffffffffffffffffffffffffff\n      and\n      sub\n        /* \"@openzeppelin/contracts/token/ERC20/ERC20.sol\":10057:10146  if (owner == address(0)) {... */\n      tag_268\n      jumpi\n        /* \"@openzeppelin/contracts/token/ERC20/ERC20.sol\":10132:10133  0 */\n      0x00\n        /* \"@openzeppelin/contracts/token/ERC20/ERC20.sol\":10103:10135  ERC20InvalidApprover(address(0)) */\n      mload(0x40)\n      0xe602df0500000000000000000000000000000000000000000000000000000000\n      dup2\n      mstore\n      0x04\n      add\n      tag_269\n      swap2\n      swap1\n      tag_240\n      jump\t// in\n    tag_269:\n      mload(0x40)\n      dup1\n      swap2\n      sub\n      swap1\n      revert\n        /* \"@openzeppelin/contracts/token/ERC20/ERC20.sol\":10057:10146  if (owner == address(0)) {... */\n    tag_268:\n        /* \"@openzeppelin/contracts/token/ERC20/ERC20.sol\":10178:10179  0 */\n      0x00\n        /* \"@openzeppelin/contracts/token/ERC20/ERC20.sol\":10159:10180  spender == address(0) */\n      0xffffffffffffffffffffffffffffffffffffffff\n      and\n        /* \"@openzeppelin/contracts/token/ERC20/ERC20.sol\":10159:10166  spender */\n      dup4\n        /* \"@openzeppelin/contracts/token/ERC20/ERC20.sol\":10159:10180  spender == address(0) */\n      0xffffffffffffffffffffffffffffffffffffffff\n      and\n      sub\n        /* \"@openzeppelin/contracts/token/ERC20/ERC20.sol\":10155:10245  if (spender == address(0)) {... */\n      tag_270\n      jumpi\n        /* \"@openzeppelin/contracts/token/ERC20/ERC20.sol\":10231:10232  0 */\n      0x00\n        /* \"@openzeppelin/contracts/token/ERC20/ERC20.sol\":10203:10234  ERC20InvalidSpender(address(0)) */\n      mload(0x40)\n      0x94280d6200000000000000000000000000000000000000000000000000000000\n      dup2\n      mstore\n      0x04\n      add\n      tag_271\n      swap2\n      swap1\n      tag_240\n      jump\t// in\n    tag_271:\n      mload(0x40)\n      dup1\n      swap2\n      sub\n      swap1\n      revert\n        /* \"@openzeppelin/contracts/token/ERC20/ERC20.sol\":10155:10245  if (spender == address(0)) {... */\n    tag_270:\n        /* \"@openzeppelin/contracts/token/ERC20/ERC20.sol\":10284:10289  value */\n      dup2\n        /* \"@openzeppelin/contracts/token/ERC20/ERC20.sol\":10254:10265  _allowances */\n      0x01\n        /* \"@openzeppelin/contracts/token/ERC20/ERC20.sol\":10254:10272  _allowances[owner] */\n      0x00\n        /* \"@openzeppelin/contracts/token/ERC20/ERC20.sol\":10266:10271  owner */\n      dup7\n        /* \"@openzeppelin/contracts/token/ERC20/ERC20.sol\":10254:10272  _allowances[owner] */\n      0xffffffffffffffffffffffffffffffffffffffff\n      and\n      0xffffffffffffffffffffffffffffffffffffffff\n      and\n      dup2\n      mstore\n      0x20\n      add\n      swap1\n      dup2\n      mstore\n      0x20\n      add\n      0x00\n      keccak256\n        /* \"@openzeppelin/contracts/token/ERC20/ERC20.sol\":10254:10281  _allowances[owner][spender] */\n      0x00\n        /* \"@openzeppelin/contracts/token/ERC20/ERC20.sol\":10273:10280  spender */\n      dup6\n        /* \"@openzeppelin/contracts/token/ERC20/ERC20.sol\":10254:10281  _allowances[owner][spender] */\n      0xffffffffffffffffffffffffffffffffffffffff\n      and\n      0xffffffffffffffffffffffffffffffffffffffff\n      and\n      dup2\n      mstore\n      0x20\n      add\n      swap1\n      dup2\n      mstore\n      0x20\n      add\n      0x00\n      keccak256\n        /* \"@openzeppelin/contracts/token/ERC20/ERC20.sol\":10254:10289  _allowances[owner][spender] = value */\n      dup2\n      swap1\n      sstore\n      pop\n        /* \"@openzeppelin/contracts/token/ERC20/ERC20.sol\":10303:10312  emitEvent */\n      dup1\n        /* \"@openzeppelin/contracts/token/ERC20/ERC20.sol\":10299:10375  if (emitEvent) {... */\n      iszero\n      tag_272\n      jumpi\n        /* \"@openzeppelin/contracts/token/ERC20/ERC20.sol\":10349:10356  spender */\n      dup3\n        /* \"@openzeppelin/contracts/token/ERC20/ERC20.sol\":10333:10364  Approval(owner, spender, value) */\n      0xffffffffffffffffffffffffffffffffffffffff\n      and\n        /* \"@openzeppelin/contracts/token/ERC20/ERC20.sol\":10342:10347  owner */\n      dup5\n        /* \"@openzeppelin/contracts/token/ERC20/ERC20.sol\":10333:10364  Approval(owner, spender, value) */\n      0xffffffffffffffffffffffffffffffffffffffff\n      and\n      0x8c5be1e5ebec7d5bd14f71427d1e84f3dd0314c0f7b2291e5b200ac8c7c3b925\n        /* \"@openzeppelin/contracts/token/ERC20/ERC20.sol\":10358:10363  value */\n      dup5\n        /* \"@openzeppelin/contracts/token/ERC20/ERC20.sol\":10333:10364  Approval(owner, spender, value) */\n      mload(0x40)\n      tag_273\n      swap2\n      swap1\n      tag_49\n      jump\t// in\n    tag_273:\n      mload(0x40)\n      dup1\n      swap2\n      sub\n      swap1\n      log3\n        /* \"@openzeppelin/contracts/token/ERC20/ERC20.sol\":10299:10375  if (emitEvent) {... */\n    tag_272:\n        /* \"@openzeppelin/contracts/token/ERC20/ERC20.sol\":9949:10381  function _approve(address owner, address spender, uint256 value, bool emitEvent) internal virtual {... */\n      pop\n      pop\n      pop\n      pop\n      jump\t// out\n        /* \"@openzeppelin/contracts/token/ERC20/ERC20.sol\":6271:7378  function _update(address from, address to, uint256 value) internal virtual {... */\n    tag_244:\n        /* \"@openzeppelin/contracts/token/ERC20/ERC20.sol\":6376:6377  0 */\n      0x00\n        /* \"@openzeppelin/contracts/token/ERC20/ERC20.sol\":6360:6378  from == address(0) */\n      0xffffffffffffffffffffffffffffffffffffffff\n      and\n        /* \"@openzeppelin/contracts/token/ERC20/ERC20.sol\":6360:6364  from */\n      dup4\n        /* \"@openzeppelin/contracts/token/ERC20/ERC20.sol\":6360:6378  from == address(0) */\n      0xffffffffffffffffffffffffffffffffffffffff\n      and\n      sub\n        /* \"@openzeppelin/contracts/token/ERC20/ERC20.sol\":6356:6896  if (from == address(0)) {... */\n      tag_275\n      jumpi\n        /* \"@openzeppelin/contracts/token/ERC20/ERC20.sol\":6512:6517  value */\n      dup1\n        /* \"@openzeppelin/contracts/token/ERC20/ERC20.sol\":6496:6508  _totalSupply */\n      0x02\n      0x00\n        /* \"@openzeppelin/contracts/token/ERC20/ERC20.sol\":6496:6517  _totalSupply += value */\n      dup3\n      dup3\n      sload\n      tag_276\n      swap2\n      swap1\n      tag_277\n      jump\t// in\n    tag_276:\n      swap3\n      pop\n      pop\n      dup2\n      swap1\n      sstore\n      pop\n        /* \"@openzeppelin/contracts/token/ERC20/ERC20.sol\":6356:6896  if (from == address(0)) {... */\n      jump(tag_278)\n    tag_275:\n        /* \"@openzeppelin/contracts/token/ERC20/ERC20.sol\":6548:6567  uint256 fromBalance */\n      0x00\n        /* \"@openzeppelin/contracts/token/ERC20/ERC20.sol\":6570:6579  _balances */\n      dup1\n        /* \"@openzeppelin/contracts/token/ERC20/ERC20.sol\":6570:6585  _balances[from] */\n      0x00\n        /* \"@openzeppelin/contracts/token/ERC20/ERC20.sol\":6580:6584  from */\n      dup6\n        /* \"@openzeppelin/contracts/token/ERC20/ERC20.sol\":6570:6585  _balances[from] */\n      0xffffffffffffffffffffffffffffffffffffffff\n      and\n      0xffffffffffffffffffffffffffffffffffffffff\n      and\n      dup2\n      mstore\n      0x20\n      add\n      swap1\n      dup2\n      mstore\n      0x20\n      add\n      0x00\n      keccak256\n      sload\n        /* \"@openzeppelin/contracts/token/ERC20/ERC20.sol\":6548:6585  uint256 fromBalance = _balances[from] */\n      swap1\n      pop\n        /* \"@openzeppelin/contracts/token/ERC20/ERC20.sol\":6617:6622  value */\n      dup2\n        /* \"@openzeppelin/contracts/token/ERC20/ERC20.sol\":6603:6614  fromBalance */\n      dup2\n        /* \"@openzeppelin/contracts/token/ERC20/ERC20.sol\":6603:6622  fromBalance < value */\n      lt\n        /* \"@openzeppelin/contracts/token/ERC20/ERC20.sol\":6599:6714  if (fromBalance < value) {... */\n      iszero\n      tag_279\n      jumpi\n        /* \"@openzeppelin/contracts/token/ERC20/ERC20.sol\":6674:6678  from */\n      dup4\n        /* \"@openzeppelin/contracts/token/ERC20/ERC20.sol\":6680:6691  fromBalance */\n      dup2\n        /* \"@openzeppelin/contracts/token/ERC20/ERC20.sol\":6693:6698  value */\n      dup4\n        /* \"@openzeppelin/contracts/token/ERC20/ERC20.sol\":6649:6699  ERC20InsufficientBalance(from, fromBalance, value) */\n      mload(0x40)\n      0xe450d38c00000000000000000000000000000000000000000000000000000000\n      dup2\n      mstore\n      0x04\n      add\n      tag_280\n      swap4\n      swap3\n      swap2\n      swap1\n      tag_235\n      jump\t// in\n    tag_280:\n      mload(0x40)\n      dup1\n      swap2\n      sub\n      swap1\n      revert\n        /* \"@openzeppelin/contracts/token/ERC20/ERC20.sol\":6599:6714  if (fromBalance < value) {... */\n    tag_279:\n        /* \"@openzeppelin/contracts/token/ERC20/ERC20.sol\":6866:6871  value */\n      dup2\n        /* \"@openzeppelin/contracts/token/ERC20/ERC20.sol\":6852:6863  fromBalance */\n      dup2\n        /* \"@openzeppelin/contracts/token/ERC20/ERC20.sol\":6852:6871  fromBalance - value */\n      sub\n        /* \"@openzeppelin/contracts/token/ERC20/ERC20.sol\":6834:6843  _balances */\n      0x00\n        /* \"@openzeppelin/contracts/token/ERC20/ERC20.sol\":6834:6849  _balances[from] */\n      dup1\n        /* \"@openzeppelin/contracts/token/ERC20/ERC20.sol\":6844:6848  from */\n      dup7\n        /* \"@openzeppelin/contracts/token/ERC20/ERC20.sol\":6834:6849  _balances[from] */\n      0xffffffffffffffffffffffffffffffffffffffff\n      and\n      0xffffffffffffffffffffffffffffffffffffffff\n      and\n      dup2\n      mstore\n      0x20\n      add\n      swap1\n      dup2\n      mstore\n      0x20\n      add\n      0x00\n      keccak256\n        /* \"@openzeppelin/contracts/token/ERC20/ERC20.sol\":6834:6871  _balances[from] = fromBalance - value */\n      dup2\n      swap1\n      sstore\n      pop\n        /* \"@openzeppelin/contracts/token/ERC20/ERC20.sol\":6534:6896  {... */\n      pop\n        /* \"@openzeppelin/contracts/token/ERC20/ERC20.sol\":6356:6896  if (from == address(0)) {... */\n    tag_278:\n        /* \"@openzeppelin/contracts/token/ERC20/ERC20.sol\":6924:6925  0 */\n      0x00\n        /* \"@openzeppelin/contracts/token/ERC20/ERC20.sol\":6910:6926  to == address(0) */\n      0xffffffffffffffffffffffffffffffffffffffff\n      and\n        /* \"@openzeppelin/contracts/token/ERC20/ERC20.sol\":6910:6912  to */\n      dup3\n        /* \"@openzeppelin/contracts/token/ERC20/ERC20.sol\":6910:6926  to == address(0) */\n      0xffffffffffffffffffffffffffffffffffffffff\n      and\n      sub\n        /* \"@openzeppelin/contracts/token/ERC20/ERC20.sol\":6906:7331  if (to == address(0)) {... */\n      tag_281\n      jumpi\n        /* \"@openzeppelin/contracts/token/ERC20/ERC20.sol\":7089:7094  value */\n      dup1\n        /* \"@openzeppelin/contracts/token/ERC20/ERC20.sol\":7073:7085  _totalSupply */\n      0x02\n      0x00\n        /* \"@openzeppelin/contracts/token/ERC20/ERC20.sol\":7073:7094  _totalSupply -= value */\n      dup3\n      dup3\n      sload\n      sub\n      swap3\n      pop\n      pop\n      dup2\n      swap1\n      sstore\n      pop\n        /* \"@openzeppelin/contracts/token/ERC20/ERC20.sol\":6906:7331  if (to == address(0)) {... */\n      jump(tag_282)\n    tag_281:\n        /* \"@openzeppelin/contracts/token/ERC20/ERC20.sol\":7301:7306  value */\n      dup1\n        /* \"@openzeppelin/contracts/token/ERC20/ERC20.sol\":7284:7293  _balances */\n      0x00\n        /* \"@openzeppelin/contracts/token/ERC20/ERC20.sol\":7284:7297  _balances[to] */\n      dup1\n        /* \"@openzeppelin/contracts/token/ERC20/ERC20.sol\":7294:7296  to */\n      dup5\n        /* \"@openzeppelin/contracts/token/ERC20/ERC20.sol\":7284:7297  _balances[to] */\n      0xffffffffffffffffffffffffffffffffffffffff\n      and\n      0xffffffffffffffffffffffffffffffffffffffff\n      and\n      dup2\n      mstore\n      0x20\n      add\n      swap1\n      dup2\n      mstore\n      0x20\n      add\n      0x00\n      keccak256\n      0x00\n        /* \"@openzeppelin/contracts/token/ERC20/ERC20.sol\":7284:7306  _balances[to] += value */\n      dup3\n      dup3\n      sload\n      add\n      swap3\n      pop\n      pop\n      dup2\n      swap1\n      sstore\n      pop\n        /* \"@openzeppelin/contracts/token/ERC20/ERC20.sol\":6906:7331  if (to == address(0)) {... */\n    tag_282:\n        /* \"@openzeppelin/contracts/token/ERC20/ERC20.sol\":7361:7363  to */\n      dup2\n        /* \"@openzeppelin/contracts/token/ERC20/ERC20.sol\":7346:7371  Transfer(from, to, value) */\n      0xffffffffffffffffffffffffffffffffffffffff\n      and\n        /* \"@openzeppelin/contracts/token/ERC20/ERC20.sol\":7355:7359  from */\n      dup4\n        /* \"@openzeppelin/contracts/token/ERC20/ERC20.sol\":7346:7371  Transfer(from, to, value) */\n      0xffffffffffffffffffffffffffffffffffffffff\n      and\n      0xddf252ad1be2c89b69c2b068fc378daa952ba7f163c4a11628f55a4df523b3ef\n        /* \"@openzeppelin/contracts/token/ERC20/ERC20.sol\":7365:7370  value */\n      dup4\n        /* \"@openzeppelin/contracts/token/ERC20/ERC20.sol\":7346:7371  Transfer(from, to, value) */\n      mload(0x40)\n      tag_283\n      swap2\n      swap1\n      tag_49\n      jump\t// in\n    tag_283:\n      mload(0x40)\n      dup1\n      swap2\n      sub\n      swap1\n      log3\n        /* \"@openzeppelin/contracts/token/ERC20/ERC20.sol\":6271:7378  function _update(address from, address to, uint256 value) internal virtual {... */\n      pop\n      pop\n      pop\n      jump\t// out\n        /* \"@openzeppelin/contracts/access/AccessControl.sol\":3432:3629  function _checkRole(bytes32 role, address account) internal view virtual {... */\n    tag_248:\n        /* \"@openzeppelin/contracts/access/AccessControl.sol\":3520:3542  hasRole(role, account) */\n      tag_285\n        /* \"@openzeppelin/contracts/access/AccessControl.sol\":3528:3532  role */\n      dup3\n        /* \"@openzeppelin/contracts/access/AccessControl.sol\":3534:3541  account */\n      dup3\n        /* \"@openzeppelin/contracts/access/AccessControl.sol\":3520:3527  hasRole */\n      tag_98\n        /* \"@openzeppelin/contracts/access/AccessControl.sol\":3520:3542  hasRole(role, account) */\n      jump\t// in\n    tag_285:\n        /* \"@openzeppelin/contracts/access/AccessControl.sol\":3515:3623  if (!hasRole(role, account)) {... */\n      tag_286\n      jumpi\n        /* \"@openzeppelin/contracts/access/AccessControl.sol\":3598:3605  account */\n      dup1\n        /* \"@openzeppelin/contracts/access/AccessControl.sol\":3607:3611  role */\n      dup3\n        /* \"@openzeppelin/contracts/access/AccessControl.sol\":3565:3612  AccessControlUnauthorizedAccount(account, role) */\n      mload(0x40)\n      0xe2517d3f00000000000000000000000000000000000000000000000000000000\n      dup2\n      mstore\n      0x04\n      add\n      tag_287\n      swap3\n      swap2\n      swap1\n      tag_288\n      jump\t// in\n    tag_287:\n      mload(0x40)\n      dup1\n      swap2\n      sub\n      swap1\n      revert\n        /* \"@openzeppelin/contracts/access/AccessControl.sol\":3515:3623  if (!hasRole(role, account)) {... */\n    tag_286:\n        /* \"@openzeppelin/contracts/access/AccessControl.sol\":3432:3629  function _checkRole(bytes32 role, address account) internal view virtual {... */\n      pop\n      pop\n      jump\t// out\n        /* \"#utility.yul\":88:205   */\n    tag_290:\n        /* \"#utility.yul\":197:198   */\n      0x00\n        /* \"#utility.yul\":194:195   */\n      dup1\n        /* \"#utility.yul\":187:199   */\n      revert\n        /* \"#utility.yul\":334:483   */\n    tag_292:\n        /* \"#utility.yul\":370:377   */\n      0x00\n        /* \"#utility.yul\":410:476   */\n      0xffffffff00000000000000000000000000000000000000000000000000000000\n        /* \"#utility.yul\":403:408   */\n      dup3\n        /* \"#utility.yul\":399:477   */\n      and\n        /* \"#utility.yul\":388:477   */\n      swap1\n      pop\n        /* \"#utility.yul\":334:483   */\n      swap2\n      swap1\n      pop\n      jump\t// out\n        /* \"#utility.yul\":489:609   */\n    tag_293:\n        /* \"#utility.yul\":561:584   */\n      tag_339\n        /* \"#utility.yul\":578:583   */\n      dup2\n        /* \"#utility.yul\":561:584   */\n      tag_292\n      jump\t// in\n    tag_339:\n        /* \"#utility.yul\":554:559   */\n      dup2\n        /* \"#utility.yul\":551:585   */\n      eq\n        /* \"#utility.yul\":541:603   */\n      tag_340\n      jumpi\n        /* \"#utility.yul\":599:600   */\n      0x00\n        /* \"#utility.yul\":596:597   */\n      dup1\n        /* \"#utility.yul\":589:601   */\n      revert\n        /* \"#utility.yul\":541:603   */\n    tag_340:\n        /* \"#utility.yul\":489:609   */\n      pop\n      jump\t// out\n        /* \"#utility.yul\":615:752   */\n    tag_294:\n        /* \"#utility.yul\":660:665   */\n      0x00\n        /* \"#utility.yul\":698:704   */\n      dup2\n        /* \"#utility.yul\":685:705   */\n      calldataload\n        /* \"#utility.yul\":676:705   */\n      swap1\n      pop\n        /* \"#utility.yul\":714:746   */\n      tag_342\n        /* \"#utility.yul\":740:745   */\n      dup2\n        /* \"#utility.yul\":714:746   */\n      tag_293\n      jump\t// in\n    tag_342:\n        /* \"#utility.yul\":615:752   */\n      swap3\n      swap2\n      pop\n      pop\n      jump\t// out\n        /* \"#utility.yul\":758:1085   */\n    tag_31:\n        /* \"#utility.yul\":816:822   */\n      0x00\n        /* \"#utility.yul\":865:867   */\n      0x20\n        /* \"#utility.yul\":853:862   */\n      dup3\n        /* \"#utility.yul\":844:851   */\n      dup5\n        /* \"#utility.yul\":840:863   */\n      sub\n        /* \"#utility.yul\":836:868   */\n      slt\n        /* \"#utility.yul\":833:952   */\n      iszero\n      tag_344\n      jumpi\n        /* \"#utility.yul\":871:950   */\n      tag_345\n      tag_290\n      jump\t// in\n    tag_345:\n        /* \"#utility.yul\":833:952   */\n    tag_344:\n        /* \"#utility.yul\":991:992   */\n      0x00\n        /* \"#utility.yul\":1016:1068   */\n      tag_346\n        /* \"#utility.yul\":1060:1067   */\n      dup5\n        /* \"#utility.yul\":1051:1057   */\n      dup3\n        /* \"#utility.yul\":1040:1049   */\n      dup6\n        /* \"#utility.yul\":1036:1058   */\n      add\n        /* \"#utility.yul\":1016:1068   */\n      tag_294\n      jump\t// in\n    tag_346:\n        /* \"#utility.yul\":1006:1068   */\n      swap2\n      pop\n        /* \"#utility.yul\":962:1078   */\n      pop\n        /* \"#utility.yul\":758:1085   */\n      swap3\n      swap2\n      pop\n      pop\n      jump\t// out\n        /* \"#utility.yul\":1091:1181   */\n    tag_295:\n        /* \"#utility.yul\":1125:1132   */\n      0x00\n        /* \"#utility.yul\":1168:1173   */\n      dup2\n        /* \"#utility.yul\":1161:1174   */\n      iszero\n        /* \"#utility.yul\":1154:1175   */\n      iszero\n        /* \"#utility.yul\":1143:1175   */\n      swap1\n      pop\n        /* \"#utility.yul\":1091:1181   */\n      swap2\n      swap1\n      pop\n      jump\t// out\n        /* \"#utility.yul\":1187:1296   */\n    tag_296:\n        /* \"#utility.yul\":1268:1289   */\n      tag_349\n        /* \"#utility.yul\":1283:1288   */\n      dup2\n        /* \"#utility.yul\":1268:1289   */\n      tag_295\n      jump\t// in\n    tag_349:\n        /* \"#utility.yul\":1263:1266   */\n      dup3\n        /* \"#utility.yul\":1256:1290   */\n      mstore\n        /* \"#utility.yul\":1187:1296   */\n      pop\n      pop\n      jump\t// out\n        /* \"#utility.yul\":1302:1512   */\n    tag_34:\n        /* \"#utility.yul\":1389:1393   */\n      0x00\n        /* \"#utility.yul\":1427:1429   */\n      0x20\n        /* \"#utility.yul\":1416:1425   */\n      dup3\n        /* \"#utility.yul\":1412:1430   */\n      add\n        /* \"#utility.yul\":1404:1430   */\n      swap1\n      pop\n        /* \"#utility.yul\":1440:1505   */\n      tag_351\n        /* \"#utility.yul\":1502:1503   */\n      0x00\n        /* \"#utility.yul\":1491:1500   */\n      dup4\n        /* \"#utility.yul\":1487:1504   */\n      add\n        /* \"#utility.yul\":1478:1484   */\n      dup5\n        /* \"#utility.yul\":1440:1505   */\n      tag_296\n      jump\t// in\n    tag_351:\n        /* \"#utility.yul\":1302:1512   */\n      swap3\n      swap2\n      pop\n      pop\n      jump\t// out\n        /* \"#utility.yul\":1518:1617   */\n    tag_297:\n        /* \"#utility.yul\":1570:1576   */\n      0x00\n        /* \"#utility.yul\":1604:1609   */\n      dup2\n        /* \"#utility.yul\":1598:1610   */\n      mload\n        /* \"#utility.yul\":1588:1610   */\n      swap1\n      pop\n        /* \"#utility.yul\":1518:1617   */\n      swap2\n      swap1\n      pop\n      jump\t// out\n        /* \"#utility.yul\":1623:1792   */\n    tag_298:\n        /* \"#utility.yul\":1707:1718   */\n      0x00\n        /* \"#utility.yul\":1741:1747   */\n      dup3\n        /* \"#utility.yul\":1736:1739   */\n      dup3\n        /* \"#utility.yul\":1729:1748   */\n      mstore\n        /* \"#utility.yul\":1781:1785   */\n      0x20\n        /* \"#utility.yul\":1776:1779   */\n      dup3\n        /* \"#utility.yul\":1772:1786   */\n      add\n        /* \"#utility.yul\":1757:1786   */\n      swap1\n      pop\n        /* \"#utility.yul\":1623:1792   */\n      swap3\n      swap2\n      pop\n      pop\n      jump\t// out\n        /* \"#utility.yul\":1798:2044   */\n    tag_299:\n        /* \"#utility.yul\":1879:1880   */\n      0x00\n        /* \"#utility.yul\":1889:2002   */\n    tag_355:\n        /* \"#utility.yul\":1903:1909   */\n      dup4\n        /* \"#utility.yul\":1900:1901   */\n      dup2\n        /* \"#utility.yul\":1897:1910   */\n      lt\n        /* \"#utility.yul\":1889:2002   */\n      iszero\n      tag_357\n      jumpi\n        /* \"#utility.yul\":1988:1989   */\n      dup1\n        /* \"#utility.yul\":1983:1986   */\n      dup3\n        /* \"#utility.yul\":1979:1990   */\n      add\n        /* \"#utility.yul\":1973:1991   */\n      mload\n        /* \"#utility.yul\":1969:1970   */\n      dup2\n        /* \"#utility.yul\":1964:1967   */\n      dup5\n        /* \"#utility.yul\":1960:1971   */\n      add\n        /* \"#utility.yul\":1953:1992   */\n      mstore\n        /* \"#utility.yul\":1925:1927   */\n      0x20\n        /* \"#utility.yul\":1922:1923   */\n      dup2\n        /* \"#utility.yul\":1918:1928   */\n      add\n        /* \"#utility.yul\":1913:1928   */\n      swap1\n      pop\n        /* \"#utility.yul\":1889:2002   */\n      jump(tag_355)\n    tag_357:\n        /* \"#utility.yul\":2036:2037   */\n      0x00\n        /* \"#utility.yul\":2027:2033   */\n      dup5\n        /* \"#utility.yul\":2022:2025   */\n      dup5\n        /* \"#utility.yul\":2018:2034   */\n      add\n        /* \"#utility.yul\":2011:2038   */\n      mstore\n        /* \"#utility.yul\":1860:2044   */\n      pop\n        /* \"#utility.yul\":1798:2044   */\n      pop\n      pop\n      pop\n      jump\t// out\n        /* \"#utility.yul\":2050:2152   */\n    tag_300:\n        /* \"#utility.yul\":2091:2097   */\n      0x00\n        /* \"#utility.yul\":2142:2144   */\n      0x1f\n        /* \"#utility.yul\":2138:2145   */\n      not\n        /* \"#utility.yul\":2133:2135   */\n      0x1f\n        /* \"#utility.yul\":2126:2131   */\n      dup4\n        /* \"#utility.yul\":2122:2136   */\n      add\n        /* \"#utility.yul\":2118:2146   */\n      and\n        /* \"#utility.yul\":2108:2146   */\n      swap1\n      pop\n        /* \"#utility.yul\":2050:2152   */\n      swap2\n      swap1\n      pop\n      jump\t// out\n        /* \"#utility.yul\":2158:2535   */\n    tag_301:\n        /* \"#utility.yul\":2246:2249   */\n      0x00\n        /* \"#utility.yul\":2274:2313   */\n      tag_360\n        /* \"#utility.yul\":2307:2312   */\n      dup3\n        /* \"#utility.yul\":2274:2313   */\n      tag_297\n      jump\t// in\n    tag_360:\n        /* \"#utility.yul\":2329:2400   */\n      tag_361\n        /* \"#utility.yul\":2393:2399   */\n      dup2\n        /* \"#utility.yul\":2388:2391   */\n      dup6\n        /* \"#utility.yul\":2329:2400   */\n      tag_298\n      jump\t// in\n    tag_361:\n        /* \"#utility.yul\":2322:2400   */\n      swap4\n      pop\n        /* \"#utility.yul\":2409:2474   */\n      tag_362\n        /* \"#utility.yul\":2467:2473   */\n      dup2\n        /* \"#utility.yul\":2462:2465   */\n      dup6\n        /* \"#utility.yul\":2455:2459   */\n      0x20\n        /* \"#utility.yul\":2448:2453   */\n      dup7\n        /* \"#utility.yul\":2444:2460   */\n      add\n        /* \"#utility.yul\":2409:2474   */\n      tag_299\n      jump\t// in\n    tag_362:\n        /* \"#utility.yul\":2499:2528   */\n      tag_363\n        /* \"#utility.yul\":2521:2527   */\n      dup2\n        /* \"#utility.yul\":2499:2528   */\n      tag_300\n      jump\t// in\n    tag_363:\n        /* \"#utility.yul\":2494:2497   */\n      dup5\n        /* \"#utility.yul\":2490:2529   */\n      add\n        /* \"#utility.yul\":2483:2529   */\n      swap2\n      pop\n        /* \"#utility.yul\":2250:2535   */\n      pop\n        /* \"#utility.yul\":2158:2535   */\n      swap3\n      swap2\n      pop\n      pop\n      jump\t// out\n        /* \"#utility.yul\":2541:2854   */\n    tag_38:\n        /* \"#utility.yul\":2654:2658   */\n      0x00\n        /* \"#utility.yul\":2692:2694   */\n      0x20\n        /* \"#utility.yul\":2681:2690   */\n      dup3\n        /* \"#utility.yul\":2677:2695   */\n      add\n        /* \"#utility.yul\":2669:2695   */\n      swap1\n      pop\n        /* \"#utility.yul\":2741:2750   */\n      dup2\n        /* \"#utility.yul\":2735:2739   */\n      dup2\n        /* \"#utility.yul\":2731:2751   */\n      sub\n        /* \"#utility.yul\":2727:2728   */\n      0x00\n        /* \"#utility.yul\":2716:2725   */\n      dup4\n        /* \"#utility.yul\":2712:2729   */\n      add\n        /* \"#utility.yul\":2705:2752   */\n      mstore\n        /* \"#utility.yul\":2769:2847   */\n      tag_365\n        /* \"#utility.yul\":2842:2846   */\n      dup2\n        /* \"#utility.yul\":2833:2839   */\n      dup5\n        /* \"#utility.yul\":2769:2847   */\n      tag_301\n      jump\t// in\n    tag_365:\n        /* \"#utility.yul\":2761:2847   */\n      swap1\n      pop\n        /* \"#utility.yul\":2541:2854   */\n      swap3\n      swap2\n      pop\n      pop\n      jump\t// out\n        /* \"#utility.yul\":2860:2986   */\n    tag_302:\n        /* \"#utility.yul\":2897:2904   */\n      0x00\n        /* \"#utility.yul\":2937:2979   */\n      0xffffffffffffffffffffffffffffffffffffffff\n        /* \"#utility.yul\":2930:2935   */\n      dup3\n        /* \"#utility.yul\":2926:2980   */\n      and\n        /* \"#utility.yul\":2915:2980   */\n      swap1\n      pop\n        /* \"#utility.yul\":2860:2986   */\n      swap2\n      swap1\n      pop\n      jump\t// out\n        /* \"#utility.yul\":2992:3088   */\n    tag_303:\n        /* \"#utility.yul\":3029:3036   */\n      0x00\n        /* \"#utility.yul\":3058:3082   */\n      tag_368\n        /* \"#utility.yul\":3076:3081   */\n      dup3\n        /* \"#utility.yul\":3058:3082   */\n      tag_302\n      jump\t// in\n    tag_368:\n        /* \"#utility.yul\":3047:3082   */\n      swap1\n      pop\n        /* \"#utility.yul\":2992:3088   */\n      swap2\n      swap1\n      pop\n      jump\t// out\n        /* \"#utility.yul\":3094:3216   */\n    tag_304:\n        /* \"#utility.yul\":3167:3191   */\n      tag_370\n        /* \"#utility.yul\":3185:3190   */\n      dup2\n        /* \"#utility.yul\":3167:3191   */\n      tag_303\n      jump\t// in\n    tag_370:\n        /* \"#utility.yul\":3160:3165   */\n      dup2\n        /* \"#utility.yul\":3157:3192   */\n      eq\n        /* \"#utility.yul\":3147:3210   */\n      tag_371\n      jumpi\n        /* \"#utility.yul\":3206:3207   */\n      0x00\n        /* \"#utility.yul\":3203:3204   */\n      dup1\n        /* \"#utility.yul\":3196:3208   */\n      revert\n        /* \"#utility.yul\":3147:3210   */\n    tag_371:\n        /* \"#utility.yul\":3094:3216   */\n      pop\n      jump\t// out\n        /* \"#utility.yul\":3222:3361   */\n    tag_305:\n        /* \"#utility.yul\":3268:3273   */\n      0x00\n        /* \"#utility.yul\":3306:3312   */\n      dup2\n        /* \"#utility.yul\":3293:3313   */\n      calldataload\n        /* \"#utility.yul\":3284:3313   */\n      swap1\n      pop\n        /* \"#utility.yul\":3322:3355   */\n      tag_373\n        /* \"#utility.yul\":3349:3354   */\n      dup2\n        /* \"#utility.yul\":3322:3355   */\n      tag_304\n      jump\t// in\n    tag_373:\n        /* \"#utility.yul\":3222:3361   */\n      swap3\n      swap2\n      pop\n      pop\n      jump\t// out\n        /* \"#utility.yul\":3367:3444   */\n    tag_306:\n        /* \"#utility.yul\":3404:3411   */\n      0x00\n        /* \"#utility.yul\":3433:3438   */\n      dup2\n        /* \"#utility.yul\":3422:3438   */\n      swap1\n      pop\n        /* \"#utility.yul\":3367:3444   */\n      swap2\n      swap1\n      pop\n      jump\t// out\n        /* \"#utility.yul\":3450:3572   */\n    tag_307:\n        /* \"#utility.yul\":3523:3547   */\n      tag_376\n        /* \"#utility.yul\":3541:3546   */\n      dup2\n        /* \"#utility.yul\":3523:3547   */\n      tag_306\n      jump\t// in\n    tag_376:\n        /* \"#utility.yul\":3516:3521   */\n      dup2\n        /* \"#utility.yul\":3513:3548   */\n      eq\n        /* \"#utility.yul\":3503:3566   */\n      tag_377\n      jumpi\n        /* \"#utility.yul\":3562:3563   */\n      0x00\n        /* \"#utility.yul\":3559:3560   */\n      dup1\n        /* \"#utility.yul\":3552:3564   */\n      revert\n        /* \"#utility.yul\":3503:3566   */\n    tag_377:\n        /* \"#utility.yul\":3450:3572   */\n      pop\n      jump\t// out\n        /* \"#utility.yul\":3578:3717   */\n    tag_308:\n        /* \"#utility.yul\":3624:3629   */\n      0x00\n        /* \"#utility.yul\":3662:3668   */\n      dup2\n        /* \"#utility.yul\":3649:3669   */\n      calldataload\n        /* \"#utility.yul\":3640:3669   */\n      swap1\n      pop\n        /* \"#utility.yul\":3678:3711   */\n      tag_379\n        /* \"#utility.yul\":3705:3710   */\n      dup2\n        /* \"#utility.yul\":3678:3711   */\n      tag_307\n      jump\t// in\n    tag_379:\n        /* \"#utility.yul\":3578:3717   */\n      swap3\n      swap2\n      pop\n      pop\n      jump\t// out\n        /* \"#utility.yul\":3723:4197   */\n    tag_41:\n        /* \"#utility.yul\":3791:3797   */\n      0x00\n        /* \"#utility.yul\":3799:3805   */\n      dup1\n        /* \"#utility.yul\":3848:3850   */\n      0x40\n        /* \"#utility.yul\":3836:3845   */\n      dup4\n        /* \"#utility.yul\":3827:3834   */\n      dup6\n        /* \"#utility.yul\":3823:3846   */\n      sub\n        /* \"#utility.yul\":3819:3851   */\n      slt\n        /* \"#utility.yul\":3816:3935   */\n      iszero\n      tag_381\n      jumpi\n        /* \"#utility.yul\":3854:3933   */\n      tag_382\n      tag_290\n      jump\t// in\n    tag_382:\n        /* \"#utility.yul\":3816:3935   */\n    tag_381:\n        /* \"#utility.yul\":3974:3975   */\n      0x00\n        /* \"#utility.yul\":3999:4052   */\n      tag_383\n        /* \"#utility.yul\":4044:4051   */\n      dup6\n        /* \"#utility.yul\":4035:4041   */\n      dup3\n        /* \"#utility.yul\":4024:4033   */\n      dup7\n        /* \"#utility.yul\":4020:4042   */\n      add\n        /* \"#utility.yul\":3999:4052   */\n      tag_305\n      jump\t// in\n    tag_383:\n        /* \"#utility.yul\":3989:4052   */\n      swap3\n      pop\n        /* \"#utility.yul\":3945:4062   */\n      pop\n        /* \"#utility.yul\":4101:4103   */\n      0x20\n        /* \"#utility.yul\":4127:4180   */\n      tag_384\n        /* \"#utility.yul\":4172:4179   */\n      dup6\n        /* \"#utility.yul\":4163:4169   */\n      dup3\n        /* \"#utility.yul\":4152:4161   */\n      dup7\n        /* \"#utility.yul\":4148:4170   */\n      add\n        /* \"#utility.yul\":4127:4180   */\n      tag_308\n      jump\t// in\n    tag_384:\n        /* \"#utility.yul\":4117:4180   */\n      swap2\n      pop\n        /* \"#utility.yul\":4072:4190   */\n      pop\n        /* \"#utility.yul\":3723:4197   */\n      swap3\n      pop\n      swap3\n      swap1\n      pop\n      jump\t// out\n        /* \"#utility.yul\":4203:4532   */\n    tag_46:\n        /* \"#utility.yul\":4262:4268   */\n      0x00\n        /* \"#utility.yul\":4311:4313   */\n      0x20\n        /* \"#utility.yul\":4299:4308   */\n      dup3\n        /* \"#utility.yul\":4290:4297   */\n      dup5\n        /* \"#utility.yul\":4286:4309   */\n      sub\n        /* \"#utility.yul\":4282:4314   */\n      slt\n        /* \"#utility.yul\":4279:4398   */\n      iszero\n      tag_386\n      jumpi\n        /* \"#utility.yul\":4317:4396   */\n      tag_387\n      tag_290\n      jump\t// in\n    tag_387:\n        /* \"#utility.yul\":4279:4398   */\n    tag_386:\n        /* \"#utility.yul\":4437:4438   */\n      0x00\n        /* \"#utility.yul\":4462:4515   */\n      tag_388\n        /* \"#utility.yul\":4507:4514   */\n      dup5\n        /* \"#utility.yul\":4498:4504   */\n      dup3\n        /* \"#utility.yul\":4487:4496   */\n      dup6\n        /* \"#utility.yul\":4483:4505   */\n      add\n        /* \"#utility.yul\":4462:4515   */\n      tag_305\n      jump\t// in\n    tag_388:\n        /* \"#utility.yul\":4452:4515   */\n      swap2\n      pop\n        /* \"#utility.yul\":4408:4525   */\n      pop\n        /* \"#utility.yul\":4203:4532   */\n      swap3\n      swap2\n      pop\n      pop\n      jump\t// out\n        /* \"#utility.yul\":4538:4656   */\n    tag_309:\n        /* \"#utility.yul\":4625:4649   */\n      tag_390\n        /* \"#utility.yul\":4643:4648   */\n      dup2\n        /* \"#utility.yul\":4625:4649   */\n      tag_306\n      jump\t// in\n    tag_390:\n        /* \"#utility.yul\":4620:4623   */\n      dup3\n        /* \"#utility.yul\":4613:4650   */\n      mstore\n        /* \"#utility.yul\":4538:4656   */\n      pop\n      pop\n      jump\t// out\n        /* \"#utility.yul\":4662:4884   */\n    tag_49:\n        /* \"#utility.yul\":4755:4759   */\n      0x00\n        /* \"#utility.yul\":4793:4795   */\n      0x20\n        /* \"#utility.yul\":4782:4791   */\n      dup3\n        /* \"#utility.yul\":4778:4796   */\n      add\n        /* \"#utility.yul\":4770:4796   */\n      swap1\n      pop\n        /* \"#utility.yul\":4806:4877   */\n      tag_392\n        /* \"#utility.yul\":4874:4875   */\n      0x00\n        /* \"#utility.yul\":4863:4872   */\n      dup4\n        /* \"#utility.yul\":4859:4876   */\n      add\n        /* \"#utility.yul\":4850:4856   */\n      dup5\n        /* \"#utility.yul\":4806:4877   */\n      tag_309\n      jump\t// in\n    tag_392:\n        /* \"#utility.yul\":4662:4884   */\n      swap3\n      swap2\n      pop\n      pop\n      jump\t// out\n        /* \"#utility.yul\":4890:5509   */\n    tag_55:\n        /* \"#utility.yul\":4967:4973   */\n      0x00\n        /* \"#utility.yul\":4975:4981   */\n      dup1\n        /* \"#utility.yul\":4983:4989   */\n      0x00\n        /* \"#utility.yul\":5032:5034   */\n      0x60\n        /* \"#utility.yul\":5020:5029   */\n      dup5\n        /* \"#utility.yul\":5011:5018   */\n      dup7\n        /* \"#utility.yul\":5007:5030   */\n      sub\n        /* \"#utility.yul\":5003:5035   */\n      slt\n        /* \"#utility.yul\":5000:5119   */\n      iszero\n      tag_394\n      jumpi\n        /* \"#utility.yul\":5038:5117   */\n      tag_395\n      tag_290\n      jump\t// in\n    tag_395:\n        /* \"#utility.yul\":5000:5119   */\n    tag_394:\n        /* \"#utility.yul\":5158:5159   */\n      0x00\n        /* \"#utility.yul\":5183:5236   */\n      tag_396\n        /* \"#utility.yul\":5228:5235   */\n      dup7\n        /* \"#utility.yul\":5219:5225   */\n      dup3\n        /* \"#utility.yul\":5208:5217   */\n      dup8\n        /* \"#utility.yul\":5204:5226   */\n      add\n        /* \"#utility.yul\":5183:5236   */\n      tag_305\n      jump\t// in\n    tag_396:\n        /* \"#utility.yul\":5173:5236   */\n      swap4\n      pop\n        /* \"#utility.yul\":5129:5246   */\n      pop\n        /* \"#utility.yul\":5285:5287   */\n      0x20\n        /* \"#utility.yul\":5311:5364   */\n      tag_397\n        /* \"#utility.yul\":5356:5363   */\n      dup7\n        /* \"#utility.yul\":5347:5353   */\n      dup3\n        /* \"#utility.yul\":5336:5345   */\n      dup8\n        /* \"#utility.yul\":5332:5354   */\n      add\n        /* \"#utility.yul\":5311:5364   */\n      tag_305\n      jump\t// in\n    tag_397:\n        /* \"#utility.yul\":5301:5364   */\n      swap3\n      pop\n        /* \"#utility.yul\":5256:5374   */\n      pop\n        /* \"#utility.yul\":5413:5415   */\n      0x40\n        /* \"#utility.yul\":5439:5492   */\n      tag_398\n        /* \"#utility.yul\":5484:5491   */\n      dup7\n        /* \"#utility.yul\":5475:5481   */\n      dup3\n        /* \"#utility.yul\":5464:5473   */\n      dup8\n        /* \"#utility.yul\":5460:5482   */\n      add\n        /* \"#utility.yul\":5439:5492   */\n      tag_308\n      jump\t// in\n    tag_398:\n        /* \"#utility.yul\":5429:5492   */\n      swap2\n      pop\n        /* \"#utility.yul\":5384:5502   */\n      pop\n        /* \"#utility.yul\":4890:5509   */\n      swap3\n      pop\n      swap3\n      pop\n      swap3\n      jump\t// out\n        /* \"#utility.yul\":5515:5592   */\n    tag_310:\n        /* \"#utility.yul\":5552:5559   */\n      0x00\n        /* \"#utility.yul\":5581:5586   */\n      dup2\n        /* \"#utility.yul\":5570:5586   */\n      swap1\n      pop\n        /* \"#utility.yul\":5515:5592   */\n      swap2\n      swap1\n      pop\n      jump\t// out\n        /* \"#utility.yul\":5598:5720   */\n    tag_311:\n        /* \"#utility.yul\":5671:5695   */\n      tag_401\n        /* \"#utility.yul\":5689:5694   */\n      dup2\n        /* \"#utility.yul\":5671:5695   */\n      tag_310\n      jump\t// in\n    tag_401:\n        /* \"#utility.yul\":5664:5669   */\n      dup2\n        /* \"#utility.yul\":5661:5696   */\n      eq\n        /* \"#utility.yul\":5651:5714   */\n      tag_402\n      jumpi\n        /* \"#utility.yul\":5710:5711   */\n      0x00\n        /* \"#utility.yul\":5707:5708   */\n      dup1\n        /* \"#utility.yul\":5700:5712   */\n      revert\n        /* \"#utility.yul\":5651:5714   */\n    tag_402:\n        /* \"#utility.yul\":5598:5720   */\n      pop\n      jump\t// out\n        /* \"#utility.yul\":5726:5865   */\n    tag_312:\n        /* \"#utility.yul\":5772:5777   */\n      0x00\n        /* \"#utility.yul\":5810:5816   */\n      dup2\n        /* \"#utility.yul\":5797:5817   */\n      calldataload\n        /* \"#utility.yul\":5788:5817   */\n      swap1\n      pop\n        /* \"#utility.yul\":5826:5859   */\n      tag_404\n        /* \"#utility.yul\":5853:5858   */\n      dup2\n        /* \"#utility.yul\":5826:5859   */\n      tag_311\n      jump\t// in\n    tag_404:\n        /* \"#utility.yul\":5726:5865   */\n      swap3\n      swap2\n      pop\n      pop\n      jump\t// out\n        /* \"#utility.yul\":5871:6200   */\n    tag_60:\n        /* \"#utility.yul\":5930:5936   */\n      0x00\n        /* \"#utility.yul\":5979:5981   */\n      0x20\n        /* \"#utility.yul\":5967:5976   */\n      dup3\n        /* \"#utility.yul\":5958:5965   */\n      dup5\n        /* \"#utility.yul\":5954:5977   */\n      sub\n        /* \"#utility.yul\":5950:5982   */\n      slt\n        /* \"#utility.yul\":5947:6066   */\n      iszero\n      tag_406\n      jumpi\n        /* \"#utility.yul\":5985:6064   */\n      tag_407\n      tag_290\n      jump\t// in\n    tag_407:\n        /* \"#utility.yul\":5947:6066   */\n    tag_406:\n        /* \"#utility.yul\":6105:6106   */\n      0x00\n        /* \"#utility.yul\":6130:6183   */\n      tag_408\n        /* \"#utility.yul\":6175:6182   */\n      dup5\n        /* \"#utility.yul\":6166:6172   */\n      dup3\n        /* \"#utility.yul\":6155:6164   */\n      dup6\n        /* \"#utility.yul\":6151:6173   */\n      add\n        /* \"#utility.yul\":6130:6183   */\n      tag_312\n      jump\t// in\n    tag_408:\n        /* \"#utility.yul\":6120:6183   */\n      swap2\n      pop\n        /* \"#utility.yul\":6076:6193   */\n      pop\n        /* \"#utility.yul\":5871:6200   */\n      swap3\n      swap2\n      pop\n      pop\n      jump\t// out\n        /* \"#utility.yul\":6206:6324   */\n    tag_313:\n        /* \"#utility.yul\":6293:6317   */\n      tag_410\n        /* \"#utility.yul\":6311:6316   */\n      dup2\n        /* \"#utility.yul\":6293:6317   */\n      tag_310\n      jump\t// in\n    tag_410:\n        /* \"#utility.yul\":6288:6291   */\n      dup3\n        /* \"#utility.yul\":6281:6318   */\n      mstore\n        /* \"#utility.yul\":6206:6324   */\n      pop\n      pop\n      jump\t// out\n        /* \"#utility.yul\":6330:6552   */\n    tag_63:\n        /* \"#utility.yul\":6423:6427   */\n      0x00\n        /* \"#utility.yul\":6461:6463   */\n      0x20\n        /* \"#utility.yul\":6450:6459   */\n      dup3\n        /* \"#utility.yul\":6446:6464   */\n      add\n        /* \"#utility.yul\":6438:6464   */\n      swap1\n      pop\n        /* \"#utility.yul\":6474:6545   */\n      tag_412\n        /* \"#utility.yul\":6542:6543   */\n      0x00\n        /* \"#utility.yul\":6531:6540   */\n      dup4\n        /* \"#utility.yul\":6527:6544   */\n      add\n        /* \"#utility.yul\":6518:6524   */\n      dup5\n        /* \"#utility.yul\":6474:6545   */\n      tag_313\n      jump\t// in\n    tag_412:\n        /* \"#utility.yul\":6330:6552   */\n      swap3\n      swap2\n      pop\n      pop\n      jump\t// out\n        /* \"#utility.yul\":6558:7032   */\n    tag_69:\n        /* \"#utility.yul\":6626:6632   */\n      0x00\n        /* \"#utility.yul\":6634:6640   */\n      dup1\n        /* \"#utility.yul\":6683:6685   */\n      0x40\n        /* \"#utility.yul\":6671:6680   */\n      dup4\n        /* \"#utility.yul\":6662:6669   */\n      dup6\n        /* \"#utility.yul\":6658:6681   */\n      sub\n        /* \"#utility.yul\":6654:6686   */\n      slt\n        /* \"#utility.yul\":6651:6770   */\n      iszero\n      tag_414\n      jumpi\n        /* \"#utility.yul\":6689:6768   */\n      tag_415\n      tag_290\n      jump\t// in\n    tag_415:\n        /* \"#utility.yul\":6651:6770   */\n    tag_414:\n        /* \"#utility.yul\":6809:6810   */\n      0x00\n        /* \"#utility.yul\":6834:6887   */\n      tag_416\n        /* \"#utility.yul\":6879:6886   */\n      dup6\n        /* \"#utility.yul\":6870:6876   */\n      dup3\n        /* \"#utility.yul\":6859:6868   */\n      dup7\n        /* \"#utility.yul\":6855:6877   */\n      add\n        /* \"#utility.yul\":6834:6887   */\n      tag_312\n      jump\t// in\n    tag_416:\n        /* \"#utility.yul\":6824:6887   */\n      swap3\n      pop\n        /* \"#utility.yul\":6780:6897   */\n      pop\n        /* \"#utility.yul\":6936:6938   */\n      0x20\n        /* \"#utility.yul\":6962:7015   */\n      tag_417\n        /* \"#utility.yul\":7007:7014   */\n      dup6\n        /* \"#utility.yul\":6998:7004   */\n      dup3\n        /* \"#utility.yul\":6987:6996   */\n      dup7\n        /* \"#utility.yul\":6983:7005   */\n      add\n        /* \"#utility.yul\":6962:7015   */\n      tag_305\n      jump\t// in\n    tag_417:\n        /* \"#utility.yul\":6952:7015   */\n      swap2\n      pop\n        /* \"#utility.yul\":6907:7025   */\n      pop\n        /* \"#utility.yul\":6558:7032   */\n      swap3\n      pop\n      swap3\n      swap1\n      pop\n      jump\t// out\n        /* \"#utility.yul\":7038:7367   */\n    tag_73:\n        /* \"#utility.yul\":7097:7103   */\n      0x00\n        /* \"#utility.yul\":7146:7148   */\n      0x20\n        /* \"#utility.yul\":7134:7143   */\n      dup3\n        /* \"#utility.yul\":7125:7132   */\n      dup5\n        /* \"#utility.yul\":7121:7144   */\n      sub\n        /* \"#utility.yul\":7117:7149   */\n      slt\n        /* \"#utility.yul\":7114:7233   */\n      iszero\n      tag_419\n      jumpi\n        /* \"#utility.yul\":7152:7231   */\n      tag_420\n      tag_290\n      jump\t// in\n    tag_420:\n        /* \"#utility.yul\":7114:7233   */\n    tag_419:\n        /* \"#utility.yul\":7272:7273   */\n      0x00\n        /* \"#utility.yul\":7297:7350   */\n      tag_421\n        /* \"#utility.yul\":7342:7349   */\n      dup5\n        /* \"#utility.yul\":7333:7339   */\n      dup3\n        /* \"#utility.yul\":7322:7331   */\n      dup6\n        /* \"#utility.yul\":7318:7340   */\n      add\n        /* \"#utility.yul\":7297:7350   */\n      tag_308\n      jump\t// in\n    tag_421:\n        /* \"#utility.yul\":7287:7350   */\n      swap2\n      pop\n        /* \"#utility.yul\":7243:7360   */\n      pop\n        /* \"#utility.yul\":7038:7367   */\n      swap3\n      swap2\n      pop\n      pop\n      jump\t// out\n        /* \"#utility.yul\":7373:7459   */\n    tag_314:\n        /* \"#utility.yul\":7408:7415   */\n      0x00\n        /* \"#utility.yul\":7448:7452   */\n      0xff\n        /* \"#utility.yul\":7441:7446   */\n      dup3\n        /* \"#utility.yul\":7437:7453   */\n      and\n        /* \"#utility.yul\":7426:7453   */\n      swap1\n      pop\n        /* \"#utility.yul\":7373:7459   */\n      swap2\n      swap1\n      pop\n      jump\t// out\n        /* \"#utility.yul\":7465:7577   */\n    tag_315:\n        /* \"#utility.yul\":7548:7570   */\n      tag_424\n        /* \"#utility.yul\":7564:7569   */\n      dup2\n        /* \"#utility.yul\":7548:7570   */\n      tag_314\n      jump\t// in\n    tag_424:\n        /* \"#utility.yul\":7543:7546   */\n      dup3\n        /* \"#utility.yul\":7536:7571   */\n      mstore\n        /* \"#utility.yul\":7465:7577   */\n      pop\n      pop\n      jump\t// out\n        /* \"#utility.yul\":7583:7797   */\n    tag_78:\n        /* \"#utility.yul\":7672:7676   */\n      0x00\n        /* \"#utility.yul\":7710:7712   */\n      0x20\n        /* \"#utility.yul\":7699:7708   */\n      dup3\n        /* \"#utility.yul\":7695:7713   */\n      add\n        /* \"#utility.yul\":7687:7713   */\n      swap1\n      pop\n        /* \"#utility.yul\":7723:7790   */\n      tag_426\n        /* \"#utility.yul\":7787:7788   */\n      0x00\n        /* \"#utility.yul\":7776:7785   */\n      dup4\n        /* \"#utility.yul\":7772:7789   */\n      add\n        /* \"#utility.yul\":7763:7769   */\n      dup5\n        /* \"#utility.yul\":7723:7790   */\n      tag_315\n      jump\t// in\n    tag_426:\n        /* \"#utility.yul\":7583:7797   */\n      swap3\n      swap2\n      pop\n      pop\n      jump\t// out\n        /* \"#utility.yul\":7803:8422   */\n    tag_84:\n        /* \"#utility.yul\":7880:7886   */\n      0x00\n        /* \"#utility.yul\":7888:7894   */\n      dup1\n        /* \"#utility.yul\":7896:7902   */\n      0x00\n        /* \"#utility.yul\":7945:7947   */\n      0x60\n        /* \"#utility.yul\":7933:7942   */\n      dup5\n        /* \"#utility.yul\":7924:7931   */\n      dup7\n        /* \"#utility.yul\":7920:7943   */\n      sub\n        /* \"#utility.yul\":7916:7948   */\n      slt\n        /* \"#utility.yul\":7913:8032   */\n      iszero\n      tag_428\n      jumpi\n        /* \"#utility.yul\":7951:8030   */\n      tag_429\n      tag_290\n      jump\t// in\n    tag_429:\n        /* \"#utility.yul\":7913:8032   */\n    tag_428:\n        /* \"#utility.yul\":8071:8072   */\n      0x00\n        /* \"#utility.yul\":8096:8149   */\n      tag_430\n        /* \"#utility.yul\":8141:8148   */\n      dup7\n        /* \"#utility.yul\":8132:8138   */\n      dup3\n        /* \"#utility.yul\":8121:8130   */\n      dup8\n        /* \"#utility.yul\":8117:8139   */\n      add\n        /* \"#utility.yul\":8096:8149   */\n      tag_305\n      jump\t// in\n    tag_430:\n        /* \"#utility.yul\":8086:8149   */\n      swap4\n      pop\n        /* \"#utility.yul\":8042:8159   */\n      pop\n        /* \"#utility.yul\":8198:8200   */\n      0x20\n        /* \"#utility.yul\":8224:8277   */\n      tag_431\n        /* \"#utility.yul\":8269:8276   */\n      dup7\n        /* \"#utility.yul\":8260:8266   */\n      dup3\n        /* \"#utility.yul\":8249:8258   */\n      dup8\n        /* \"#utility.yul\":8245:8267   */\n      add\n        /* \"#utility.yul\":8224:8277   */\n      tag_308\n      jump\t// in\n    tag_431:\n        /* \"#utility.yul\":8214:8277   */\n      swap3\n      pop\n        /* \"#utility.yul\":8169:8287   */\n      pop\n        /* \"#utility.yul\":8326:8328   */\n      0x40\n        /* \"#utility.yul\":8352:8405   */\n      tag_432\n        /* \"#utility.yul\":8397:8404   */\n      dup7\n        /* \"#utility.yul\":8388:8394   */\n      dup3\n        /* \"#utility.yul\":8377:8386   */\n      dup8\n        /* \"#utility.yul\":8373:8395   */\n      add\n        /* \"#utility.yul\":8352:8405   */\n      tag_305\n      jump\t// in\n    tag_432:\n        /* \"#utility.yul\":8342:8405   */\n      swap2\n      pop\n        /* \"#utility.yul\":8297:8415   */\n      pop\n        /* \"#utility.yul\":7803:8422   */\n      swap3\n      pop\n      swap3\n      pop\n      swap3\n      jump\t// out\n        /* \"#utility.yul\":8428:8902   */\n    tag_118:\n        /* \"#utility.yul\":8496:8502   */\n      0x00\n        /* \"#utility.yul\":8504:8510   */\n      dup1\n        /* \"#utility.yul\":8553:8555   */\n      0x40\n        /* \"#utility.yul\":8541:8550   */\n      dup4\n        /* \"#utility.yul\":8532:8539   */\n      dup6\n        /* \"#utility.yul\":8528:8551   */\n      sub\n        /* \"#utility.yul\":8524:8556   */\n      slt\n        /* \"#utility.yul\":8521:8640   */\n      iszero\n      tag_434\n      jumpi\n        /* \"#utility.yul\":8559:8638   */\n      tag_435\n      tag_290\n      jump\t// in\n    tag_435:\n        /* \"#utility.yul\":8521:8640   */\n    tag_434:\n        /* \"#utility.yul\":8679:8680   */\n      0x00\n        /* \"#utility.yul\":8704:8757   */\n      tag_436\n        /* \"#utility.yul\":8749:8756   */\n      dup6\n        /* \"#utility.yul\":8740:8746   */\n      dup3\n        /* \"#utility.yul\":8729:8738   */\n      dup7\n        /* \"#utility.yul\":8725:8747   */\n      add\n        /* \"#utility.yul\":8704:8757   */\n      tag_305\n      jump\t// in\n    tag_436:\n        /* \"#utility.yul\":8694:8757   */\n      swap3\n      pop\n        /* \"#utility.yul\":8650:8767   */\n      pop\n        /* \"#utility.yul\":8806:8808   */\n      0x20\n        /* \"#utility.yul\":8832:8885   */\n      tag_437\n        /* \"#utility.yul\":8877:8884   */\n      dup6\n        /* \"#utility.yul\":8868:8874   */\n      dup3\n        /* \"#utility.yul\":8857:8866   */\n      dup7\n        /* \"#utility.yul\":8853:8875   */\n      add\n        /* \"#utility.yul\":8832:8885   */\n      tag_305\n      jump\t// in\n    tag_437:\n        /* \"#utility.yul\":8822:8885   */\n      swap2\n      pop\n        /* \"#utility.yul\":8777:8895   */\n      pop\n        /* \"#utility.yul\":8428:8902   */\n      swap3\n      pop\n      swap3\n      swap1\n      pop\n      jump\t// out\n        /* \"#utility.yul\":8908:9088   */\n    tag_316:\n        /* \"#utility.yul\":8956:9033   */\n      0x4e487b7100000000000000000000000000000000000000000000000000000000\n        /* \"#utility.yul\":8953:8954   */\n      0x00\n        /* \"#utility.yul\":8946:9034   */\n      mstore\n        /* \"#utility.yul\":9053:9057   */\n      0x22\n        /* \"#utility.yul\":9050:9051   */\n      0x04\n        /* \"#utility.yul\":9043:9058   */\n      mstore\n        /* \"#utility.yul\":9077:9081   */\n      0x24\n        /* \"#utility.yul\":9074:9075   */\n      0x00\n        /* \"#utility.yul\":9067:9082   */\n      revert\n        /* \"#utility.yul\":9094:9414   */\n    tag_127:\n        /* \"#utility.yul\":9138:9144   */\n      0x00\n        /* \"#utility.yul\":9175:9176   */\n      0x02\n        /* \"#utility.yul\":9169:9173   */\n      dup3\n        /* \"#utility.yul\":9165:9177   */\n      div\n        /* \"#utility.yul\":9155:9177   */\n      swap1\n      pop\n        /* \"#utility.yul\":9222:9223   */\n      0x01\n        /* \"#utility.yul\":9216:9220   */\n      dup3\n        /* \"#utility.yul\":9212:9224   */\n      and\n        /* \"#utility.yul\":9243:9261   */\n      dup1\n        /* \"#utility.yul\":9233:9314   */\n      tag_440\n      jumpi\n        /* \"#utility.yul\":9299:9303   */\n      0x7f\n        /* \"#utility.yul\":9291:9297   */\n      dup3\n        /* \"#utility.yul\":9287:9304   */\n      and\n        /* \"#utility.yul\":9277:9304   */\n      swap2\n      pop\n        /* \"#utility.yul\":9233:9314   */\n    tag_440:\n        /* \"#utility.yul\":9361:9363   */\n      0x20\n        /* \"#utility.yul\":9353:9359   */\n      dup3\n        /* \"#utility.yul\":9350:9364   */\n      lt\n        /* \"#utility.yul\":9330:9348   */\n      dup2\n        /* \"#utility.yul\":9327:9365   */\n      sub\n        /* \"#utility.yul\":9324:9408   */\n      tag_441\n      jumpi\n        /* \"#utility.yul\":9380:9398   */\n      tag_442\n      tag_316\n      jump\t// in\n    tag_442:\n        /* \"#utility.yul\":9324:9408   */\n    tag_441:\n        /* \"#utility.yul\":9145:9414   */\n      pop\n        /* \"#utility.yul\":9094:9414   */\n      swap2\n      swap1\n      pop\n      jump\t// out\n        /* \"#utility.yul\":9420:9600   */\n    tag_317:\n        /* \"#utility.yul\":9468:9545   */\n      0x4e487b7100000000000000000000000000000000000000000000000000000000\n        /* \"#utility.yul\":9465:9466   */\n      0x00\n        /* \"#utility.yul\":9458:9546   */\n      mstore\n        /* \"#utility.yul\":9565:9569   */\n      0x12\n        /* \"#utility.yul\":9562:9563   */\n      0x04\n        /* \"#utility.yul\":9555:9570   */\n      mstore\n        /* \"#utility.yul\":9589:9593   */\n      0x24\n        /* \"#utility.yul\":9586:9587   */\n      0x00\n        /* \"#utility.yul\":9579:9594   */\n      revert\n        /* \"#utility.yul\":9606:9782   */\n    tag_154:\n        /* \"#utility.yul\":9638:9639   */\n      0x00\n        /* \"#utility.yul\":9655:9675   */\n      tag_445\n        /* \"#utility.yul\":9673:9674   */\n      dup3\n        /* \"#utility.yul\":9655:9675   */\n      tag_306\n      jump\t// in\n    tag_445:\n        /* \"#utility.yul\":9650:9675   */\n      swap2\n      pop\n        /* \"#utility.yul\":9689:9709   */\n      tag_446\n        /* \"#utility.yul\":9707:9708   */\n      dup4\n        /* \"#utility.yul\":9689:9709   */\n      tag_306\n      jump\t// in\n    tag_446:\n        /* \"#utility.yul\":9684:9709   */\n      swap3\n      pop\n        /* \"#utility.yul\":9728:9729   */\n      dup3\n        /* \"#utility.yul\":9718:9753   */\n      tag_447\n      jumpi\n        /* \"#utility.yul\":9733:9751   */\n      tag_448\n      tag_317\n      jump\t// in\n    tag_448:\n        /* \"#utility.yul\":9718:9753   */\n    tag_447:\n        /* \"#utility.yul\":9774:9775   */\n      dup3\n        /* \"#utility.yul\":9771:9772   */\n      dup3\n        /* \"#utility.yul\":9767:9776   */\n      mod\n        /* \"#utility.yul\":9762:9776   */\n      swap1\n      pop\n        /* \"#utility.yul\":9606:9782   */\n      swap3\n      swap2\n      pop\n      pop\n      jump\t// out\n        /* \"#utility.yul\":9788:9957   */\n    tag_318:\n        /* \"#utility.yul\":9928:9949   */\n      0x696e76616c69642050697a7a6120636f756e7400000000000000000000000000\n        /* \"#utility.yul\":9924:9925   */\n      0x00\n        /* \"#utility.yul\":9916:9922   */\n      dup3\n        /* \"#utility.yul\":9912:9926   */\n      add\n        /* \"#utility.yul\":9905:9950   */\n      mstore\n        /* \"#utility.yul\":9788:9957   */\n      pop\n      jump\t// out\n        /* \"#utility.yul\":9963:10329   */\n    tag_319:\n        /* \"#utility.yul\":10105:10108   */\n      0x00\n        /* \"#utility.yul\":10126:10193   */\n      tag_451\n        /* \"#utility.yul\":10190:10192   */\n      0x13\n        /* \"#utility.yul\":10185:10188   */\n      dup4\n        /* \"#utility.yul\":10126:10193   */\n      tag_298\n      jump\t// in\n    tag_451:\n        /* \"#utility.yul\":10119:10193   */\n      swap2\n      pop\n        /* \"#utility.yul\":10202:10295   */\n      tag_452\n        /* \"#utility.yul\":10291:10294   */\n      dup3\n        /* \"#utility.yul\":10202:10295   */\n      tag_318\n      jump\t// in\n    tag_452:\n        /* \"#utility.yul\":10320:10322   */\n      0x20\n        /* \"#utility.yul\":10315:10318   */\n      dup3\n        /* \"#utility.yul\":10311:10323   */\n      add\n        /* \"#utility.yul\":10304:10323   */\n      swap1\n      pop\n        /* \"#utility.yul\":9963:10329   */\n      swap2\n      swap1\n      pop\n      jump\t// out\n        /* \"#utility.yul\":10335:10754   */\n    tag_157:\n        /* \"#utility.yul\":10501:10505   */\n      0x00\n        /* \"#utility.yul\":10539:10541   */\n      0x20\n        /* \"#utility.yul\":10528:10537   */\n      dup3\n        /* \"#utility.yul\":10524:10542   */\n      add\n        /* \"#utility.yul\":10516:10542   */\n      swap1\n      pop\n        /* \"#utility.yul\":10588:10597   */\n      dup2\n        /* \"#utility.yul\":10582:10586   */\n      dup2\n        /* \"#utility.yul\":10578:10598   */\n      sub\n        /* \"#utility.yul\":10574:10575   */\n      0x00\n        /* \"#utility.yul\":10563:10572   */\n      dup4\n        /* \"#utility.yul\":10559:10576   */\n      add\n        /* \"#utility.yul\":10552:10599   */\n      mstore\n        /* \"#utility.yul\":10616:10747   */\n      tag_454\n        /* \"#utility.yul\":10742:10746   */\n      dup2\n        /* \"#utility.yul\":10616:10747   */\n      tag_319\n      jump\t// in\n    tag_454:\n        /* \"#utility.yul\":10608:10747   */\n      swap1\n      pop\n        /* \"#utility.yul\":10335:10754   */\n      swap2\n      swap1\n      pop\n      jump\t// out\n        /* \"#utility.yul\":10760:10940   */\n    tag_320:\n        /* \"#utility.yul\":10808:10885   */\n      0x4e487b7100000000000000000000000000000000000000000000000000000000\n        /* \"#utility.yul\":10805:10806   */\n      0x00\n        /* \"#utility.yul\":10798:10886   */\n      mstore\n        /* \"#utility.yul\":10905:10909   */\n      0x11\n        /* \"#utility.yul\":10902:10903   */\n      0x04\n        /* \"#utility.yul\":10895:10910   */\n      mstore\n        /* \"#utility.yul\":10929:10933   */\n      0x24\n        /* \"#utility.yul\":10926:10927   */\n      0x00\n        /* \"#utility.yul\":10919:10934   */\n      revert\n        /* \"#utility.yul\":10946:11048   */\n    tag_321:\n        /* \"#utility.yul\":10988:10996   */\n      0x00\n        /* \"#utility.yul\":11035:11040   */\n      dup2\n        /* \"#utility.yul\":11032:11033   */\n      0x01\n        /* \"#utility.yul\":11028:11041   */\n      shr\n        /* \"#utility.yul\":11007:11041   */\n      swap1\n      pop\n        /* \"#utility.yul\":10946:11048   */\n      swap2\n      swap1\n      pop\n      jump\t// out\n        /* \"#utility.yul\":11054:11902   */\n    tag_322:\n        /* \"#utility.yul\":11115:11120   */\n      0x00\n        /* \"#utility.yul\":11122:11126   */\n      dup1\n        /* \"#utility.yul\":11146:11152   */\n      dup3\n        /* \"#utility.yul\":11137:11152   */\n      swap2\n      pop\n        /* \"#utility.yul\":11170:11175   */\n      dup4\n        /* \"#utility.yul\":11161:11175   */\n      swap1\n      pop\n        /* \"#utility.yul\":11184:11896   */\n    tag_458:\n        /* \"#utility.yul\":11205:11206   */\n      0x01\n        /* \"#utility.yul\":11195:11203   */\n      dup6\n        /* \"#utility.yul\":11192:11207   */\n      gt\n        /* \"#utility.yul\":11184:11896   */\n      iszero\n      tag_460\n      jumpi\n        /* \"#utility.yul\":11300:11304   */\n      dup1\n        /* \"#utility.yul\":11295:11298   */\n      dup7\n        /* \"#utility.yul\":11291:11305   */\n      div\n        /* \"#utility.yul\":11285:11289   */\n      dup2\n        /* \"#utility.yul\":11282:11306   */\n      gt\n        /* \"#utility.yul\":11279:11329   */\n      iszero\n      tag_461\n      jumpi\n        /* \"#utility.yul\":11309:11327   */\n      tag_462\n      tag_320\n      jump\t// in\n    tag_462:\n        /* \"#utility.yul\":11279:11329   */\n    tag_461:\n        /* \"#utility.yul\":11359:11360   */\n      0x01\n        /* \"#utility.yul\":11349:11357   */\n      dup6\n        /* \"#utility.yul\":11345:11361   */\n      and\n        /* \"#utility.yul\":11342:11793   */\n      iszero\n      tag_463\n      jumpi\n        /* \"#utility.yul\":11774:11778   */\n      dup1\n        /* \"#utility.yul\":11767:11772   */\n      dup3\n        /* \"#utility.yul\":11763:11779   */\n      mul\n        /* \"#utility.yul\":11754:11779   */\n      swap2\n      pop\n        /* \"#utility.yul\":11342:11793   */\n    tag_463:\n        /* \"#utility.yul\":11824:11828   */\n      dup1\n        /* \"#utility.yul\":11818:11822   */\n      dup2\n        /* \"#utility.yul\":11814:11829   */\n      mul\n        /* \"#utility.yul\":11806:11829   */\n      swap1\n      pop\n        /* \"#utility.yul\":11854:11886   */\n      tag_464\n        /* \"#utility.yul\":11877:11885   */\n      dup6\n        /* \"#utility.yul\":11854:11886   */\n      tag_321\n      jump\t// in\n    tag_464:\n        /* \"#utility.yul\":11842:11886   */\n      swap5\n      pop\n        /* \"#utility.yul\":11184:11896   */\n      jump(tag_458)\n    tag_460:\n        /* \"#utility.yul\":11054:11902   */\n      swap5\n      pop\n      swap5\n      swap3\n      pop\n      pop\n      pop\n      jump\t// out\n        /* \"#utility.yul\":11908:12981   */\n    tag_323:\n        /* \"#utility.yul\":11962:11967   */\n      0x00\n        /* \"#utility.yul\":12153:12161   */\n      dup3\n        /* \"#utility.yul\":12143:12183   */\n      tag_466\n      jumpi\n        /* \"#utility.yul\":12174:12175   */\n      0x01\n        /* \"#utility.yul\":12165:12175   */\n      swap1\n      pop\n        /* \"#utility.yul\":12176:12181   */\n      jump(tag_465)\n        /* \"#utility.yul\":12143:12183   */\n    tag_466:\n        /* \"#utility.yul\":12202:12206   */\n      dup2\n        /* \"#utility.yul\":12192:12228   */\n      tag_467\n      jumpi\n        /* \"#utility.yul\":12219:12220   */\n      0x00\n        /* \"#utility.yul\":12210:12220   */\n      swap1\n      pop\n        /* \"#utility.yul\":12221:12226   */\n      jump(tag_465)\n        /* \"#utility.yul\":12192:12228   */\n    tag_467:\n        /* \"#utility.yul\":12288:12292   */\n      dup2\n        /* \"#utility.yul\":12336:12337   */\n      0x01\n        /* \"#utility.yul\":12331:12358   */\n      dup2\n      eq\n      tag_469\n      jumpi\n        /* \"#utility.yul\":12372:12373   */\n      0x02\n        /* \"#utility.yul\":12367:12558   */\n      dup2\n      eq\n      tag_470\n      jumpi\n        /* \"#utility.yul\":12281:12558   */\n      jump(tag_468)\n        /* \"#utility.yul\":12331:12358   */\n    tag_469:\n        /* \"#utility.yul\":12349:12350   */\n      0x01\n        /* \"#utility.yul\":12340:12350   */\n      swap2\n      pop\n        /* \"#utility.yul\":12351:12356   */\n      pop\n      jump(tag_465)\n        /* \"#utility.yul\":12367:12558   */\n    tag_470:\n        /* \"#utility.yul\":12412:12415   */\n      0xff\n        /* \"#utility.yul\":12402:12410   */\n      dup5\n        /* \"#utility.yul\":12399:12416   */\n      gt\n        /* \"#utility.yul\":12396:12439   */\n      iszero\n      tag_471\n      jumpi\n        /* \"#utility.yul\":12419:12437   */\n      tag_472\n      tag_320\n      jump\t// in\n    tag_472:\n        /* \"#utility.yul\":12396:12439   */\n    tag_471:\n        /* \"#utility.yul\":12468:12476   */\n      dup4\n        /* \"#utility.yul\":12465:12466   */\n      0x02\n        /* \"#utility.yul\":12461:12477   */\n      exp\n        /* \"#utility.yul\":12452:12477   */\n      swap2\n      pop\n        /* \"#utility.yul\":12503:12506   */\n      dup5\n        /* \"#utility.yul\":12496:12501   */\n      dup3\n        /* \"#utility.yul\":12493:12507   */\n      gt\n        /* \"#utility.yul\":12490:12530   */\n      iszero\n      tag_473\n      jumpi\n        /* \"#utility.yul\":12510:12528   */\n      tag_474\n      tag_320\n      jump\t// in\n    tag_474:\n        /* \"#utility.yul\":12490:12530   */\n    tag_473:\n        /* \"#utility.yul\":12543:12548   */\n      pop\n      jump(tag_465)\n        /* \"#utility.yul\":12281:12558   */\n    tag_468:\n      pop\n        /* \"#utility.yul\":12667:12669   */\n      0x20\n        /* \"#utility.yul\":12657:12665   */\n      dup4\n        /* \"#utility.yul\":12654:12670   */\n      lt\n        /* \"#utility.yul\":12648:12651   */\n      0x0133\n        /* \"#utility.yul\":12642:12646   */\n      dup4\n        /* \"#utility.yul\":12639:12652   */\n      lt\n        /* \"#utility.yul\":12635:12671   */\n      and\n        /* \"#utility.yul\":12617:12619   */\n      0x4e\n        /* \"#utility.yul\":12607:12615   */\n      dup5\n        /* \"#utility.yul\":12604:12620   */\n      lt\n        /* \"#utility.yul\":12599:12601   */\n      0x0b\n        /* \"#utility.yul\":12593:12597   */\n      dup5\n        /* \"#utility.yul\":12590:12602   */\n      lt\n        /* \"#utility.yul\":12586:12621   */\n      and\n        /* \"#utility.yul\":12570:12681   */\n      or\n        /* \"#utility.yul\":12567:12813   */\n      iszero\n      tag_475\n      jumpi\n        /* \"#utility.yul\":12723:12731   */\n      dup3\n        /* \"#utility.yul\":12717:12721   */\n      dup3\n        /* \"#utility.yul\":12713:12732   */\n      exp\n        /* \"#utility.yul\":12704:12732   */\n      swap1\n      pop\n        /* \"#utility.yul\":12758:12761   */\n      dup4\n        /* \"#utility.yul\":12751:12756   */\n      dup2\n        /* \"#utility.yul\":12748:12762   */\n      gt\n        /* \"#utility.yul\":12745:12785   */\n      iszero\n      tag_476\n      jumpi\n        /* \"#utility.yul\":12765:12783   */\n      tag_477\n      tag_320\n      jump\t// in\n    tag_477:\n        /* \"#utility.yul\":12745:12785   */\n    tag_476:\n        /* \"#utility.yul\":12798:12803   */\n      jump(tag_465)\n        /* \"#utility.yul\":12567:12813   */\n    tag_475:\n        /* \"#utility.yul\":12838:12880   */\n      tag_478\n        /* \"#utility.yul\":12876:12879   */\n      dup5\n        /* \"#utility.yul\":12866:12874   */\n      dup5\n        /* \"#utility.yul\":12860:12864   */\n      dup5\n        /* \"#utility.yul\":12857:12858   */\n      0x01\n        /* \"#utility.yul\":12838:12880   */\n      tag_322\n      jump\t// in\n    tag_478:\n        /* \"#utility.yul\":12823:12880   */\n      swap3\n      pop\n      swap1\n      pop\n        /* \"#utility.yul\":12912:12916   */\n      dup2\n        /* \"#utility.yul\":12907:12910   */\n      dup5\n        /* \"#utility.yul\":12903:12917   */\n      div\n        /* \"#utility.yul\":12896:12901   */\n      dup2\n        /* \"#utility.yul\":12893:12918   */\n      gt\n        /* \"#utility.yul\":12890:12941   */\n      iszero\n      tag_479\n      jumpi\n        /* \"#utility.yul\":12921:12939   */\n      tag_480\n      tag_320\n      jump\t// in\n    tag_480:\n        /* \"#utility.yul\":12890:12941   */\n    tag_479:\n        /* \"#utility.yul\":12970:12974   */\n      dup2\n        /* \"#utility.yul\":12963:12968   */\n      dup2\n        /* \"#utility.yul\":12959:12975   */\n      mul\n        /* \"#utility.yul\":12950:12975   */\n      swap1\n      pop\n        /* \"#utility.yul\":11908:12981   */\n    tag_465:\n      swap4\n      swap3\n      pop\n      pop\n      pop\n      jump\t// out\n        /* \"#utility.yul\":12987:13268   */\n    tag_162:\n        /* \"#utility.yul\":13045:13050   */\n      0x00\n        /* \"#utility.yul\":13069:13092   */\n      tag_482\n        /* \"#utility.yul\":13087:13091   */\n      dup3\n        /* \"#utility.yul\":13069:13092   */\n      tag_306\n      jump\t// in\n    tag_482:\n        /* \"#utility.yul\":13061:13092   */\n      swap2\n      pop\n        /* \"#utility.yul\":13113:13138   */\n      tag_483\n        /* \"#utility.yul\":13129:13137   */\n      dup4\n        /* \"#utility.yul\":13113:13138   */\n      tag_314\n      jump\t// in\n    tag_483:\n        /* \"#utility.yul\":13101:13138   */\n      swap3\n      pop\n        /* \"#utility.yul\":13157:13261   */\n      tag_484\n        /* \"#utility.yul\":13194:13260   */\n      0xffffffffffffffffffffffffffffffffffffffffffffffffffffffffffffffff\n        /* \"#utility.yul\":13184:13192   */\n      dup5\n        /* \"#utility.yul\":13178:13182   */\n      dup5\n        /* \"#utility.yul\":13157:13261   */\n      tag_323\n      jump\t// in\n    tag_484:\n        /* \"#utility.yul\":13148:13261   */\n      swap1\n      pop\n        /* \"#utility.yul\":12987:13268   */\n      swap3\n      swap2\n      pop\n      pop\n      jump\t// out\n        /* \"#utility.yul\":13274:13684   */\n    tag_164:\n        /* \"#utility.yul\":13314:13321   */\n      0x00\n        /* \"#utility.yul\":13337:13357   */\n      tag_486\n        /* \"#utility.yul\":13355:13356   */\n      dup3\n        /* \"#utility.yul\":13337:13357   */\n      tag_306\n      jump\t// in\n    tag_486:\n        /* \"#utility.yul\":13332:13357   */\n      swap2\n      pop\n        /* \"#utility.yul\":13371:13391   */\n      tag_487\n        /* \"#utility.yul\":13389:13390   */\n      dup4\n        /* \"#utility.yul\":13371:13391   */\n      tag_306\n      jump\t// in\n    tag_487:\n        /* \"#utility.yul\":13366:13391   */\n      swap3\n      pop\n        /* \"#utility.yul\":13426:13427   */\n      dup3\n        /* \"#utility.yul\":13423:13424   */\n      dup3\n        /* \"#utility.yul\":13419:13428   */\n      mul\n        /* \"#utility.yul\":13448:13478   */\n      tag_488\n        /* \"#utility.yul\":13466:13477   */\n      dup2\n        /* \"#utility.yul\":13448:13478   */\n      tag_306\n      jump\t// in\n    tag_488:\n        /* \"#utility.yul\":13437:13478   */\n      swap2\n      pop\n        /* \"#utility.yul\":13627:13628   */\n      dup3\n        /* \"#utility.yul\":13618:13625   */\n      dup3\n        /* \"#utility.yul\":13614:13629   */\n      div\n        /* \"#utility.yul\":13611:13612   */\n      dup5\n        /* \"#utility.yul\":13608:13630   */\n      eq\n        /* \"#utility.yul\":13588:13589   */\n      dup4\n        /* \"#utility.yul\":13581:13590   */\n      iszero\n        /* \"#utility.yul\":13561:13644   */\n      or\n        /* \"#utility.yul\":13538:13677   */\n      tag_489\n      jumpi\n        /* \"#utility.yul\":13657:13675   */\n      tag_490\n      tag_320\n      jump\t// in\n    tag_490:\n        /* \"#utility.yul\":13538:13677   */\n    tag_489:\n        /* \"#utility.yul\":13322:13684   */\n      pop\n        /* \"#utility.yul\":13274:13684   */\n      swap3\n      swap2\n      pop\n      pop\n      jump\t// out\n        /* \"#utility.yul\":13690:13808   */\n    tag_324:\n        /* \"#utility.yul\":13777:13801   */\n      tag_492\n        /* \"#utility.yul\":13795:13800   */\n      dup2\n        /* \"#utility.yul\":13777:13801   */\n      tag_303\n      jump\t// in\n    tag_492:\n        /* \"#utility.yul\":13772:13775   */\n      dup3\n        /* \"#utility.yul\":13765:13802   */\n      mstore\n        /* \"#utility.yul\":13690:13808   */\n      pop\n      pop\n      jump\t// out\n        /* \"#utility.yul\":13814:13992   */\n    tag_325:\n        /* \"#utility.yul\":13954:13984   */\n      0x50697a7a6120507572636861736564205375636365737366756c6c7900000000\n        /* \"#utility.yul\":13950:13951   */\n      0x00\n        /* \"#utility.yul\":13942:13948   */\n      dup3\n        /* \"#utility.yul\":13938:13952   */\n      add\n        /* \"#utility.yul\":13931:13985   */\n      mstore\n        /* \"#utility.yul\":13814:13992   */\n      pop\n      jump\t// out\n        /* \"#utility.yul\":13998:14364   */\n    tag_326:\n        /* \"#utility.yul\":14140:14143   */\n      0x00\n        /* \"#utility.yul\":14161:14228   */\n      tag_495\n        /* \"#utility.yul\":14225:14227   */\n      0x1c\n        /* \"#utility.yul\":14220:14223   */\n      dup4\n        /* \"#utility.yul\":14161:14228   */\n      tag_298\n      jump\t// in\n    tag_495:\n        /* \"#utility.yul\":14154:14228   */\n      swap2\n      pop\n        /* \"#utility.yul\":14237:14330   */\n      tag_496\n        /* \"#utility.yul\":14326:14329   */\n      dup3\n        /* \"#utility.yul\":14237:14330   */\n      tag_325\n      jump\t// in\n    tag_496:\n        /* \"#utility.yul\":14355:14357   */\n      0x20\n        /* \"#utility.yul\":14350:14353   */\n      dup3\n        /* \"#utility.yul\":14346:14358   */\n      add\n        /* \"#utility.yul\":14339:14358   */\n      swap1\n      pop\n        /* \"#utility.yul\":13998:14364   */\n      swap2\n      swap1\n      pop\n      jump\t// out\n        /* \"#utility.yul\":14370:14899   */\n    tag_168:\n        /* \"#utility.yul\":14564:14568   */\n      0x00\n        /* \"#utility.yul\":14602:14604   */\n      0x40\n        /* \"#utility.yul\":14591:14600   */\n      dup3\n        /* \"#utility.yul\":14587:14605   */\n      add\n        /* \"#utility.yul\":14579:14605   */\n      swap1\n      pop\n        /* \"#utility.yul\":14615:14686   */\n      tag_498\n        /* \"#utility.yul\":14683:14684   */\n      0x00\n        /* \"#utility.yul\":14672:14681   */\n      dup4\n        /* \"#utility.yul\":14668:14685   */\n      add\n        /* \"#utility.yul\":14659:14665   */\n      dup5\n        /* \"#utility.yul\":14615:14686   */\n      tag_324\n      jump\t// in\n    tag_498:\n        /* \"#utility.yul\":14733:14742   */\n      dup2\n        /* \"#utility.yul\":14727:14731   */\n      dup2\n        /* \"#utility.yul\":14723:14743   */\n      sub\n        /* \"#utility.yul\":14718:14720   */\n      0x20\n        /* \"#utility.yul\":14707:14716   */\n      dup4\n        /* \"#utility.yul\":14703:14721   */\n      add\n        /* \"#utility.yul\":14696:14744   */\n      mstore\n        /* \"#utility.yul\":14761:14892   */\n      tag_499\n        /* \"#utility.yul\":14887:14891   */\n      dup2\n        /* \"#utility.yul\":14761:14892   */\n      tag_326\n      jump\t// in\n    tag_499:\n        /* \"#utility.yul\":14753:14892   */\n      swap1\n      pop\n        /* \"#utility.yul\":14370:14899   */\n      swap3\n      swap2\n      pop\n      pop\n      jump\t// out\n        /* \"#utility.yul\":14905:15078   */\n    tag_327:\n        /* \"#utility.yul\":15045:15070   */\n      0x496e76616c6964205370656e6465722041646472657373000000000000000000\n        /* \"#utility.yul\":15041:15042   */\n      0x00\n        /* \"#utility.yul\":15033:15039   */\n      dup3\n        /* \"#utility.yul\":15029:15043   */\n      add\n        /* \"#utility.yul\":15022:15071   */\n      mstore\n        /* \"#utility.yul\":14905:15078   */\n      pop\n      jump\t// out\n        /* \"#utility.yul\":15084:15450   */\n    tag_328:\n        /* \"#utility.yul\":15226:15229   */\n      0x00\n        /* \"#utility.yul\":15247:15314   */\n      tag_502\n        /* \"#utility.yul\":15311:15313   */\n      0x17\n        /* \"#utility.yul\":15306:15309   */\n      dup4\n        /* \"#utility.yul\":15247:15314   */\n      tag_298\n      jump\t// in\n    tag_502:\n        /* \"#utility.yul\":15240:15314   */\n      swap2\n      pop\n        /* \"#utility.yul\":15323:15416   */\n      tag_503\n        /* \"#utility.yul\":15412:15415   */\n      dup3\n        /* \"#utility.yul\":15323:15416   */\n      tag_327\n      jump\t// in\n    tag_503:\n        /* \"#utility.yul\":15441:15443   */\n      0x20\n        /* \"#utility.yul\":15436:15439   */\n      dup3\n        /* \"#utility.yul\":15432:15444   */\n      add\n        /* \"#utility.yul\":15425:15444   */\n      swap1\n      pop\n        /* \"#utility.yul\":15084:15450   */\n      swap2\n      swap1\n      pop\n      jump\t// out\n        /* \"#utility.yul\":15456:15875   */\n    tag_180:\n        /* \"#utility.yul\":15622:15626   */\n      0x00\n        /* \"#utility.yul\":15660:15662   */\n      0x20\n        /* \"#utility.yul\":15649:15658   */\n      dup3\n        /* \"#utility.yul\":15645:15663   */\n      add\n        /* \"#utility.yul\":15637:15663   */\n      swap1\n      pop\n        /* \"#utility.yul\":15709:15718   */\n      dup2\n        /* \"#utility.yul\":15703:15707   */\n      dup2\n        /* \"#utility.yul\":15699:15719   */\n      sub\n        /* \"#utility.yul\":15695:15696   */\n      0x00\n        /* \"#utility.yul\":15684:15693   */\n      dup4\n        /* \"#utility.yul\":15680:15697   */\n      add\n        /* \"#utility.yul\":15673:15720   */\n      mstore\n        /* \"#utility.yul\":15737:15868   */\n      tag_505\n        /* \"#utility.yul\":15863:15867   */\n      dup2\n        /* \"#utility.yul\":15737:15868   */\n      tag_328\n      jump\t// in\n    tag_505:\n        /* \"#utility.yul\":15729:15868   */\n      swap1\n      pop\n        /* \"#utility.yul\":15456:15875   */\n      swap2\n      swap1\n      pop\n      jump\t// out\n        /* \"#utility.yul\":15881:16055   */\n    tag_329:\n        /* \"#utility.yul\":16021:16047   */\n      0x496e76616c696420526563656976657220416464726573730000000000000000\n        /* \"#utility.yul\":16017:16018   */\n      0x00\n        /* \"#utility.yul\":16009:16015   */\n      dup3\n        /* \"#utility.yul\":16005:16019   */\n      add\n        /* \"#utility.yul\":15998:16048   */\n      mstore\n        /* \"#utility.yul\":15881:16055   */\n      pop\n      jump\t// out\n        /* \"#utility.yul\":16061:16427   */\n    tag_330:\n        /* \"#utility.yul\":16203:16206   */\n      0x00\n        /* \"#utility.yul\":16224:16291   */\n      tag_508\n        /* \"#utility.yul\":16288:16290   */\n      0x18\n        /* \"#utility.yul\":16283:16286   */\n      dup4\n        /* \"#utility.yul\":16224:16291   */\n      tag_298\n      jump\t// in\n    tag_508:\n        /* \"#utility.yul\":16217:16291   */\n      swap2\n      pop\n        /* \"#utility.yul\":16300:16393   */\n      tag_509\n        /* \"#utility.yul\":16389:16392   */\n      dup3\n        /* \"#utility.yul\":16300:16393   */\n      tag_329\n      jump\t// in\n    tag_509:\n        /* \"#utility.yul\":16418:16420   */\n      0x20\n        /* \"#utility.yul\":16413:16416   */\n      dup3\n        /* \"#utility.yul\":16409:16421   */\n      add\n        /* \"#utility.yul\":16402:16421   */\n      swap1\n      pop\n        /* \"#utility.yul\":16061:16427   */\n      swap2\n      swap1\n      pop\n      jump\t// out\n        /* \"#utility.yul\":16433:16852   */\n    tag_183:\n        /* \"#utility.yul\":16599:16603   */\n      0x00\n        /* \"#utility.yul\":16637:16639   */\n      0x20\n        /* \"#utility.yul\":16626:16635   */\n      dup3\n        /* \"#utility.yul\":16622:16640   */\n      add\n        /* \"#utility.yul\":16614:16640   */\n      swap1\n      pop\n        /* \"#utility.yul\":16686:16695   */\n      dup2\n        /* \"#utility.yul\":16680:16684   */\n      dup2\n        /* \"#utility.yul\":16676:16696   */\n      sub\n        /* \"#utility.yul\":16672:16673   */\n      0x00\n        /* \"#utility.yul\":16661:16670   */\n      dup4\n        /* \"#utility.yul\":16657:16674   */\n      add\n        /* \"#utility.yul\":16650:16697   */\n      mstore\n        /* \"#utility.yul\":16714:16845   */\n      tag_511\n        /* \"#utility.yul\":16840:16844   */\n      dup2\n        /* \"#utility.yul\":16714:16845   */\n      tag_330\n      jump\t// in\n    tag_511:\n        /* \"#utility.yul\":16706:16845   */\n      swap1\n      pop\n        /* \"#utility.yul\":16433:16852   */\n      swap2\n      swap1\n      pop\n      jump\t// out\n        /* \"#utility.yul\":16858:17081   */\n    tag_331:\n        /* \"#utility.yul\":16998:17032   */\n      0x746f6b656e206d696e746564205375636365737366756c6c7920746f20416363\n        /* \"#utility.yul\":16994:16995   */\n      0x00\n        /* \"#utility.yul\":16986:16992   */\n      dup3\n        /* \"#utility.yul\":16982:16996   */\n      add\n        /* \"#utility.yul\":16975:17033   */\n      mstore\n        /* \"#utility.yul\":17067:17073   */\n      0x6f756e7400000000000000000000000000000000000000000000000000000000\n        /* \"#utility.yul\":17062:17064   */\n      0x20\n        /* \"#utility.yul\":17054:17060   */\n      dup3\n        /* \"#utility.yul\":17050:17065   */\n      add\n        /* \"#utility.yul\":17043:17074   */\n      mstore\n        /* \"#utility.yul\":16858:17081   */\n      pop\n      jump\t// out\n        /* \"#utility.yul\":17087:17453   */\n    tag_332:\n        /* \"#utility.yul\":17229:17232   */\n      0x00\n        /* \"#utility.yul\":17250:17317   */\n      tag_514\n        /* \"#utility.yul\":17314:17316   */\n      0x24\n        /* \"#utility.yul\":17309:17312   */\n      dup4\n        /* \"#utility.yul\":17250:17317   */\n      tag_298\n      jump\t// in\n    tag_514:\n        /* \"#utility.yul\":17243:17317   */\n      swap2\n      pop\n        /* \"#utility.yul\":17326:17419   */\n      tag_515\n        /* \"#utility.yul\":17415:17418   */\n      dup3\n        /* \"#utility.yul\":17326:17419   */\n      tag_331\n      jump\t// in\n    tag_515:\n        /* \"#utility.yul\":17444:17446   */\n      0x40\n        /* \"#utility.yul\":17439:17442   */\n      dup3\n        /* \"#utility.yul\":17435:17447   */\n      add\n        /* \"#utility.yul\":17428:17447   */\n      swap1\n      pop\n        /* \"#utility.yul\":17087:17453   */\n      swap2\n      swap1\n      pop\n      jump\t// out\n        /* \"#utility.yul\":17459:18098   */\n    tag_207:\n        /* \"#utility.yul\":17681:17685   */\n      0x00\n        /* \"#utility.yul\":17719:17721   */\n      0x60\n        /* \"#utility.yul\":17708:17717   */\n      dup3\n        /* \"#utility.yul\":17704:17722   */\n      add\n        /* \"#utility.yul\":17696:17722   */\n      swap1\n      pop\n        /* \"#utility.yul\":17732:17803   */\n      tag_517\n        /* \"#utility.yul\":17800:17801   */\n      0x00\n        /* \"#utility.yul\":17789:17798   */\n      dup4\n        /* \"#utility.yul\":17785:17802   */\n      add\n        /* \"#utility.yul\":17776:17782   */\n      dup6\n        /* \"#utility.yul\":17732:17803   */\n      tag_324\n      jump\t// in\n    tag_517:\n        /* \"#utility.yul\":17850:17859   */\n      dup2\n        /* \"#utility.yul\":17844:17848   */\n      dup2\n        /* \"#utility.yul\":17840:17860   */\n      sub\n        /* \"#utility.yul\":17835:17837   */\n      0x20\n        /* \"#utility.yul\":17824:17833   */\n      dup4\n        /* \"#utility.yul\":17820:17838   */\n      add\n        /* \"#utility.yul\":17813:17861   */\n      mstore\n        /* \"#utility.yul\":17878:18009   */\n      tag_518\n        /* \"#utility.yul\":18004:18008   */\n      dup2\n        /* \"#utility.yul\":17878:18009   */\n      tag_332\n      jump\t// in\n    tag_518:\n        /* \"#utility.yul\":17870:18009   */\n      swap1\n      pop\n        /* \"#utility.yul\":18019:18091   */\n      tag_519\n        /* \"#utility.yul\":18087:18089   */\n      0x40\n        /* \"#utility.yul\":18076:18085   */\n      dup4\n        /* \"#utility.yul\":18072:18090   */\n      add\n        /* \"#utility.yul\":18063:18069   */\n      dup5\n        /* \"#utility.yul\":18019:18091   */\n      tag_309\n      jump\t// in\n    tag_519:\n        /* \"#utility.yul\":17459:18098   */\n      swap4\n      swap3\n      pop\n      pop\n      pop\n      jump\t// out\n        /* \"#utility.yul\":18104:18546   */\n    tag_235:\n        /* \"#utility.yul\":18253:18257   */\n      0x00\n        /* \"#utility.yul\":18291:18293   */\n      0x60\n        /* \"#utility.yul\":18280:18289   */\n      dup3\n        /* \"#utility.yul\":18276:18294   */\n      add\n        /* \"#utility.yul\":18268:18294   */\n      swap1\n      pop\n        /* \"#utility.yul\":18304:18375   */\n      tag_521\n        /* \"#utility.yul\":18372:18373   */\n      0x00\n        /* \"#utility.yul\":18361:18370   */\n      dup4\n        /* \"#utility.yul\":18357:18374   */\n      add\n        /* \"#utility.yul\":18348:18354   */\n      dup7\n        /* \"#utility.yul\":18304:18375   */\n      tag_324\n      jump\t// in\n    tag_521:\n        /* \"#utility.yul\":18385:18457   */\n      tag_522\n        /* \"#utility.yul\":18453:18455   */\n      0x20\n        /* \"#utility.yul\":18442:18451   */\n      dup4\n        /* \"#utility.yul\":18438:18456   */\n      add\n        /* \"#utility.yul\":18429:18435   */\n      dup6\n        /* \"#utility.yul\":18385:18457   */\n      tag_309\n      jump\t// in\n    tag_522:\n        /* \"#utility.yul\":18467:18539   */\n      tag_523\n        /* \"#utility.yul\":18535:18537   */\n      0x40\n        /* \"#utility.yul\":18524:18533   */\n      dup4\n        /* \"#utility.yul\":18520:18538   */\n      add\n        /* \"#utility.yul\":18511:18517   */\n      dup5\n        /* \"#utility.yul\":18467:18539   */\n      tag_309\n      jump\t// in\n    tag_523:\n        /* \"#utility.yul\":18104:18546   */\n      swap5\n      swap4\n      pop\n      pop\n      pop\n      pop\n      jump\t// out\n        /* \"#utility.yul\":18552:18774   */\n    tag_240:\n        /* \"#utility.yul\":18645:18649   */\n      0x00\n        /* \"#utility.yul\":18683:18685   */\n      0x20\n        /* \"#utility.yul\":18672:18681   */\n      dup3\n        /* \"#utility.yul\":18668:18686   */\n      add\n        /* \"#utility.yul\":18660:18686   */\n      swap1\n      pop\n        /* \"#utility.yul\":18696:18767   */\n      tag_525\n        /* \"#utility.yul\":18764:18765   */\n      0x00\n        /* \"#utility.yul\":18753:18762   */\n      dup4\n        /* \"#utility.yul\":18749:18766   */\n      add\n        /* \"#utility.yul\":18740:18746   */\n      dup5\n        /* \"#utility.yul\":18696:18767   */\n      tag_324\n      jump\t// in\n    tag_525:\n        /* \"#utility.yul\":18552:18774   */\n      swap3\n      swap2\n      pop\n      pop\n      jump\t// out\n        /* \"#utility.yul\":18780:18971   */\n    tag_277:\n        /* \"#utility.yul\":18820:18823   */\n      0x00\n        /* \"#utility.yul\":18839:18859   */\n      tag_527\n        /* \"#utility.yul\":18857:18858   */\n      dup3\n        /* \"#utility.yul\":18839:18859   */\n      tag_306\n      jump\t// in\n    tag_527:\n        /* \"#utility.yul\":18834:18859   */\n      swap2\n      pop\n        /* \"#utility.yul\":18873:18893   */\n      tag_528\n        /* \"#utility.yul\":18891:18892   */\n      dup4\n        /* \"#utility.yul\":18873:18893   */\n      tag_306\n      jump\t// in\n    tag_528:\n        /* \"#utility.yul\":18868:18893   */\n      swap3\n      pop\n        /* \"#utility.yul\":18916:18917   */\n      dup3\n        /* \"#utility.yul\":18913:18914   */\n      dup3\n        /* \"#utility.yul\":18909:18918   */\n      add\n        /* \"#utility.yul\":18902:18918   */\n      swap1\n      pop\n        /* \"#utility.yul\":18937:18940   */\n      dup1\n        /* \"#utility.yul\":18934:18935   */\n      dup3\n        /* \"#utility.yul\":18931:18941   */\n      gt\n        /* \"#utility.yul\":18928:18964   */\n      iszero\n      tag_529\n      jumpi\n        /* \"#utility.yul\":18944:18962   */\n      tag_530\n      tag_320\n      jump\t// in\n    tag_530:\n        /* \"#utility.yul\":18928:18964   */\n    tag_529:\n        /* \"#utility.yul\":18780:18971   */\n      swap3\n      swap2\n      pop\n      pop\n      jump\t// out\n        /* \"#utility.yul\":18977:19309   */\n    tag_288:\n        /* \"#utility.yul\":19098:19102   */\n      0x00\n        /* \"#utility.yul\":19136:19138   */\n      0x40\n        /* \"#utility.yul\":19125:19134   */\n      dup3\n        /* \"#utility.yul\":19121:19139   */\n      add\n        /* \"#utility.yul\":19113:19139   */\n      swap1\n      pop\n        /* \"#utility.yul\":19149:19220   */\n      tag_532\n        /* \"#utility.yul\":19217:19218   */\n      0x00\n        /* \"#utility.yul\":19206:19215   */\n      dup4\n        /* \"#utility.yul\":19202:19219   */\n      add\n        /* \"#utility.yul\":19193:19199   */\n      dup6\n        /* \"#utility.yul\":19149:19220   */\n      tag_324\n      jump\t// in\n    tag_532:\n        /* \"#utility.yul\":19230:19302   */\n      tag_533\n        /* \"#utility.yul\":19298:19300   */\n      0x20\n        /* \"#utility.yul\":19287:19296   */\n      dup4\n        /* \"#utility.yul\":19283:19301   */\n      add\n        /* \"#utility.yul\":19274:19280   */\n      dup5\n        /* \"#utility.yul\":19230:19302   */\n      tag_313\n      jump\t// in\n    tag_533:\n        /* \"#utility.yul\":18977:19309   */\n      swap4\n      swap3\n      pop\n      pop\n      pop\n      jump\t// out\n\n    auxdata: 0xa26469706673582212208980a4b61818c78e406c5040448ebee421af4c3a181fbfe3c9876faf4e9fae4d64736f6c63430008160033\n}\n",
				"bytecode": {
					"linkReferences": {},
					"object": "608060405234801562000010575f80fd5b506040518060400160405280600f81526020017f50697a7a614269746573546f6b656e00000000000000000000000000000000008152506040518060400160405280600381526020017f504254000000000000000000000000000000000000000000000000000000000081525081600390816200008e91906200055e565b508060049081620000a091906200055e565b505050620000c65f801b620000ba6200019360201b60201c565b6200019a60201b60201c565b50620001087f9f2df0fed2c77648de5860a4cc508cd0818c85b8b8a1ab4ceeef8d981c8956a6620000fc6200019360201b60201c565b6200019a60201b60201c565b506200014a7f3c11d16cbaffd01df69ce1c404f6340ee057498f5f00246190ea54220576a8486200013e6200019360201b60201c565b6200019a60201b60201c565b506200018c7fb385ebd07b20f317b5bf0dda1a7179a9d0de6f45757e4ce90c508fdba4c9c831620001806200019360201b60201c565b6200019a60201b60201c565b5062000642565b5f33905090565b5f620001ad83836200029660201b60201c565b6200028c57600160055f8581526020019081526020015f205f015f8473ffffffffffffffffffffffffffffffffffffffff1673ffffffffffffffffffffffffffffffffffffffff1681526020019081526020015f205f6101000a81548160ff021916908315150217905550620002286200019360201b60201c565b73ffffffffffffffffffffffffffffffffffffffff168273ffffffffffffffffffffffffffffffffffffffff16847f2f8788117e7eff1d82e926ec794901d17c78024a50270940304540a733656f0d60405160405180910390a46001905062000290565b5f90505b92915050565b5f60055f8481526020019081526020015f205f015f8373ffffffffffffffffffffffffffffffffffffffff1673ffffffffffffffffffffffffffffffffffffffff1681526020019081526020015f205f9054906101000a900460ff16905092915050565b5f81519050919050565b7f4e487b71000000000000000000000000000000000000000000000000000000005f52604160045260245ffd5b7f4e487b71000000000000000000000000000000000000000000000000000000005f52602260045260245ffd5b5f60028204905060018216806200037657607f821691505b6020821081036200038c576200038b62000331565b5b50919050565b5f819050815f5260205f209050919050565b5f6020601f8301049050919050565b5f82821b905092915050565b5f60088302620003f07fffffffffffffffffffffffffffffffffffffffffffffffffffffffffffffffff82620003b3565b620003fc8683620003b3565b95508019841693508086168417925050509392505050565b5f819050919050565b5f819050919050565b5f62000446620004406200043a8462000414565b6200041d565b62000414565b9050919050565b5f819050919050565b620004618362000426565b6200047962000470826200044d565b848454620003bf565b825550505050565b5f90565b6200048f62000481565b6200049c81848462000456565b505050565b5b81811015620004c357620004b75f8262000485565b600181019050620004a2565b5050565b601f8211156200051257620004dc8162000392565b620004e784620003a4565b81016020851015620004f7578190505b6200050f6200050685620003a4565b830182620004a1565b50505b505050565b5f82821c905092915050565b5f620005345f198460080262000517565b1980831691505092915050565b5f6200054e838362000523565b9150826002028217905092915050565b6200056982620002fa565b67ffffffffffffffff81111562000585576200058462000304565b5b6200059182546200035e565b6200059e828285620004c7565b5f60209050601f831160018114620005d4575f8415620005bf578287015190505b620005cb858262000541565b8655506200063a565b601f198416620005e48662000392565b5f5b828110156200060d57848901518255600182019150602085019450602081019050620005e6565b868310156200062d578489015162000629601f89168262000523565b8355505b6001600288020188555050505b505050505050565b61204b80620006505f395ff3fe608060405234801561000f575f80fd5b506004361061014b575f3560e01c806336568abe116100c157806395d89b411161007a57806395d89b41146103c1578063a217fddf146103df578063a9059cbb146103fd578063d53913931461042d578063d547741f1461044b578063dd62ed3e146104675761014b565b806336568abe146102ef57806340bed3641461030b57806340c10f19146103275780636b5d9a811461034357806370a082311461036157806391d14854146103915761014b565b806323b872dd1161011357806323b872dd1461021b578063248a9ca31461024b578063282c51f31461027b5780632f2ff15d146102995780633125e46e146102b5578063313ce567146102d15761014b565b806301ffc9a71461014f57806306fdde031461017f578063095ea7b31461019d578063122faf73146101cd57806318160ddd146101fd575b5f80fd5b6101696004803603810190610164919061163e565b610497565b6040516101769190611683565b60405180910390f35b610187610510565b6040516101949190611726565b60405180910390f35b6101b760048036038101906101b291906117d3565b6105a0565b6040516101c49190611683565b60405180910390f35b6101e760048036038101906101e29190611811565b6105c2565b6040516101f4919061184b565b60405180910390f35b6102056105d7565b604051610212919061184b565b60405180910390f35b61023560048036038101906102309190611864565b6105e0565b6040516102429190611683565b60405180910390f35b610265600480360381019061026091906118e7565b61060e565b6040516102729190611921565b60405180910390f35b61028361062b565b6040516102909190611921565b60405180910390f35b6102b360048036038101906102ae919061193a565b61064f565b005b6102cf60048036038101906102ca9190611978565b610671565b005b6102d961072f565b6040516102e691906119be565b60405180910390f35b6103096004803603810190610304919061193a565b610737565b005b610325600480360381019061032091906119d7565b6107b2565b005b610341600480360381019061033c91906117d3565b610917565b005b61034b610a75565b6040516103589190611921565b60405180910390f35b61037b60048036038101906103769190611811565b610a99565b604051610388919061184b565b60405180910390f35b6103ab60048036038101906103a6919061193a565b610ade565b6040516103b89190611683565b60405180910390f35b6103c9610b42565b6040516103d69190611726565b60405180910390f35b6103e7610bd2565b6040516103f49190611921565b60405180910390f35b610417600480360381019061041291906117d3565b610bd8565b6040516104249190611683565b60405180910390f35b610435610bfa565b6040516104429190611921565b60405180910390f35b6104656004803603810190610460919061193a565b610c1e565b005b610481600480360381019061047c9190611a27565b610c40565b60405161048e919061184b565b60405180910390f35b5f7f7965db0b000000000000000000000000000000000000000000000000000000007bffffffffffffffffffffffffffffffffffffffffffffffffffffffff1916827bffffffffffffffffffffffffffffffffffffffffffffffffffffffff19161480610509575061050882610cc2565b5b9050919050565b60606003805461051f90611a92565b80601f016020809104026020016040519081016040528092919081815260200182805461054b90611a92565b80156105965780601f1061056d57610100808354040283529160200191610596565b820191905f5260205f20905b81548152906001019060200180831161057957829003601f168201915b5050505050905090565b5f806105aa610d2b565b90506105b7818585610d32565b600191505092915050565b6006602052805f5260405f205f915090505481565b5f600254905090565b5f806105ea610d2b565b90506105f7858285610d44565b610602858585610dd6565b60019150509392505050565b5f60055f8381526020019081526020015f20600101549050919050565b7f3c11d16cbaffd01df69ce1c404f6340ee057498f5f00246190ea54220576a84881565b6106588261060e565b61066181610ec6565b61066b8383610eda565b50505050565b5f60018261067f9190611aef565b146106bf576040517f08c379a00000000000000000000000000000000000000000000000000000000081526004016106b690611b69565b60405180910390fd5b6106ee6106ca610d2b565b6106d261072f565b600a6106de9190611ce3565b836106e99190611d2d565b610fc4565b7fe0184e9da0b5777a2034c85208086829eed207b92dc7df8d3084e70420ae9bc4610717610d2b565b6040516107249190611dc7565b60405180910390a150565b5f6012905090565b61073f610d2b565b73ffffffffffffffffffffffffffffffffffffffff168173ffffffffffffffffffffffffffffffffffffffff16146107a3576040517f6697b23200000000000000000000000000000000000000000000000000000000815260040160405180910390fd5b6107ad8282611043565b505050565b7fb385ebd07b20f317b5bf0dda1a7179a9d0de6f45757e4ce90c508fdba4c9c8316107dc81610ec6565b5f73ffffffffffffffffffffffffffffffffffffffff168473ffffffffffffffffffffffffffffffffffffffff160361084a576040517f08c379a000000000000000000000000000000000000000000000000000000000815260040161084190611e3d565b60405180910390fd5b5f73ffffffffffffffffffffffffffffffffffffffff168273ffffffffffffffffffffffffffffffffffffffff16036108b8576040517f08c379a00000000000000000000000000000000000000000000000000000000081526004016108af90611ea5565b60405180910390fd5b6108e86108c3610d2b565b856108cc61072f565b600a6108d89190611ce3565b866108e39190611d2d565b610d44565b61091184836108f561072f565b600a6109019190611ce3565b8661090c9190611d2d565b610dd6565b50505050565b7f9f2df0fed2c77648de5860a4cc508cd0818c85b8b8a1ab4ceeef8d981c8956a661094181610ec6565b5f73ffffffffffffffffffffffffffffffffffffffff168373ffffffffffffffffffffffffffffffffffffffff16036109af576040517f08c379a00000000000000000000000000000000000000000000000000000000081526004016109a690611e3d565b60405180910390fd5b6109d7836109bb61072f565b600a6109c79190611ce3565b846109d29190611d2d565b61112d565b6109df61072f565b600a6109eb9190611ce3565b826109f69190611d2d565b60065f8573ffffffffffffffffffffffffffffffffffffffff1673ffffffffffffffffffffffffffffffffffffffff1681526020019081526020015f20819055507f437f7339f84aadee9f304ad10a1accd10edee7bf72816f9100da902356bd23188383604051610a68929190611f33565b60405180910390a1505050565b7fb385ebd07b20f317b5bf0dda1a7179a9d0de6f45757e4ce90c508fdba4c9c83181565b5f805f8373ffffffffffffffffffffffffffffffffffffffff1673ffffffffffffffffffffffffffffffffffffffff1681526020019081526020015f20549050919050565b5f60055f8481526020019081526020015f205f015f8373ffffffffffffffffffffffffffffffffffffffff1673ffffffffffffffffffffffffffffffffffffffff1681526020019081526020015f205f9054906101000a900460ff16905092915050565b606060048054610b5190611a92565b80601f0160208091040260200160405190810160405280929190818152602001828054610b7d90611a92565b8015610bc85780601f10610b9f57610100808354040283529160200191610bc8565b820191905f5260205f20905b815481529060010190602001808311610bab57829003601f168201915b5050505050905090565b5f801b81565b5f80610be2610d2b565b9050610bef818585610dd6565b600191505092915050565b7f9f2df0fed2c77648de5860a4cc508cd0818c85b8b8a1ab4ceeef8d981c8956a681565b610c278261060e565b610c3081610ec6565b610c3a8383611043565b50505050565b5f60015f8473ffffffffffffffffffffffffffffffffffffffff1673ffffffffffffffffffffffffffffffffffffffff1681526020019081526020015f205f8373ffffffffffffffffffffffffffffffffffffffff1673ffffffffffffffffffffffffffffffffffffffff1681526020019081526020015f2054905092915050565b5f7f01ffc9a7000000000000000000000000000000000000000000000000000000007bffffffffffffffffffffffffffffffffffffffffffffffffffffffff1916827bffffffffffffffffffffffffffffffffffffffffffffffffffffffff1916149050919050565b5f33905090565b610d3f83838360016111ac565b505050565b5f610d4f8484610c40565b90507fffffffffffffffffffffffffffffffffffffffffffffffffffffffffffffffff8114610dd05781811015610dc1578281836040517ffb8f41b2000000000000000000000000000000000000000000000000000000008152600401610db893929190611f6d565b60405180910390fd5b610dcf84848484035f6111ac565b5b50505050565b5f73ffffffffffffffffffffffffffffffffffffffff168373ffffffffffffffffffffffffffffffffffffffff1603610e46575f6040517f96c6fd1e000000000000000000000000000000000000000000000000000000008152600401610e3d9190611fa2565b60405180910390fd5b5f73ffffffffffffffffffffffffffffffffffffffff168273ffffffffffffffffffffffffffffffffffffffff1603610eb6575f6040517fec442f05000000000000000000000000000000000000000000000000000000008152600401610ead9190611fa2565b60405180910390fd5b610ec183838361137b565b505050565b610ed781610ed2610d2b565b611594565b50565b5f610ee58383610ade565b610fba57600160055f8581526020019081526020015f205f015f8473ffffffffffffffffffffffffffffffffffffffff1673ffffffffffffffffffffffffffffffffffffffff1681526020019081526020015f205f6101000a81548160ff021916908315150217905550610f57610d2b565b73ffffffffffffffffffffffffffffffffffffffff168273ffffffffffffffffffffffffffffffffffffffff16847f2f8788117e7eff1d82e926ec794901d17c78024a50270940304540a733656f0d60405160405180910390a460019050610fbe565b5f90505b92915050565b5f73ffffffffffffffffffffffffffffffffffffffff168273ffffffffffffffffffffffffffffffffffffffff1603611034575f6040517f96c6fd1e00000000000000000000000000000000000000000000000000000000815260040161102b9190611fa2565b60405180910390fd5b61103f825f8361137b565b5050565b5f61104e8383610ade565b15611123575f60055f8581526020019081526020015f205f015f8473ffffffffffffffffffffffffffffffffffffffff1673ffffffffffffffffffffffffffffffffffffffff1681526020019081526020015f205f6101000a81548160ff0219169083151502179055506110c0610d2b565b73ffffffffffffffffffffffffffffffffffffffff168273ffffffffffffffffffffffffffffffffffffffff16847ff6391f5c32d9c69d2a47ea670b442974b53935d1edc7fd64eb21e047a839171b60405160405180910390a460019050611127565b5f90505b92915050565b5f73ffffffffffffffffffffffffffffffffffffffff168273ffffffffffffffffffffffffffffffffffffffff160361119d575f6040517fec442f050000000000000000000000000000000000000000000000000000000081526004016111949190611fa2565b60405180910390fd5b6111a85f838361137b565b5050565b5f73ffffffffffffffffffffffffffffffffffffffff168473ffffffffffffffffffffffffffffffffffffffff160361121c575f6040517fe602df050000000000000000000000000000000000000000000000000000000081526004016112139190611fa2565b60405180910390fd5b5f73ffffffffffffffffffffffffffffffffffffffff168373ffffffffffffffffffffffffffffffffffffffff160361128c575f6040517f94280d620000000000000000000000000000000000000000000000000000000081526004016112839190611fa2565b60405180910390fd5b8160015f8673ffffffffffffffffffffffffffffffffffffffff1673ffffffffffffffffffffffffffffffffffffffff1681526020019081526020015f205f8573ffffffffffffffffffffffffffffffffffffffff1673ffffffffffffffffffffffffffffffffffffffff1681526020019081526020015f20819055508015611375578273ffffffffffffffffffffffffffffffffffffffff168473ffffffffffffffffffffffffffffffffffffffff167f8c5be1e5ebec7d5bd14f71427d1e84f3dd0314c0f7b2291e5b200ac8c7c3b9258460405161136c919061184b565b60405180910390a35b50505050565b5f73ffffffffffffffffffffffffffffffffffffffff168373ffffffffffffffffffffffffffffffffffffffff16036113cb578060025f8282546113bf9190611fbb565b92505081905550611499565b5f805f8573ffffffffffffffffffffffffffffffffffffffff1673ffffffffffffffffffffffffffffffffffffffff1681526020019081526020015f2054905081811015611454578381836040517fe450d38c00000000000000000000000000000000000000000000000000000000815260040161144b93929190611f6d565b60405180910390fd5b8181035f808673ffffffffffffffffffffffffffffffffffffffff1673ffffffffffffffffffffffffffffffffffffffff1681526020019081526020015f2081905550505b5f73ffffffffffffffffffffffffffffffffffffffff168273ffffffffffffffffffffffffffffffffffffffff16036114e0578060025f828254039250508190555061152a565b805f808473ffffffffffffffffffffffffffffffffffffffff1673ffffffffffffffffffffffffffffffffffffffff1681526020019081526020015f205f82825401925050819055505b8173ffffffffffffffffffffffffffffffffffffffff168373ffffffffffffffffffffffffffffffffffffffff167fddf252ad1be2c89b69c2b068fc378daa952ba7f163c4a11628f55a4df523b3ef83604051611587919061184b565b60405180910390a3505050565b61159e8282610ade565b6115e15780826040517fe2517d3f0000000000000000000000000000000000000000000000000000000081526004016115d8929190611fee565b60405180910390fd5b5050565b5f80fd5b5f7fffffffff0000000000000000000000000000000000000000000000000000000082169050919050565b61161d816115e9565b8114611627575f80fd5b50565b5f8135905061163881611614565b92915050565b5f60208284031215611653576116526115e5565b5b5f6116608482850161162a565b91505092915050565b5f8115159050919050565b61167d81611669565b82525050565b5f6020820190506116965f830184611674565b92915050565b5f81519050919050565b5f82825260208201905092915050565b5f5b838110156116d35780820151818401526020810190506116b8565b5f8484015250505050565b5f601f19601f8301169050919050565b5f6116f88261169c565b61170281856116a6565b93506117128185602086016116b6565b61171b816116de565b840191505092915050565b5f6020820190508181035f83015261173e81846116ee565b905092915050565b5f73ffffffffffffffffffffffffffffffffffffffff82169050919050565b5f61176f82611746565b9050919050565b61177f81611765565b8114611789575f80fd5b50565b5f8135905061179a81611776565b92915050565b5f819050919050565b6117b2816117a0565b81146117bc575f80fd5b50565b5f813590506117cd816117a9565b92915050565b5f80604083850312156117e9576117e86115e5565b5b5f6117f68582860161178c565b9250506020611807858286016117bf565b9150509250929050565b5f60208284031215611826576118256115e5565b5b5f6118338482850161178c565b91505092915050565b611845816117a0565b82525050565b5f60208201905061185e5f83018461183c565b92915050565b5f805f6060848603121561187b5761187a6115e5565b5b5f6118888682870161178c565b93505060206118998682870161178c565b92505060406118aa868287016117bf565b9150509250925092565b5f819050919050565b6118c6816118b4565b81146118d0575f80fd5b50565b5f813590506118e1816118bd565b92915050565b5f602082840312156118fc576118fb6115e5565b5b5f611909848285016118d3565b91505092915050565b61191b816118b4565b82525050565b5f6020820190506119345f830184611912565b92915050565b5f80604083850312156119505761194f6115e5565b5b5f61195d858286016118d3565b925050602061196e8582860161178c565b9150509250929050565b5f6020828403121561198d5761198c6115e5565b5b5f61199a848285016117bf565b91505092915050565b5f60ff82169050919050565b6119b8816119a3565b82525050565b5f6020820190506119d15f8301846119af565b92915050565b5f805f606084860312156119ee576119ed6115e5565b5b5f6119fb8682870161178c565b9350506020611a0c868287016117bf565b9250506040611a1d8682870161178c565b9150509250925092565b5f8060408385031215611a3d57611a3c6115e5565b5b5f611a4a8582860161178c565b9250506020611a5b8582860161178c565b9150509250929050565b7f4e487b71000000000000000000000000000000000000000000000000000000005f52602260045260245ffd5b5f6002820490506001821680611aa957607f821691505b602082108103611abc57611abb611a65565b5b50919050565b7f4e487b71000000000000000000000000000000000000000000000000000000005f52601260045260245ffd5b5f611af9826117a0565b9150611b04836117a0565b925082611b1457611b13611ac2565b5b828206905092915050565b7f696e76616c69642050697a7a6120636f756e74000000000000000000000000005f82015250565b5f611b536013836116a6565b9150611b5e82611b1f565b602082019050919050565b5f6020820190508181035f830152611b8081611b47565b9050919050565b7f4e487b71000000000000000000000000000000000000000000000000000000005f52601160045260245ffd5b5f8160011c9050919050565b5f808291508390505b6001851115611c0957808604811115611be557611be4611b87565b5b6001851615611bf45780820291505b8081029050611c0285611bb4565b9450611bc9565b94509492505050565b5f82611c215760019050611cdc565b81611c2e575f9050611cdc565b8160018114611c445760028114611c4e57611c7d565b6001915050611cdc565b60ff841115611c6057611c5f611b87565b5b8360020a915084821115611c7757611c76611b87565b5b50611cdc565b5060208310610133831016604e8410600b8410161715611cb25782820a905083811115611cad57611cac611b87565b5b611cdc565b611cbf8484846001611bc0565b92509050818404811115611cd657611cd5611b87565b5b81810290505b9392505050565b5f611ced826117a0565b9150611cf8836119a3565b9250611d257fffffffffffffffffffffffffffffffffffffffffffffffffffffffffffffffff8484611c12565b905092915050565b5f611d37826117a0565b9150611d42836117a0565b9250828202611d50816117a0565b91508282048414831517611d6757611d66611b87565b5b5092915050565b611d7781611765565b82525050565b7f50697a7a6120507572636861736564205375636365737366756c6c79000000005f82015250565b5f611db1601c836116a6565b9150611dbc82611d7d565b602082019050919050565b5f604082019050611dda5f830184611d6e565b8181036020830152611deb81611da5565b905092915050565b7f496e76616c6964205370656e64657220416464726573730000000000000000005f82015250565b5f611e276017836116a6565b9150611e3282611df3565b602082019050919050565b5f6020820190508181035f830152611e5481611e1b565b9050919050565b7f496e76616c6964205265636569766572204164647265737300000000000000005f82015250565b5f611e8f6018836116a6565b9150611e9a82611e5b565b602082019050919050565b5f6020820190508181035f830152611ebc81611e83565b9050919050565b7f746f6b656e206d696e746564205375636365737366756c6c7920746f204163635f8201527f6f756e7400000000000000000000000000000000000000000000000000000000602082015250565b5f611f1d6024836116a6565b9150611f2882611ec3565b604082019050919050565b5f606082019050611f465f830185611d6e565b8181036020830152611f5781611f11565b9050611f66604083018461183c565b9392505050565b5f606082019050611f805f830186611d6e565b611f8d602083018561183c565b611f9a604083018461183c565b949350505050565b5f602082019050611fb55f830184611d6e565b92915050565b5f611fc5826117a0565b9150611fd0836117a0565b9250828201905080821115611fe857611fe7611b87565b5b92915050565b5f6040820190506120015f830185611d6e565b61200e6020830184611912565b939250505056fea26469706673582212208980a4b61818c78e406c5040448ebee421af4c3a181fbfe3c9876faf4e9fae4d64736f6c63430008160033",
					"opcodes": "PUSH1 0x80 PUSH1 0x40 MSTORE CALLVALUE DUP1 ISZERO PUSH3 0x10 JUMPI PUSH0 DUP1 REVERT JUMPDEST POP PUSH1 0x40 MLOAD DUP1 PUSH1 0x40 ADD PUSH1 0x40 MSTORE DUP1 PUSH1 0xF DUP2 MSTORE PUSH1 0x20 ADD PUSH32 0x50697A7A614269746573546F6B656E0000000000000000000000000000000000 DUP2 MSTORE POP PUSH1 0x40 MLOAD DUP1 PUSH1 0x40 ADD PUSH1 0x40 MSTORE DUP1 PUSH1 0x3 DUP2 MSTORE PUSH1 0x20 ADD PUSH32 0x5042540000000000000000000000000000000000000000000000000000000000 DUP2 MSTORE POP DUP2 PUSH1 0x3 SWAP1 DUP2 PUSH3 0x8E SWAP2 SWAP1 PUSH3 0x55E JUMP JUMPDEST POP DUP1 PUSH1 0x4 SWAP1 DUP2 PUSH3 0xA0 SWAP2 SWAP1 PUSH3 0x55E JUMP JUMPDEST POP POP POP PUSH3 0xC6 PUSH0 DUP1 SHL PUSH3 0xBA PUSH3 0x193 PUSH1 0x20 SHL PUSH1 0x20 SHR JUMP JUMPDEST PUSH3 0x19A PUSH1 0x20 SHL PUSH1 0x20 SHR JUMP JUMPDEST POP PUSH3 0x108 PUSH32 0x9F2DF0FED2C77648DE5860A4CC508CD0818C85B8B8A1AB4CEEEF8D981C8956A6 PUSH3 0xFC PUSH3 0x193 PUSH1 0x20 SHL PUSH1 0x20 SHR JUMP JUMPDEST PUSH3 0x19A PUSH1 0x20 SHL PUSH1 0x20 SHR JUMP JUMPDEST POP PUSH3 0x14A PUSH32 0x3C11D16CBAFFD01DF69CE1C404F6340EE057498F5F00246190EA54220576A848 PUSH3 0x13E PUSH3 0x193 PUSH1 0x20 SHL PUSH1 0x20 SHR JUMP JUMPDEST PUSH3 0x19A PUSH1 0x20 SHL PUSH1 0x20 SHR JUMP JUMPDEST POP PUSH3 0x18C PUSH32 0xB385EBD07B20F317B5BF0DDA1A7179A9D0DE6F45757E4CE90C508FDBA4C9C831 PUSH3 0x180 PUSH3 0x193 PUSH1 0x20 SHL PUSH1 0x20 SHR JUMP JUMPDEST PUSH3 0x19A PUSH1 0x20 SHL PUSH1 0x20 SHR JUMP JUMPDEST POP PUSH3 0x642 JUMP JUMPDEST PUSH0 CALLER SWAP1 POP SWAP1 JUMP JUMPDEST PUSH0 PUSH3 0x1AD DUP4 DUP4 PUSH3 0x296 PUSH1 0x20 SHL PUSH1 0x20 SHR JUMP JUMPDEST PUSH3 0x28C JUMPI PUSH1 0x1 PUSH1 0x5 PUSH0 DUP6 DUP2 MSTORE PUSH1 0x20 ADD SWAP1 DUP2 MSTORE PUSH1 0x20 ADD PUSH0 KECCAK256 PUSH0 ADD PUSH0 DUP5 PUSH20 0xFFFFFFFFFFFFFFFFFFFFFFFFFFFFFFFFFFFFFFFF AND PUSH20 0xFFFFFFFFFFFFFFFFFFFFFFFFFFFFFFFFFFFFFFFF AND DUP2 MSTORE PUSH1 0x20 ADD SWAP1 DUP2 MSTORE PUSH1 0x20 ADD PUSH0 KECCAK256 PUSH0 PUSH2 0x100 EXP DUP2 SLOAD DUP2 PUSH1 0xFF MUL NOT AND SWAP1 DUP4 ISZERO ISZERO MUL OR SWAP1 SSTORE POP PUSH3 0x228 PUSH3 0x193 PUSH1 0x20 SHL PUSH1 0x20 SHR JUMP JUMPDEST PUSH20 0xFFFFFFFFFFFFFFFFFFFFFFFFFFFFFFFFFFFFFFFF AND DUP3 PUSH20 0xFFFFFFFFFFFFFFFFFFFFFFFFFFFFFFFFFFFFFFFF AND DUP5 PUSH32 0x2F8788117E7EFF1D82E926EC794901D17C78024A50270940304540A733656F0D PUSH1 0x40 MLOAD PUSH1 0x40 MLOAD DUP1 SWAP2 SUB SWAP1 LOG4 PUSH1 0x1 SWAP1 POP PUSH3 0x290 JUMP JUMPDEST PUSH0 SWAP1 POP JUMPDEST SWAP3 SWAP2 POP POP JUMP JUMPDEST PUSH0 PUSH1 0x5 PUSH0 DUP5 DUP2 MSTORE PUSH1 0x20 ADD SWAP1 DUP2 MSTORE PUSH1 0x20 ADD PUSH0 KECCAK256 PUSH0 ADD PUSH0 DUP4 PUSH20 0xFFFFFFFFFFFFFFFFFFFFFFFFFFFFFFFFFFFFFFFF AND PUSH20 0xFFFFFFFFFFFFFFFFFFFFFFFFFFFFFFFFFFFFFFFF AND DUP2 MSTORE PUSH1 0x20 ADD SWAP1 DUP2 MSTORE PUSH1 0x20 ADD PUSH0 KECCAK256 PUSH0 SWAP1 SLOAD SWAP1 PUSH2 0x100 EXP SWAP1 DIV PUSH1 0xFF AND SWAP1 POP SWAP3 SWAP2 POP POP JUMP JUMPDEST PUSH0 DUP2 MLOAD SWAP1 POP SWAP2 SWAP1 POP JUMP JUMPDEST PUSH32 0x4E487B7100000000000000000000000000000000000000000000000000000000 PUSH0 MSTORE PUSH1 0x41 PUSH1 0x4 MSTORE PUSH1 0x24 PUSH0 REVERT JUMPDEST PUSH32 0x4E487B7100000000000000000000000000000000000000000000000000000000 PUSH0 MSTORE PUSH1 0x22 PUSH1 0x4 MSTORE PUSH1 0x24 PUSH0 REVERT JUMPDEST PUSH0 PUSH1 0x2 DUP3 DIV SWAP1 POP PUSH1 0x1 DUP3 AND DUP1 PUSH3 0x376 JUMPI PUSH1 0x7F DUP3 AND SWAP2 POP JUMPDEST PUSH1 0x20 DUP3 LT DUP2 SUB PUSH3 0x38C JUMPI PUSH3 0x38B PUSH3 0x331 JUMP JUMPDEST JUMPDEST POP SWAP2 SWAP1 POP JUMP JUMPDEST PUSH0 DUP2 SWAP1 POP DUP2 PUSH0 MSTORE PUSH1 0x20 PUSH0 KECCAK256 SWAP1 POP SWAP2 SWAP1 POP JUMP JUMPDEST PUSH0 PUSH1 0x20 PUSH1 0x1F DUP4 ADD DIV SWAP1 POP SWAP2 SWAP1 POP JUMP JUMPDEST PUSH0 DUP3 DUP3 SHL SWAP1 POP SWAP3 SWAP2 POP POP JUMP JUMPDEST PUSH0 PUSH1 0x8 DUP4 MUL PUSH3 0x3F0 PUSH32 0xFFFFFFFFFFFFFFFFFFFFFFFFFFFFFFFFFFFFFFFFFFFFFFFFFFFFFFFFFFFFFFFF DUP3 PUSH3 0x3B3 JUMP JUMPDEST PUSH3 0x3FC DUP7 DUP4 PUSH3 0x3B3 JUMP JUMPDEST SWAP6 POP DUP1 NOT DUP5 AND SWAP4 POP DUP1 DUP7 AND DUP5 OR SWAP3 POP POP POP SWAP4 SWAP3 POP POP POP JUMP JUMPDEST PUSH0 DUP2 SWAP1 POP SWAP2 SWAP1 POP JUMP JUMPDEST PUSH0 DUP2 SWAP1 POP SWAP2 SWAP1 POP JUMP JUMPDEST PUSH0 PUSH3 0x446 PUSH3 0x440 PUSH3 0x43A DUP5 PUSH3 0x414 JUMP JUMPDEST PUSH3 0x41D JUMP JUMPDEST PUSH3 0x414 JUMP JUMPDEST SWAP1 POP SWAP2 SWAP1 POP JUMP JUMPDEST PUSH0 DUP2 SWAP1 POP SWAP2 SWAP1 POP JUMP JUMPDEST PUSH3 0x461 DUP4 PUSH3 0x426 JUMP JUMPDEST PUSH3 0x479 PUSH3 0x470 DUP3 PUSH3 0x44D JUMP JUMPDEST DUP5 DUP5 SLOAD PUSH3 0x3BF JUMP JUMPDEST DUP3 SSTORE POP POP POP POP JUMP JUMPDEST PUSH0 SWAP1 JUMP JUMPDEST PUSH3 0x48F PUSH3 0x481 JUMP JUMPDEST PUSH3 0x49C DUP2 DUP5 DUP5 PUSH3 0x456 JUMP JUMPDEST POP POP POP JUMP JUMPDEST JUMPDEST DUP2 DUP2 LT ISZERO PUSH3 0x4C3 JUMPI PUSH3 0x4B7 PUSH0 DUP3 PUSH3 0x485 JUMP JUMPDEST PUSH1 0x1 DUP2 ADD SWAP1 POP PUSH3 0x4A2 JUMP JUMPDEST POP POP JUMP JUMPDEST PUSH1 0x1F DUP3 GT ISZERO PUSH3 0x512 JUMPI PUSH3 0x4DC DUP2 PUSH3 0x392 JUMP JUMPDEST PUSH3 0x4E7 DUP5 PUSH3 0x3A4 JUMP JUMPDEST DUP2 ADD PUSH1 0x20 DUP6 LT ISZERO PUSH3 0x4F7 JUMPI DUP2 SWAP1 POP JUMPDEST PUSH3 0x50F PUSH3 0x506 DUP6 PUSH3 0x3A4 JUMP JUMPDEST DUP4 ADD DUP3 PUSH3 0x4A1 JUMP JUMPDEST POP POP JUMPDEST POP POP POP JUMP JUMPDEST PUSH0 DUP3 DUP3 SHR SWAP1 POP SWAP3 SWAP2 POP POP JUMP JUMPDEST PUSH0 PUSH3 0x534 PUSH0 NOT DUP5 PUSH1 0x8 MUL PUSH3 0x517 JUMP JUMPDEST NOT DUP1 DUP4 AND SWAP2 POP POP SWAP3 SWAP2 POP POP JUMP JUMPDEST PUSH0 PUSH3 0x54E DUP4 DUP4 PUSH3 0x523 JUMP JUMPDEST SWAP2 POP DUP3 PUSH1 0x2 MUL DUP3 OR SWAP1 POP SWAP3 SWAP2 POP POP JUMP JUMPDEST PUSH3 0x569 DUP3 PUSH3 0x2FA JUMP JUMPDEST PUSH8 0xFFFFFFFFFFFFFFFF DUP2 GT ISZERO PUSH3 0x585 JUMPI PUSH3 0x584 PUSH3 0x304 JUMP JUMPDEST JUMPDEST PUSH3 0x591 DUP3 SLOAD PUSH3 0x35E JUMP JUMPDEST PUSH3 0x59E DUP3 DUP3 DUP6 PUSH3 0x4C7 JUMP JUMPDEST PUSH0 PUSH1 0x20 SWAP1 POP PUSH1 0x1F DUP4 GT PUSH1 0x1 DUP2 EQ PUSH3 0x5D4 JUMPI PUSH0 DUP5 ISZERO PUSH3 0x5BF JUMPI DUP3 DUP8 ADD MLOAD SWAP1 POP JUMPDEST PUSH3 0x5CB DUP6 DUP3 PUSH3 0x541 JUMP JUMPDEST DUP7 SSTORE POP PUSH3 0x63A JUMP JUMPDEST PUSH1 0x1F NOT DUP5 AND PUSH3 0x5E4 DUP7 PUSH3 0x392 JUMP JUMPDEST PUSH0 JUMPDEST DUP3 DUP2 LT ISZERO PUSH3 0x60D JUMPI DUP5 DUP10 ADD MLOAD DUP3 SSTORE PUSH1 0x1 DUP3 ADD SWAP2 POP PUSH1 0x20 DUP6 ADD SWAP5 POP PUSH1 0x20 DUP2 ADD SWAP1 POP PUSH3 0x5E6 JUMP JUMPDEST DUP7 DUP4 LT ISZERO PUSH3 0x62D JUMPI DUP5 DUP10 ADD MLOAD PUSH3 0x629 PUSH1 0x1F DUP10 AND DUP3 PUSH3 0x523 JUMP JUMPDEST DUP4 SSTORE POP JUMPDEST PUSH1 0x1 PUSH1 0x2 DUP9 MUL ADD DUP9 SSTORE POP POP POP JUMPDEST POP POP POP POP POP POP JUMP JUMPDEST PUSH2 0x204B DUP1 PUSH3 0x650 PUSH0 CODECOPY PUSH0 RETURN INVALID PUSH1 0x80 PUSH1 0x40 MSTORE CALLVALUE DUP1 ISZERO PUSH2 0xF JUMPI PUSH0 DUP1 REVERT JUMPDEST POP PUSH1 0x4 CALLDATASIZE LT PUSH2 0x14B JUMPI PUSH0 CALLDATALOAD PUSH1 0xE0 SHR DUP1 PUSH4 0x36568ABE GT PUSH2 0xC1 JUMPI DUP1 PUSH4 0x95D89B41 GT PUSH2 0x7A JUMPI DUP1 PUSH4 0x95D89B41 EQ PUSH2 0x3C1 JUMPI DUP1 PUSH4 0xA217FDDF EQ PUSH2 0x3DF JUMPI DUP1 PUSH4 0xA9059CBB EQ PUSH2 0x3FD JUMPI DUP1 PUSH4 0xD5391393 EQ PUSH2 0x42D JUMPI DUP1 PUSH4 0xD547741F EQ PUSH2 0x44B JUMPI DUP1 PUSH4 0xDD62ED3E EQ PUSH2 0x467 JUMPI PUSH2 0x14B JUMP JUMPDEST DUP1 PUSH4 0x36568ABE EQ PUSH2 0x2EF JUMPI DUP1 PUSH4 0x40BED364 EQ PUSH2 0x30B JUMPI DUP1 PUSH4 0x40C10F19 EQ PUSH2 0x327 JUMPI DUP1 PUSH4 0x6B5D9A81 EQ PUSH2 0x343 JUMPI DUP1 PUSH4 0x70A08231 EQ PUSH2 0x361 JUMPI DUP1 PUSH4 0x91D14854 EQ PUSH2 0x391 JUMPI PUSH2 0x14B JUMP JUMPDEST DUP1 PUSH4 0x23B872DD GT PUSH2 0x113 JUMPI DUP1 PUSH4 0x23B872DD EQ PUSH2 0x21B JUMPI DUP1 PUSH4 0x248A9CA3 EQ PUSH2 0x24B JUMPI DUP1 PUSH4 0x282C51F3 EQ PUSH2 0x27B JUMPI DUP1 PUSH4 0x2F2FF15D EQ PUSH2 0x299 JUMPI DUP1 PUSH4 0x3125E46E EQ PUSH2 0x2B5 JUMPI DUP1 PUSH4 0x313CE567 EQ PUSH2 0x2D1 JUMPI PUSH2 0x14B JUMP JUMPDEST DUP1 PUSH4 0x1FFC9A7 EQ PUSH2 0x14F JUMPI DUP1 PUSH4 0x6FDDE03 EQ PUSH2 0x17F JUMPI DUP1 PUSH4 0x95EA7B3 EQ PUSH2 0x19D JUMPI DUP1 PUSH4 0x122FAF73 EQ PUSH2 0x1CD JUMPI DUP1 PUSH4 0x18160DDD EQ PUSH2 0x1FD JUMPI JUMPDEST PUSH0 DUP1 REVERT JUMPDEST PUSH2 0x169 PUSH1 0x4 DUP1 CALLDATASIZE SUB DUP2 ADD SWAP1 PUSH2 0x164 SWAP2 SWAP1 PUSH2 0x163E JUMP JUMPDEST PUSH2 0x497 JUMP JUMPDEST PUSH1 0x40 MLOAD PUSH2 0x176 SWAP2 SWAP1 PUSH2 0x1683 JUMP JUMPDEST PUSH1 0x40 MLOAD DUP1 SWAP2 SUB SWAP1 RETURN JUMPDEST PUSH2 0x187 PUSH2 0x510 JUMP JUMPDEST PUSH1 0x40 MLOAD PUSH2 0x194 SWAP2 SWAP1 PUSH2 0x1726 JUMP JUMPDEST PUSH1 0x40 MLOAD DUP1 SWAP2 SUB SWAP1 RETURN JUMPDEST PUSH2 0x1B7 PUSH1 0x4 DUP1 CALLDATASIZE SUB DUP2 ADD SWAP1 PUSH2 0x1B2 SWAP2 SWAP1 PUSH2 0x17D3 JUMP JUMPDEST PUSH2 0x5A0 JUMP JUMPDEST PUSH1 0x40 MLOAD PUSH2 0x1C4 SWAP2 SWAP1 PUSH2 0x1683 JUMP JUMPDEST PUSH1 0x40 MLOAD DUP1 SWAP2 SUB SWAP1 RETURN JUMPDEST PUSH2 0x1E7 PUSH1 0x4 DUP1 CALLDATASIZE SUB DUP2 ADD SWAP1 PUSH2 0x1E2 SWAP2 SWAP1 PUSH2 0x1811 JUMP JUMPDEST PUSH2 0x5C2 JUMP JUMPDEST PUSH1 0x40 MLOAD PUSH2 0x1F4 SWAP2 SWAP1 PUSH2 0x184B JUMP JUMPDEST PUSH1 0x40 MLOAD DUP1 SWAP2 SUB SWAP1 RETURN JUMPDEST PUSH2 0x205 PUSH2 0x5D7 JUMP JUMPDEST PUSH1 0x40 MLOAD PUSH2 0x212 SWAP2 SWAP1 PUSH2 0x184B JUMP JUMPDEST PUSH1 0x40 MLOAD DUP1 SWAP2 SUB SWAP1 RETURN JUMPDEST PUSH2 0x235 PUSH1 0x4 DUP1 CALLDATASIZE SUB DUP2 ADD SWAP1 PUSH2 0x230 SWAP2 SWAP1 PUSH2 0x1864 JUMP JUMPDEST PUSH2 0x5E0 JUMP JUMPDEST PUSH1 0x40 MLOAD PUSH2 0x242 SWAP2 SWAP1 PUSH2 0x1683 JUMP JUMPDEST PUSH1 0x40 MLOAD DUP1 SWAP2 SUB SWAP1 RETURN JUMPDEST PUSH2 0x265 PUSH1 0x4 DUP1 CALLDATASIZE SUB DUP2 ADD SWAP1 PUSH2 0x260 SWAP2 SWAP1 PUSH2 0x18E7 JUMP JUMPDEST PUSH2 0x60E JUMP JUMPDEST PUSH1 0x40 MLOAD PUSH2 0x272 SWAP2 SWAP1 PUSH2 0x1921 JUMP JUMPDEST PUSH1 0x40 MLOAD DUP1 SWAP2 SUB SWAP1 RETURN JUMPDEST PUSH2 0x283 PUSH2 0x62B JUMP JUMPDEST PUSH1 0x40 MLOAD PUSH2 0x290 SWAP2 SWAP1 PUSH2 0x1921 JUMP JUMPDEST PUSH1 0x40 MLOAD DUP1 SWAP2 SUB SWAP1 RETURN JUMPDEST PUSH2 0x2B3 PUSH1 0x4 DUP1 CALLDATASIZE SUB DUP2 ADD SWAP1 PUSH2 0x2AE SWAP2 SWAP1 PUSH2 0x193A JUMP JUMPDEST PUSH2 0x64F JUMP JUMPDEST STOP JUMPDEST PUSH2 0x2CF PUSH1 0x4 DUP1 CALLDATASIZE SUB DUP2 ADD SWAP1 PUSH2 0x2CA SWAP2 SWAP1 PUSH2 0x1978 JUMP JUMPDEST PUSH2 0x671 JUMP JUMPDEST STOP JUMPDEST PUSH2 0x2D9 PUSH2 0x72F JUMP JUMPDEST PUSH1 0x40 MLOAD PUSH2 0x2E6 SWAP2 SWAP1 PUSH2 0x19BE JUMP JUMPDEST PUSH1 0x40 MLOAD DUP1 SWAP2 SUB SWAP1 RETURN JUMPDEST PUSH2 0x309 PUSH1 0x4 DUP1 CALLDATASIZE SUB DUP2 ADD SWAP1 PUSH2 0x304 SWAP2 SWAP1 PUSH2 0x193A JUMP JUMPDEST PUSH2 0x737 JUMP JUMPDEST STOP JUMPDEST PUSH2 0x325 PUSH1 0x4 DUP1 CALLDATASIZE SUB DUP2 ADD SWAP1 PUSH2 0x320 SWAP2 SWAP1 PUSH2 0x19D7 JUMP JUMPDEST PUSH2 0x7B2 JUMP JUMPDEST STOP JUMPDEST PUSH2 0x341 PUSH1 0x4 DUP1 CALLDATASIZE SUB DUP2 ADD SWAP1 PUSH2 0x33C SWAP2 SWAP1 PUSH2 0x17D3 JUMP JUMPDEST PUSH2 0x917 JUMP JUMPDEST STOP JUMPDEST PUSH2 0x34B PUSH2 0xA75 JUMP JUMPDEST PUSH1 0x40 MLOAD PUSH2 0x358 SWAP2 SWAP1 PUSH2 0x1921 JUMP JUMPDEST PUSH1 0x40 MLOAD DUP1 SWAP2 SUB SWAP1 RETURN JUMPDEST PUSH2 0x37B PUSH1 0x4 DUP1 CALLDATASIZE SUB DUP2 ADD SWAP1 PUSH2 0x376 SWAP2 SWAP1 PUSH2 0x1811 JUMP JUMPDEST PUSH2 0xA99 JUMP JUMPDEST PUSH1 0x40 MLOAD PUSH2 0x388 SWAP2 SWAP1 PUSH2 0x184B JUMP JUMPDEST PUSH1 0x40 MLOAD DUP1 SWAP2 SUB SWAP1 RETURN JUMPDEST PUSH2 0x3AB PUSH1 0x4 DUP1 CALLDATASIZE SUB DUP2 ADD SWAP1 PUSH2 0x3A6 SWAP2 SWAP1 PUSH2 0x193A JUMP JUMPDEST PUSH2 0xADE JUMP JUMPDEST PUSH1 0x40 MLOAD PUSH2 0x3B8 SWAP2 SWAP1 PUSH2 0x1683 JUMP JUMPDEST PUSH1 0x40 MLOAD DUP1 SWAP2 SUB SWAP1 RETURN JUMPDEST PUSH2 0x3C9 PUSH2 0xB42 JUMP JUMPDEST PUSH1 0x40 MLOAD PUSH2 0x3D6 SWAP2 SWAP1 PUSH2 0x1726 JUMP JUMPDEST PUSH1 0x40 MLOAD DUP1 SWAP2 SUB SWAP1 RETURN JUMPDEST PUSH2 0x3E7 PUSH2 0xBD2 JUMP JUMPDEST PUSH1 0x40 MLOAD PUSH2 0x3F4 SWAP2 SWAP1 PUSH2 0x1921 JUMP JUMPDEST PUSH1 0x40 MLOAD DUP1 SWAP2 SUB SWAP1 RETURN JUMPDEST PUSH2 0x417 PUSH1 0x4 DUP1 CALLDATASIZE SUB DUP2 ADD SWAP1 PUSH2 0x412 SWAP2 SWAP1 PUSH2 0x17D3 JUMP JUMPDEST PUSH2 0xBD8 JUMP JUMPDEST PUSH1 0x40 MLOAD PUSH2 0x424 SWAP2 SWAP1 PUSH2 0x1683 JUMP JUMPDEST PUSH1 0x40 MLOAD DUP1 SWAP2 SUB SWAP1 RETURN JUMPDEST PUSH2 0x435 PUSH2 0xBFA JUMP JUMPDEST PUSH1 0x40 MLOAD PUSH2 0x442 SWAP2 SWAP1 PUSH2 0x1921 JUMP JUMPDEST PUSH1 0x40 MLOAD DUP1 SWAP2 SUB SWAP1 RETURN JUMPDEST PUSH2 0x465 PUSH1 0x4 DUP1 CALLDATASIZE SUB DUP2 ADD SWAP1 PUSH2 0x460 SWAP2 SWAP1 PUSH2 0x193A JUMP JUMPDEST PUSH2 0xC1E JUMP JUMPDEST STOP JUMPDEST PUSH2 0x481 PUSH1 0x4 DUP1 CALLDATASIZE SUB DUP2 ADD SWAP1 PUSH2 0x47C SWAP2 SWAP1 PUSH2 0x1A27 JUMP JUMPDEST PUSH2 0xC40 JUMP JUMPDEST PUSH1 0x40 MLOAD PUSH2 0x48E SWAP2 SWAP1 PUSH2 0x184B JUMP JUMPDEST PUSH1 0x40 MLOAD DUP1 SWAP2 SUB SWAP1 RETURN JUMPDEST PUSH0 PUSH32 0x7965DB0B00000000000000000000000000000000000000000000000000000000 PUSH28 0xFFFFFFFFFFFFFFFFFFFFFFFFFFFFFFFFFFFFFFFFFFFFFFFFFFFFFFFF NOT AND DUP3 PUSH28 0xFFFFFFFFFFFFFFFFFFFFFFFFFFFFFFFFFFFFFFFFFFFFFFFFFFFFFFFF NOT AND EQ DUP1 PUSH2 0x509 JUMPI POP PUSH2 0x508 DUP3 PUSH2 0xCC2 JUMP JUMPDEST JUMPDEST SWAP1 POP SWAP2 SWAP1 POP JUMP JUMPDEST PUSH1 0x60 PUSH1 0x3 DUP1 SLOAD PUSH2 0x51F SWAP1 PUSH2 0x1A92 JUMP JUMPDEST DUP1 PUSH1 0x1F ADD PUSH1 0x20 DUP1 SWAP2 DIV MUL PUSH1 0x20 ADD PUSH1 0x40 MLOAD SWAP1 DUP2 ADD PUSH1 0x40 MSTORE DUP1 SWAP3 SWAP2 SWAP1 DUP2 DUP2 MSTORE PUSH1 0x20 ADD DUP3 DUP1 SLOAD PUSH2 0x54B SWAP1 PUSH2 0x1A92 JUMP JUMPDEST DUP1 ISZERO PUSH2 0x596 JUMPI DUP1 PUSH1 0x1F LT PUSH2 0x56D JUMPI PUSH2 0x100 DUP1 DUP4 SLOAD DIV MUL DUP4 MSTORE SWAP2 PUSH1 0x20 ADD SWAP2 PUSH2 0x596 JUMP JUMPDEST DUP3 ADD SWAP2 SWAP1 PUSH0 MSTORE PUSH1 0x20 PUSH0 KECCAK256 SWAP1 JUMPDEST DUP2 SLOAD DUP2 MSTORE SWAP1 PUSH1 0x1 ADD SWAP1 PUSH1 0x20 ADD DUP1 DUP4 GT PUSH2 0x579 JUMPI DUP3 SWAP1 SUB PUSH1 0x1F AND DUP3 ADD SWAP2 JUMPDEST POP POP POP POP POP SWAP1 POP SWAP1 JUMP JUMPDEST PUSH0 DUP1 PUSH2 0x5AA PUSH2 0xD2B JUMP JUMPDEST SWAP1 POP PUSH2 0x5B7 DUP2 DUP6 DUP6 PUSH2 0xD32 JUMP JUMPDEST PUSH1 0x1 SWAP2 POP POP SWAP3 SWAP2 POP POP JUMP JUMPDEST PUSH1 0x6 PUSH1 0x20 MSTORE DUP1 PUSH0 MSTORE PUSH1 0x40 PUSH0 KECCAK256 PUSH0 SWAP2 POP SWAP1 POP SLOAD DUP2 JUMP JUMPDEST PUSH0 PUSH1 0x2 SLOAD SWAP1 POP SWAP1 JUMP JUMPDEST PUSH0 DUP1 PUSH2 0x5EA PUSH2 0xD2B JUMP JUMPDEST SWAP1 POP PUSH2 0x5F7 DUP6 DUP3 DUP6 PUSH2 0xD44 JUMP JUMPDEST PUSH2 0x602 DUP6 DUP6 DUP6 PUSH2 0xDD6 JUMP JUMPDEST PUSH1 0x1 SWAP2 POP POP SWAP4 SWAP3 POP POP POP JUMP JUMPDEST PUSH0 PUSH1 0x5 PUSH0 DUP4 DUP2 MSTORE PUSH1 0x20 ADD SWAP1 DUP2 MSTORE PUSH1 0x20 ADD PUSH0 KECCAK256 PUSH1 0x1 ADD SLOAD SWAP1 POP SWAP2 SWAP1 POP JUMP JUMPDEST PUSH32 0x3C11D16CBAFFD01DF69CE1C404F6340EE057498F5F00246190EA54220576A848 DUP2 JUMP JUMPDEST PUSH2 0x658 DUP3 PUSH2 0x60E JUMP JUMPDEST PUSH2 0x661 DUP2 PUSH2 0xEC6 JUMP JUMPDEST PUSH2 0x66B DUP4 DUP4 PUSH2 0xEDA JUMP JUMPDEST POP POP POP POP JUMP JUMPDEST PUSH0 PUSH1 0x1 DUP3 PUSH2 0x67F SWAP2 SWAP1 PUSH2 0x1AEF JUMP JUMPDEST EQ PUSH2 0x6BF JUMPI PUSH1 0x40 MLOAD PUSH32 0x8C379A000000000000000000000000000000000000000000000000000000000 DUP2 MSTORE PUSH1 0x4 ADD PUSH2 0x6B6 SWAP1 PUSH2 0x1B69 JUMP JUMPDEST PUSH1 0x40 MLOAD DUP1 SWAP2 SUB SWAP1 REVERT JUMPDEST PUSH2 0x6EE PUSH2 0x6CA PUSH2 0xD2B JUMP JUMPDEST PUSH2 0x6D2 PUSH2 0x72F JUMP JUMPDEST PUSH1 0xA PUSH2 0x6DE SWAP2 SWAP1 PUSH2 0x1CE3 JUMP JUMPDEST DUP4 PUSH2 0x6E9 SWAP2 SWAP1 PUSH2 0x1D2D JUMP JUMPDEST PUSH2 0xFC4 JUMP JUMPDEST PUSH32 0xE0184E9DA0B5777A2034C85208086829EED207B92DC7DF8D3084E70420AE9BC4 PUSH2 0x717 PUSH2 0xD2B JUMP JUMPDEST PUSH1 0x40 MLOAD PUSH2 0x724 SWAP2 SWAP1 PUSH2 0x1DC7 JUMP JUMPDEST PUSH1 0x40 MLOAD DUP1 SWAP2 SUB SWAP1 LOG1 POP JUMP JUMPDEST PUSH0 PUSH1 0x12 SWAP1 POP SWAP1 JUMP JUMPDEST PUSH2 0x73F PUSH2 0xD2B JUMP JUMPDEST PUSH20 0xFFFFFFFFFFFFFFFFFFFFFFFFFFFFFFFFFFFFFFFF AND DUP2 PUSH20 0xFFFFFFFFFFFFFFFFFFFFFFFFFFFFFFFFFFFFFFFF AND EQ PUSH2 0x7A3 JUMPI PUSH1 0x40 MLOAD PUSH32 0x6697B23200000000000000000000000000000000000000000000000000000000 DUP2 MSTORE PUSH1 0x4 ADD PUSH1 0x40 MLOAD DUP1 SWAP2 SUB SWAP1 REVERT JUMPDEST PUSH2 0x7AD DUP3 DUP3 PUSH2 0x1043 JUMP JUMPDEST POP POP POP JUMP JUMPDEST PUSH32 0xB385EBD07B20F317B5BF0DDA1A7179A9D0DE6F45757E4CE90C508FDBA4C9C831 PUSH2 0x7DC DUP2 PUSH2 0xEC6 JUMP JUMPDEST PUSH0 PUSH20 0xFFFFFFFFFFFFFFFFFFFFFFFFFFFFFFFFFFFFFFFF AND DUP5 PUSH20 0xFFFFFFFFFFFFFFFFFFFFFFFFFFFFFFFFFFFFFFFF AND SUB PUSH2 0x84A JUMPI PUSH1 0x40 MLOAD PUSH32 0x8C379A000000000000000000000000000000000000000000000000000000000 DUP2 MSTORE PUSH1 0x4 ADD PUSH2 0x841 SWAP1 PUSH2 0x1E3D JUMP JUMPDEST PUSH1 0x40 MLOAD DUP1 SWAP2 SUB SWAP1 REVERT JUMPDEST PUSH0 PUSH20 0xFFFFFFFFFFFFFFFFFFFFFFFFFFFFFFFFFFFFFFFF AND DUP3 PUSH20 0xFFFFFFFFFFFFFFFFFFFFFFFFFFFFFFFFFFFFFFFF AND SUB PUSH2 0x8B8 JUMPI PUSH1 0x40 MLOAD PUSH32 0x8C379A000000000000000000000000000000000000000000000000000000000 DUP2 MSTORE PUSH1 0x4 ADD PUSH2 0x8AF SWAP1 PUSH2 0x1EA5 JUMP JUMPDEST PUSH1 0x40 MLOAD DUP1 SWAP2 SUB SWAP1 REVERT JUMPDEST PUSH2 0x8E8 PUSH2 0x8C3 PUSH2 0xD2B JUMP JUMPDEST DUP6 PUSH2 0x8CC PUSH2 0x72F JUMP JUMPDEST PUSH1 0xA PUSH2 0x8D8 SWAP2 SWAP1 PUSH2 0x1CE3 JUMP JUMPDEST DUP7 PUSH2 0x8E3 SWAP2 SWAP1 PUSH2 0x1D2D JUMP JUMPDEST PUSH2 0xD44 JUMP JUMPDEST PUSH2 0x911 DUP5 DUP4 PUSH2 0x8F5 PUSH2 0x72F JUMP JUMPDEST PUSH1 0xA PUSH2 0x901 SWAP2 SWAP1 PUSH2 0x1CE3 JUMP JUMPDEST DUP7 PUSH2 0x90C SWAP2 SWAP1 PUSH2 0x1D2D JUMP JUMPDEST PUSH2 0xDD6 JUMP JUMPDEST POP POP POP POP JUMP JUMPDEST PUSH32 0x9F2DF0FED2C77648DE5860A4CC508CD0818C85B8B8A1AB4CEEEF8D981C8956A6 PUSH2 0x941 DUP2 PUSH2 0xEC6 JUMP JUMPDEST PUSH0 PUSH20 0xFFFFFFFFFFFFFFFFFFFFFFFFFFFFFFFFFFFFFFFF AND DUP4 PUSH20 0xFFFFFFFFFFFFFFFFFFFFFFFFFFFFFFFFFFFFFFFF AND SUB PUSH2 0x9AF JUMPI PUSH1 0x40 MLOAD PUSH32 0x8C379A000000000000000000000000000000000000000000000000000000000 DUP2 MSTORE PUSH1 0x4 ADD PUSH2 0x9A6 SWAP1 PUSH2 0x1E3D JUMP JUMPDEST PUSH1 0x40 MLOAD DUP1 SWAP2 SUB SWAP1 REVERT JUMPDEST PUSH2 0x9D7 DUP4 PUSH2 0x9BB PUSH2 0x72F JUMP JUMPDEST PUSH1 0xA PUSH2 0x9C7 SWAP2 SWAP1 PUSH2 0x1CE3 JUMP JUMPDEST DUP5 PUSH2 0x9D2 SWAP2 SWAP1 PUSH2 0x1D2D JUMP JUMPDEST PUSH2 0x112D JUMP JUMPDEST PUSH2 0x9DF PUSH2 0x72F JUMP JUMPDEST PUSH1 0xA PUSH2 0x9EB SWAP2 SWAP1 PUSH2 0x1CE3 JUMP JUMPDEST DUP3 PUSH2 0x9F6 SWAP2 SWAP1 PUSH2 0x1D2D JUMP JUMPDEST PUSH1 0x6 PUSH0 DUP6 PUSH20 0xFFFFFFFFFFFFFFFFFFFFFFFFFFFFFFFFFFFFFFFF AND PUSH20 0xFFFFFFFFFFFFFFFFFFFFFFFFFFFFFFFFFFFFFFFF AND DUP2 MSTORE PUSH1 0x20 ADD SWAP1 DUP2 MSTORE PUSH1 0x20 ADD PUSH0 KECCAK256 DUP2 SWAP1 SSTORE POP PUSH32 0x437F7339F84AADEE9F304AD10A1ACCD10EDEE7BF72816F9100DA902356BD2318 DUP4 DUP4 PUSH1 0x40 MLOAD PUSH2 0xA68 SWAP3 SWAP2 SWAP1 PUSH2 0x1F33 JUMP JUMPDEST PUSH1 0x40 MLOAD DUP1 SWAP2 SUB SWAP1 LOG1 POP POP POP JUMP JUMPDEST PUSH32 0xB385EBD07B20F317B5BF0DDA1A7179A9D0DE6F45757E4CE90C508FDBA4C9C831 DUP2 JUMP JUMPDEST PUSH0 DUP1 PUSH0 DUP4 PUSH20 0xFFFFFFFFFFFFFFFFFFFFFFFFFFFFFFFFFFFFFFFF AND PUSH20 0xFFFFFFFFFFFFFFFFFFFFFFFFFFFFFFFFFFFFFFFF AND DUP2 MSTORE PUSH1 0x20 ADD SWAP1 DUP2 MSTORE PUSH1 0x20 ADD PUSH0 KECCAK256 SLOAD SWAP1 POP SWAP2 SWAP1 POP JUMP JUMPDEST PUSH0 PUSH1 0x5 PUSH0 DUP5 DUP2 MSTORE PUSH1 0x20 ADD SWAP1 DUP2 MSTORE PUSH1 0x20 ADD PUSH0 KECCAK256 PUSH0 ADD PUSH0 DUP4 PUSH20 0xFFFFFFFFFFFFFFFFFFFFFFFFFFFFFFFFFFFFFFFF AND PUSH20 0xFFFFFFFFFFFFFFFFFFFFFFFFFFFFFFFFFFFFFFFF AND DUP2 MSTORE PUSH1 0x20 ADD SWAP1 DUP2 MSTORE PUSH1 0x20 ADD PUSH0 KECCAK256 PUSH0 SWAP1 SLOAD SWAP1 PUSH2 0x100 EXP SWAP1 DIV PUSH1 0xFF AND SWAP1 POP SWAP3 SWAP2 POP POP JUMP JUMPDEST PUSH1 0x60 PUSH1 0x4 DUP1 SLOAD PUSH2 0xB51 SWAP1 PUSH2 0x1A92 JUMP JUMPDEST DUP1 PUSH1 0x1F ADD PUSH1 0x20 DUP1 SWAP2 DIV MUL PUSH1 0x20 ADD PUSH1 0x40 MLOAD SWAP1 DUP2 ADD PUSH1 0x40 MSTORE DUP1 SWAP3 SWAP2 SWAP1 DUP2 DUP2 MSTORE PUSH1 0x20 ADD DUP3 DUP1 SLOAD PUSH2 0xB7D SWAP1 PUSH2 0x1A92 JUMP JUMPDEST DUP1 ISZERO PUSH2 0xBC8 JUMPI DUP1 PUSH1 0x1F LT PUSH2 0xB9F JUMPI PUSH2 0x100 DUP1 DUP4 SLOAD DIV MUL DUP4 MSTORE SWAP2 PUSH1 0x20 ADD SWAP2 PUSH2 0xBC8 JUMP JUMPDEST DUP3 ADD SWAP2 SWAP1 PUSH0 MSTORE PUSH1 0x20 PUSH0 KECCAK256 SWAP1 JUMPDEST DUP2 SLOAD DUP2 MSTORE SWAP1 PUSH1 0x1 ADD SWAP1 PUSH1 0x20 ADD DUP1 DUP4 GT PUSH2 0xBAB JUMPI DUP3 SWAP1 SUB PUSH1 0x1F AND DUP3 ADD SWAP2 JUMPDEST POP POP POP POP POP SWAP1 POP SWAP1 JUMP JUMPDEST PUSH0 DUP1 SHL DUP2 JUMP JUMPDEST PUSH0 DUP1 PUSH2 0xBE2 PUSH2 0xD2B JUMP JUMPDEST SWAP1 POP PUSH2 0xBEF DUP2 DUP6 DUP6 PUSH2 0xDD6 JUMP JUMPDEST PUSH1 0x1 SWAP2 POP POP SWAP3 SWAP2 POP POP JUMP JUMPDEST PUSH32 0x9F2DF0FED2C77648DE5860A4CC508CD0818C85B8B8A1AB4CEEEF8D981C8956A6 DUP2 JUMP JUMPDEST PUSH2 0xC27 DUP3 PUSH2 0x60E JUMP JUMPDEST PUSH2 0xC30 DUP2 PUSH2 0xEC6 JUMP JUMPDEST PUSH2 0xC3A DUP4 DUP4 PUSH2 0x1043 JUMP JUMPDEST POP POP POP POP JUMP JUMPDEST PUSH0 PUSH1 0x1 PUSH0 DUP5 PUSH20 0xFFFFFFFFFFFFFFFFFFFFFFFFFFFFFFFFFFFFFFFF AND PUSH20 0xFFFFFFFFFFFFFFFFFFFFFFFFFFFFFFFFFFFFFFFF AND DUP2 MSTORE PUSH1 0x20 ADD SWAP1 DUP2 MSTORE PUSH1 0x20 ADD PUSH0 KECCAK256 PUSH0 DUP4 PUSH20 0xFFFFFFFFFFFFFFFFFFFFFFFFFFFFFFFFFFFFFFFF AND PUSH20 0xFFFFFFFFFFFFFFFFFFFFFFFFFFFFFFFFFFFFFFFF AND DUP2 MSTORE PUSH1 0x20 ADD SWAP1 DUP2 MSTORE PUSH1 0x20 ADD PUSH0 KECCAK256 SLOAD SWAP1 POP SWAP3 SWAP2 POP POP JUMP JUMPDEST PUSH0 PUSH32 0x1FFC9A700000000000000000000000000000000000000000000000000000000 PUSH28 0xFFFFFFFFFFFFFFFFFFFFFFFFFFFFFFFFFFFFFFFFFFFFFFFFFFFFFFFF NOT AND DUP3 PUSH28 0xFFFFFFFFFFFFFFFFFFFFFFFFFFFFFFFFFFFFFFFFFFFFFFFFFFFFFFFF NOT AND EQ SWAP1 POP SWAP2 SWAP1 POP JUMP JUMPDEST PUSH0 CALLER SWAP1 POP SWAP1 JUMP JUMPDEST PUSH2 0xD3F DUP4 DUP4 DUP4 PUSH1 0x1 PUSH2 0x11AC JUMP JUMPDEST POP POP POP JUMP JUMPDEST PUSH0 PUSH2 0xD4F DUP5 DUP5 PUSH2 0xC40 JUMP JUMPDEST SWAP1 POP PUSH32 0xFFFFFFFFFFFFFFFFFFFFFFFFFFFFFFFFFFFFFFFFFFFFFFFFFFFFFFFFFFFFFFFF DUP2 EQ PUSH2 0xDD0 JUMPI DUP2 DUP2 LT ISZERO PUSH2 0xDC1 JUMPI DUP3 DUP2 DUP4 PUSH1 0x40 MLOAD PUSH32 0xFB8F41B200000000000000000000000000000000000000000000000000000000 DUP2 MSTORE PUSH1 0x4 ADD PUSH2 0xDB8 SWAP4 SWAP3 SWAP2 SWAP1 PUSH2 0x1F6D JUMP JUMPDEST PUSH1 0x40 MLOAD DUP1 SWAP2 SUB SWAP1 REVERT JUMPDEST PUSH2 0xDCF DUP5 DUP5 DUP5 DUP5 SUB PUSH0 PUSH2 0x11AC JUMP JUMPDEST JUMPDEST POP POP POP POP JUMP JUMPDEST PUSH0 PUSH20 0xFFFFFFFFFFFFFFFFFFFFFFFFFFFFFFFFFFFFFFFF AND DUP4 PUSH20 0xFFFFFFFFFFFFFFFFFFFFFFFFFFFFFFFFFFFFFFFF AND SUB PUSH2 0xE46 JUMPI PUSH0 PUSH1 0x40 MLOAD PUSH32 0x96C6FD1E00000000000000000000000000000000000000000000000000000000 DUP2 MSTORE PUSH1 0x4 ADD PUSH2 0xE3D SWAP2 SWAP1 PUSH2 0x1FA2 JUMP JUMPDEST PUSH1 0x40 MLOAD DUP1 SWAP2 SUB SWAP1 REVERT JUMPDEST PUSH0 PUSH20 0xFFFFFFFFFFFFFFFFFFFFFFFFFFFFFFFFFFFFFFFF AND DUP3 PUSH20 0xFFFFFFFFFFFFFFFFFFFFFFFFFFFFFFFFFFFFFFFF AND SUB PUSH2 0xEB6 JUMPI PUSH0 PUSH1 0x40 MLOAD PUSH32 0xEC442F0500000000000000000000000000000000000000000000000000000000 DUP2 MSTORE PUSH1 0x4 ADD PUSH2 0xEAD SWAP2 SWAP1 PUSH2 0x1FA2 JUMP JUMPDEST PUSH1 0x40 MLOAD DUP1 SWAP2 SUB SWAP1 REVERT JUMPDEST PUSH2 0xEC1 DUP4 DUP4 DUP4 PUSH2 0x137B JUMP JUMPDEST POP POP POP JUMP JUMPDEST PUSH2 0xED7 DUP2 PUSH2 0xED2 PUSH2 0xD2B JUMP JUMPDEST PUSH2 0x1594 JUMP JUMPDEST POP JUMP JUMPDEST PUSH0 PUSH2 0xEE5 DUP4 DUP4 PUSH2 0xADE JUMP JUMPDEST PUSH2 0xFBA JUMPI PUSH1 0x1 PUSH1 0x5 PUSH0 DUP6 DUP2 MSTORE PUSH1 0x20 ADD SWAP1 DUP2 MSTORE PUSH1 0x20 ADD PUSH0 KECCAK256 PUSH0 ADD PUSH0 DUP5 PUSH20 0xFFFFFFFFFFFFFFFFFFFFFFFFFFFFFFFFFFFFFFFF AND PUSH20 0xFFFFFFFFFFFFFFFFFFFFFFFFFFFFFFFFFFFFFFFF AND DUP2 MSTORE PUSH1 0x20 ADD SWAP1 DUP2 MSTORE PUSH1 0x20 ADD PUSH0 KECCAK256 PUSH0 PUSH2 0x100 EXP DUP2 SLOAD DUP2 PUSH1 0xFF MUL NOT AND SWAP1 DUP4 ISZERO ISZERO MUL OR SWAP1 SSTORE POP PUSH2 0xF57 PUSH2 0xD2B JUMP JUMPDEST PUSH20 0xFFFFFFFFFFFFFFFFFFFFFFFFFFFFFFFFFFFFFFFF AND DUP3 PUSH20 0xFFFFFFFFFFFFFFFFFFFFFFFFFFFFFFFFFFFFFFFF AND DUP5 PUSH32 0x2F8788117E7EFF1D82E926EC794901D17C78024A50270940304540A733656F0D PUSH1 0x40 MLOAD PUSH1 0x40 MLOAD DUP1 SWAP2 SUB SWAP1 LOG4 PUSH1 0x1 SWAP1 POP PUSH2 0xFBE JUMP JUMPDEST PUSH0 SWAP1 POP JUMPDEST SWAP3 SWAP2 POP POP JUMP JUMPDEST PUSH0 PUSH20 0xFFFFFFFFFFFFFFFFFFFFFFFFFFFFFFFFFFFFFFFF AND DUP3 PUSH20 0xFFFFFFFFFFFFFFFFFFFFFFFFFFFFFFFFFFFFFFFF AND SUB PUSH2 0x1034 JUMPI PUSH0 PUSH1 0x40 MLOAD PUSH32 0x96C6FD1E00000000000000000000000000000000000000000000000000000000 DUP2 MSTORE PUSH1 0x4 ADD PUSH2 0x102B SWAP2 SWAP1 PUSH2 0x1FA2 JUMP JUMPDEST PUSH1 0x40 MLOAD DUP1 SWAP2 SUB SWAP1 REVERT JUMPDEST PUSH2 0x103F DUP3 PUSH0 DUP4 PUSH2 0x137B JUMP JUMPDEST POP POP JUMP JUMPDEST PUSH0 PUSH2 0x104E DUP4 DUP4 PUSH2 0xADE JUMP JUMPDEST ISZERO PUSH2 0x1123 JUMPI PUSH0 PUSH1 0x5 PUSH0 DUP6 DUP2 MSTORE PUSH1 0x20 ADD SWAP1 DUP2 MSTORE PUSH1 0x20 ADD PUSH0 KECCAK256 PUSH0 ADD PUSH0 DUP5 PUSH20 0xFFFFFFFFFFFFFFFFFFFFFFFFFFFFFFFFFFFFFFFF AND PUSH20 0xFFFFFFFFFFFFFFFFFFFFFFFFFFFFFFFFFFFFFFFF AND DUP2 MSTORE PUSH1 0x20 ADD SWAP1 DUP2 MSTORE PUSH1 0x20 ADD PUSH0 KECCAK256 PUSH0 PUSH2 0x100 EXP DUP2 SLOAD DUP2 PUSH1 0xFF MUL NOT AND SWAP1 DUP4 ISZERO ISZERO MUL OR SWAP1 SSTORE POP PUSH2 0x10C0 PUSH2 0xD2B JUMP JUMPDEST PUSH20 0xFFFFFFFFFFFFFFFFFFFFFFFFFFFFFFFFFFFFFFFF AND DUP3 PUSH20 0xFFFFFFFFFFFFFFFFFFFFFFFFFFFFFFFFFFFFFFFF AND DUP5 PUSH32 0xF6391F5C32D9C69D2A47EA670B442974B53935D1EDC7FD64EB21E047A839171B PUSH1 0x40 MLOAD PUSH1 0x40 MLOAD DUP1 SWAP2 SUB SWAP1 LOG4 PUSH1 0x1 SWAP1 POP PUSH2 0x1127 JUMP JUMPDEST PUSH0 SWAP1 POP JUMPDEST SWAP3 SWAP2 POP POP JUMP JUMPDEST PUSH0 PUSH20 0xFFFFFFFFFFFFFFFFFFFFFFFFFFFFFFFFFFFFFFFF AND DUP3 PUSH20 0xFFFFFFFFFFFFFFFFFFFFFFFFFFFFFFFFFFFFFFFF AND SUB PUSH2 0x119D JUMPI PUSH0 PUSH1 0x40 MLOAD PUSH32 0xEC442F0500000000000000000000000000000000000000000000000000000000 DUP2 MSTORE PUSH1 0x4 ADD PUSH2 0x1194 SWAP2 SWAP1 PUSH2 0x1FA2 JUMP JUMPDEST PUSH1 0x40 MLOAD DUP1 SWAP2 SUB SWAP1 REVERT JUMPDEST PUSH2 0x11A8 PUSH0 DUP4 DUP4 PUSH2 0x137B JUMP JUMPDEST POP POP JUMP JUMPDEST PUSH0 PUSH20 0xFFFFFFFFFFFFFFFFFFFFFFFFFFFFFFFFFFFFFFFF AND DUP5 PUSH20 0xFFFFFFFFFFFFFFFFFFFFFFFFFFFFFFFFFFFFFFFF AND SUB PUSH2 0x121C JUMPI PUSH0 PUSH1 0x40 MLOAD PUSH32 0xE602DF0500000000000000000000000000000000000000000000000000000000 DUP2 MSTORE PUSH1 0x4 ADD PUSH2 0x1213 SWAP2 SWAP1 PUSH2 0x1FA2 JUMP JUMPDEST PUSH1 0x40 MLOAD DUP1 SWAP2 SUB SWAP1 REVERT JUMPDEST PUSH0 PUSH20 0xFFFFFFFFFFFFFFFFFFFFFFFFFFFFFFFFFFFFFFFF AND DUP4 PUSH20 0xFFFFFFFFFFFFFFFFFFFFFFFFFFFFFFFFFFFFFFFF AND SUB PUSH2 0x128C JUMPI PUSH0 PUSH1 0x40 MLOAD PUSH32 0x94280D6200000000000000000000000000000000000000000000000000000000 DUP2 MSTORE PUSH1 0x4 ADD PUSH2 0x1283 SWAP2 SWAP1 PUSH2 0x1FA2 JUMP JUMPDEST PUSH1 0x40 MLOAD DUP1 SWAP2 SUB SWAP1 REVERT JUMPDEST DUP2 PUSH1 0x1 PUSH0 DUP7 PUSH20 0xFFFFFFFFFFFFFFFFFFFFFFFFFFFFFFFFFFFFFFFF AND PUSH20 0xFFFFFFFFFFFFFFFFFFFFFFFFFFFFFFFFFFFFFFFF AND DUP2 MSTORE PUSH1 0x20 ADD SWAP1 DUP2 MSTORE PUSH1 0x20 ADD PUSH0 KECCAK256 PUSH0 DUP6 PUSH20 0xFFFFFFFFFFFFFFFFFFFFFFFFFFFFFFFFFFFFFFFF AND PUSH20 0xFFFFFFFFFFFFFFFFFFFFFFFFFFFFFFFFFFFFFFFF AND DUP2 MSTORE PUSH1 0x20 ADD SWAP1 DUP2 MSTORE PUSH1 0x20 ADD PUSH0 KECCAK256 DUP2 SWAP1 SSTORE POP DUP1 ISZERO PUSH2 0x1375 JUMPI DUP3 PUSH20 0xFFFFFFFFFFFFFFFFFFFFFFFFFFFFFFFFFFFFFFFF AND DUP5 PUSH20 0xFFFFFFFFFFFFFFFFFFFFFFFFFFFFFFFFFFFFFFFF AND PUSH32 0x8C5BE1E5EBEC7D5BD14F71427D1E84F3DD0314C0F7B2291E5B200AC8C7C3B925 DUP5 PUSH1 0x40 MLOAD PUSH2 0x136C SWAP2 SWAP1 PUSH2 0x184B JUMP JUMPDEST PUSH1 0x40 MLOAD DUP1 SWAP2 SUB SWAP1 LOG3 JUMPDEST POP POP POP POP JUMP JUMPDEST PUSH0 PUSH20 0xFFFFFFFFFFFFFFFFFFFFFFFFFFFFFFFFFFFFFFFF AND DUP4 PUSH20 0xFFFFFFFFFFFFFFFFFFFFFFFFFFFFFFFFFFFFFFFF AND SUB PUSH2 0x13CB JUMPI DUP1 PUSH1 0x2 PUSH0 DUP3 DUP3 SLOAD PUSH2 0x13BF SWAP2 SWAP1 PUSH2 0x1FBB JUMP JUMPDEST SWAP3 POP POP DUP2 SWAP1 SSTORE POP PUSH2 0x1499 JUMP JUMPDEST PUSH0 DUP1 PUSH0 DUP6 PUSH20 0xFFFFFFFFFFFFFFFFFFFFFFFFFFFFFFFFFFFFFFFF AND PUSH20 0xFFFFFFFFFFFFFFFFFFFFFFFFFFFFFFFFFFFFFFFF AND DUP2 MSTORE PUSH1 0x20 ADD SWAP1 DUP2 MSTORE PUSH1 0x20 ADD PUSH0 KECCAK256 SLOAD SWAP1 POP DUP2 DUP2 LT ISZERO PUSH2 0x1454 JUMPI DUP4 DUP2 DUP4 PUSH1 0x40 MLOAD PUSH32 0xE450D38C00000000000000000000000000000000000000000000000000000000 DUP2 MSTORE PUSH1 0x4 ADD PUSH2 0x144B SWAP4 SWAP3 SWAP2 SWAP1 PUSH2 0x1F6D JUMP JUMPDEST PUSH1 0x40 MLOAD DUP1 SWAP2 SUB SWAP1 REVERT JUMPDEST DUP2 DUP2 SUB PUSH0 DUP1 DUP7 PUSH20 0xFFFFFFFFFFFFFFFFFFFFFFFFFFFFFFFFFFFFFFFF AND PUSH20 0xFFFFFFFFFFFFFFFFFFFFFFFFFFFFFFFFFFFFFFFF AND DUP2 MSTORE PUSH1 0x20 ADD SWAP1 DUP2 MSTORE PUSH1 0x20 ADD PUSH0 KECCAK256 DUP2 SWAP1 SSTORE POP POP JUMPDEST PUSH0 PUSH20 0xFFFFFFFFFFFFFFFFFFFFFFFFFFFFFFFFFFFFFFFF AND DUP3 PUSH20 0xFFFFFFFFFFFFFFFFFFFFFFFFFFFFFFFFFFFFFFFF AND SUB PUSH2 0x14E0 JUMPI DUP1 PUSH1 0x2 PUSH0 DUP3 DUP3 SLOAD SUB SWAP3 POP POP DUP2 SWAP1 SSTORE POP PUSH2 0x152A JUMP JUMPDEST DUP1 PUSH0 DUP1 DUP5 PUSH20 0xFFFFFFFFFFFFFFFFFFFFFFFFFFFFFFFFFFFFFFFF AND PUSH20 0xFFFFFFFFFFFFFFFFFFFFFFFFFFFFFFFFFFFFFFFF AND DUP2 MSTORE PUSH1 0x20 ADD SWAP1 DUP2 MSTORE PUSH1 0x20 ADD PUSH0 KECCAK256 PUSH0 DUP3 DUP3 SLOAD ADD SWAP3 POP POP DUP2 SWAP1 SSTORE POP JUMPDEST DUP2 PUSH20 0xFFFFFFFFFFFFFFFFFFFFFFFFFFFFFFFFFFFFFFFF AND DUP4 PUSH20 0xFFFFFFFFFFFFFFFFFFFFFFFFFFFFFFFFFFFFFFFF AND PUSH32 0xDDF252AD1BE2C89B69C2B068FC378DAA952BA7F163C4A11628F55A4DF523B3EF DUP4 PUSH1 0x40 MLOAD PUSH2 0x1587 SWAP2 SWAP1 PUSH2 0x184B JUMP JUMPDEST PUSH1 0x40 MLOAD DUP1 SWAP2 SUB SWAP1 LOG3 POP POP POP JUMP JUMPDEST PUSH2 0x159E DUP3 DUP3 PUSH2 0xADE JUMP JUMPDEST PUSH2 0x15E1 JUMPI DUP1 DUP3 PUSH1 0x40 MLOAD PUSH32 0xE2517D3F00000000000000000000000000000000000000000000000000000000 DUP2 MSTORE PUSH1 0x4 ADD PUSH2 0x15D8 SWAP3 SWAP2 SWAP1 PUSH2 0x1FEE JUMP JUMPDEST PUSH1 0x40 MLOAD DUP1 SWAP2 SUB SWAP1 REVERT JUMPDEST POP POP JUMP JUMPDEST PUSH0 DUP1 REVERT JUMPDEST PUSH0 PUSH32 0xFFFFFFFF00000000000000000000000000000000000000000000000000000000 DUP3 AND SWAP1 POP SWAP2 SWAP1 POP JUMP JUMPDEST PUSH2 0x161D DUP2 PUSH2 0x15E9 JUMP JUMPDEST DUP2 EQ PUSH2 0x1627 JUMPI PUSH0 DUP1 REVERT JUMPDEST POP JUMP JUMPDEST PUSH0 DUP2 CALLDATALOAD SWAP1 POP PUSH2 0x1638 DUP2 PUSH2 0x1614 JUMP JUMPDEST SWAP3 SWAP2 POP POP JUMP JUMPDEST PUSH0 PUSH1 0x20 DUP3 DUP5 SUB SLT ISZERO PUSH2 0x1653 JUMPI PUSH2 0x1652 PUSH2 0x15E5 JUMP JUMPDEST JUMPDEST PUSH0 PUSH2 0x1660 DUP5 DUP3 DUP6 ADD PUSH2 0x162A JUMP JUMPDEST SWAP2 POP POP SWAP3 SWAP2 POP POP JUMP JUMPDEST PUSH0 DUP2 ISZERO ISZERO SWAP1 POP SWAP2 SWAP1 POP JUMP JUMPDEST PUSH2 0x167D DUP2 PUSH2 0x1669 JUMP JUMPDEST DUP3 MSTORE POP POP JUMP JUMPDEST PUSH0 PUSH1 0x20 DUP3 ADD SWAP1 POP PUSH2 0x1696 PUSH0 DUP4 ADD DUP5 PUSH2 0x1674 JUMP JUMPDEST SWAP3 SWAP2 POP POP JUMP JUMPDEST PUSH0 DUP2 MLOAD SWAP1 POP SWAP2 SWAP1 POP JUMP JUMPDEST PUSH0 DUP3 DUP3 MSTORE PUSH1 0x20 DUP3 ADD SWAP1 POP SWAP3 SWAP2 POP POP JUMP JUMPDEST PUSH0 JUMPDEST DUP4 DUP2 LT ISZERO PUSH2 0x16D3 JUMPI DUP1 DUP3 ADD MLOAD DUP2 DUP5 ADD MSTORE PUSH1 0x20 DUP2 ADD SWAP1 POP PUSH2 0x16B8 JUMP JUMPDEST PUSH0 DUP5 DUP5 ADD MSTORE POP POP POP POP JUMP JUMPDEST PUSH0 PUSH1 0x1F NOT PUSH1 0x1F DUP4 ADD AND SWAP1 POP SWAP2 SWAP1 POP JUMP JUMPDEST PUSH0 PUSH2 0x16F8 DUP3 PUSH2 0x169C JUMP JUMPDEST PUSH2 0x1702 DUP2 DUP6 PUSH2 0x16A6 JUMP JUMPDEST SWAP4 POP PUSH2 0x1712 DUP2 DUP6 PUSH1 0x20 DUP7 ADD PUSH2 0x16B6 JUMP JUMPDEST PUSH2 0x171B DUP2 PUSH2 0x16DE JUMP JUMPDEST DUP5 ADD SWAP2 POP POP SWAP3 SWAP2 POP POP JUMP JUMPDEST PUSH0 PUSH1 0x20 DUP3 ADD SWAP1 POP DUP2 DUP2 SUB PUSH0 DUP4 ADD MSTORE PUSH2 0x173E DUP2 DUP5 PUSH2 0x16EE JUMP JUMPDEST SWAP1 POP SWAP3 SWAP2 POP POP JUMP JUMPDEST PUSH0 PUSH20 0xFFFFFFFFFFFFFFFFFFFFFFFFFFFFFFFFFFFFFFFF DUP3 AND SWAP1 POP SWAP2 SWAP1 POP JUMP JUMPDEST PUSH0 PUSH2 0x176F DUP3 PUSH2 0x1746 JUMP JUMPDEST SWAP1 POP SWAP2 SWAP1 POP JUMP JUMPDEST PUSH2 0x177F DUP2 PUSH2 0x1765 JUMP JUMPDEST DUP2 EQ PUSH2 0x1789 JUMPI PUSH0 DUP1 REVERT JUMPDEST POP JUMP JUMPDEST PUSH0 DUP2 CALLDATALOAD SWAP1 POP PUSH2 0x179A DUP2 PUSH2 0x1776 JUMP JUMPDEST SWAP3 SWAP2 POP POP JUMP JUMPDEST PUSH0 DUP2 SWAP1 POP SWAP2 SWAP1 POP JUMP JUMPDEST PUSH2 0x17B2 DUP2 PUSH2 0x17A0 JUMP JUMPDEST DUP2 EQ PUSH2 0x17BC JUMPI PUSH0 DUP1 REVERT JUMPDEST POP JUMP JUMPDEST PUSH0 DUP2 CALLDATALOAD SWAP1 POP PUSH2 0x17CD DUP2 PUSH2 0x17A9 JUMP JUMPDEST SWAP3 SWAP2 POP POP JUMP JUMPDEST PUSH0 DUP1 PUSH1 0x40 DUP4 DUP6 SUB SLT ISZERO PUSH2 0x17E9 JUMPI PUSH2 0x17E8 PUSH2 0x15E5 JUMP JUMPDEST JUMPDEST PUSH0 PUSH2 0x17F6 DUP6 DUP3 DUP7 ADD PUSH2 0x178C JUMP JUMPDEST SWAP3 POP POP PUSH1 0x20 PUSH2 0x1807 DUP6 DUP3 DUP7 ADD PUSH2 0x17BF JUMP JUMPDEST SWAP2 POP POP SWAP3 POP SWAP3 SWAP1 POP JUMP JUMPDEST PUSH0 PUSH1 0x20 DUP3 DUP5 SUB SLT ISZERO PUSH2 0x1826 JUMPI PUSH2 0x1825 PUSH2 0x15E5 JUMP JUMPDEST JUMPDEST PUSH0 PUSH2 0x1833 DUP5 DUP3 DUP6 ADD PUSH2 0x178C JUMP JUMPDEST SWAP2 POP POP SWAP3 SWAP2 POP POP JUMP JUMPDEST PUSH2 0x1845 DUP2 PUSH2 0x17A0 JUMP JUMPDEST DUP3 MSTORE POP POP JUMP JUMPDEST PUSH0 PUSH1 0x20 DUP3 ADD SWAP1 POP PUSH2 0x185E PUSH0 DUP4 ADD DUP5 PUSH2 0x183C JUMP JUMPDEST SWAP3 SWAP2 POP POP JUMP JUMPDEST PUSH0 DUP1 PUSH0 PUSH1 0x60 DUP5 DUP7 SUB SLT ISZERO PUSH2 0x187B JUMPI PUSH2 0x187A PUSH2 0x15E5 JUMP JUMPDEST JUMPDEST PUSH0 PUSH2 0x1888 DUP7 DUP3 DUP8 ADD PUSH2 0x178C JUMP JUMPDEST SWAP4 POP POP PUSH1 0x20 PUSH2 0x1899 DUP7 DUP3 DUP8 ADD PUSH2 0x178C JUMP JUMPDEST SWAP3 POP POP PUSH1 0x40 PUSH2 0x18AA DUP7 DUP3 DUP8 ADD PUSH2 0x17BF JUMP JUMPDEST SWAP2 POP POP SWAP3 POP SWAP3 POP SWAP3 JUMP JUMPDEST PUSH0 DUP2 SWAP1 POP SWAP2 SWAP1 POP JUMP JUMPDEST PUSH2 0x18C6 DUP2 PUSH2 0x18B4 JUMP JUMPDEST DUP2 EQ PUSH2 0x18D0 JUMPI PUSH0 DUP1 REVERT JUMPDEST POP JUMP JUMPDEST PUSH0 DUP2 CALLDATALOAD SWAP1 POP PUSH2 0x18E1 DUP2 PUSH2 0x18BD JUMP JUMPDEST SWAP3 SWAP2 POP POP JUMP JUMPDEST PUSH0 PUSH1 0x20 DUP3 DUP5 SUB SLT ISZERO PUSH2 0x18FC JUMPI PUSH2 0x18FB PUSH2 0x15E5 JUMP JUMPDEST JUMPDEST PUSH0 PUSH2 0x1909 DUP5 DUP3 DUP6 ADD PUSH2 0x18D3 JUMP JUMPDEST SWAP2 POP POP SWAP3 SWAP2 POP POP JUMP JUMPDEST PUSH2 0x191B DUP2 PUSH2 0x18B4 JUMP JUMPDEST DUP3 MSTORE POP POP JUMP JUMPDEST PUSH0 PUSH1 0x20 DUP3 ADD SWAP1 POP PUSH2 0x1934 PUSH0 DUP4 ADD DUP5 PUSH2 0x1912 JUMP JUMPDEST SWAP3 SWAP2 POP POP JUMP JUMPDEST PUSH0 DUP1 PUSH1 0x40 DUP4 DUP6 SUB SLT ISZERO PUSH2 0x1950 JUMPI PUSH2 0x194F PUSH2 0x15E5 JUMP JUMPDEST JUMPDEST PUSH0 PUSH2 0x195D DUP6 DUP3 DUP7 ADD PUSH2 0x18D3 JUMP JUMPDEST SWAP3 POP POP PUSH1 0x20 PUSH2 0x196E DUP6 DUP3 DUP7 ADD PUSH2 0x178C JUMP JUMPDEST SWAP2 POP POP SWAP3 POP SWAP3 SWAP1 POP JUMP JUMPDEST PUSH0 PUSH1 0x20 DUP3 DUP5 SUB SLT ISZERO PUSH2 0x198D JUMPI PUSH2 0x198C PUSH2 0x15E5 JUMP JUMPDEST JUMPDEST PUSH0 PUSH2 0x199A DUP5 DUP3 DUP6 ADD PUSH2 0x17BF JUMP JUMPDEST SWAP2 POP POP SWAP3 SWAP2 POP POP JUMP JUMPDEST PUSH0 PUSH1 0xFF DUP3 AND SWAP1 POP SWAP2 SWAP1 POP JUMP JUMPDEST PUSH2 0x19B8 DUP2 PUSH2 0x19A3 JUMP JUMPDEST DUP3 MSTORE POP POP JUMP JUMPDEST PUSH0 PUSH1 0x20 DUP3 ADD SWAP1 POP PUSH2 0x19D1 PUSH0 DUP4 ADD DUP5 PUSH2 0x19AF JUMP JUMPDEST SWAP3 SWAP2 POP POP JUMP JUMPDEST PUSH0 DUP1 PUSH0 PUSH1 0x60 DUP5 DUP7 SUB SLT ISZERO PUSH2 0x19EE JUMPI PUSH2 0x19ED PUSH2 0x15E5 JUMP JUMPDEST JUMPDEST PUSH0 PUSH2 0x19FB DUP7 DUP3 DUP8 ADD PUSH2 0x178C JUMP JUMPDEST SWAP4 POP POP PUSH1 0x20 PUSH2 0x1A0C DUP7 DUP3 DUP8 ADD PUSH2 0x17BF JUMP JUMPDEST SWAP3 POP POP PUSH1 0x40 PUSH2 0x1A1D DUP7 DUP3 DUP8 ADD PUSH2 0x178C JUMP JUMPDEST SWAP2 POP POP SWAP3 POP SWAP3 POP SWAP3 JUMP JUMPDEST PUSH0 DUP1 PUSH1 0x40 DUP4 DUP6 SUB SLT ISZERO PUSH2 0x1A3D JUMPI PUSH2 0x1A3C PUSH2 0x15E5 JUMP JUMPDEST JUMPDEST PUSH0 PUSH2 0x1A4A DUP6 DUP3 DUP7 ADD PUSH2 0x178C JUMP JUMPDEST SWAP3 POP POP PUSH1 0x20 PUSH2 0x1A5B DUP6 DUP3 DUP7 ADD PUSH2 0x178C JUMP JUMPDEST SWAP2 POP POP SWAP3 POP SWAP3 SWAP1 POP JUMP JUMPDEST PUSH32 0x4E487B7100000000000000000000000000000000000000000000000000000000 PUSH0 MSTORE PUSH1 0x22 PUSH1 0x4 MSTORE PUSH1 0x24 PUSH0 REVERT JUMPDEST PUSH0 PUSH1 0x2 DUP3 DIV SWAP1 POP PUSH1 0x1 DUP3 AND DUP1 PUSH2 0x1AA9 JUMPI PUSH1 0x7F DUP3 AND SWAP2 POP JUMPDEST PUSH1 0x20 DUP3 LT DUP2 SUB PUSH2 0x1ABC JUMPI PUSH2 0x1ABB PUSH2 0x1A65 JUMP JUMPDEST JUMPDEST POP SWAP2 SWAP1 POP JUMP JUMPDEST PUSH32 0x4E487B7100000000000000000000000000000000000000000000000000000000 PUSH0 MSTORE PUSH1 0x12 PUSH1 0x4 MSTORE PUSH1 0x24 PUSH0 REVERT JUMPDEST PUSH0 PUSH2 0x1AF9 DUP3 PUSH2 0x17A0 JUMP JUMPDEST SWAP2 POP PUSH2 0x1B04 DUP4 PUSH2 0x17A0 JUMP JUMPDEST SWAP3 POP DUP3 PUSH2 0x1B14 JUMPI PUSH2 0x1B13 PUSH2 0x1AC2 JUMP JUMPDEST JUMPDEST DUP3 DUP3 MOD SWAP1 POP SWAP3 SWAP2 POP POP JUMP JUMPDEST PUSH32 0x696E76616C69642050697A7A6120636F756E7400000000000000000000000000 PUSH0 DUP3 ADD MSTORE POP JUMP JUMPDEST PUSH0 PUSH2 0x1B53 PUSH1 0x13 DUP4 PUSH2 0x16A6 JUMP JUMPDEST SWAP2 POP PUSH2 0x1B5E DUP3 PUSH2 0x1B1F JUMP JUMPDEST PUSH1 0x20 DUP3 ADD SWAP1 POP SWAP2 SWAP1 POP JUMP JUMPDEST PUSH0 PUSH1 0x20 DUP3 ADD SWAP1 POP DUP2 DUP2 SUB PUSH0 DUP4 ADD MSTORE PUSH2 0x1B80 DUP2 PUSH2 0x1B47 JUMP JUMPDEST SWAP1 POP SWAP2 SWAP1 POP JUMP JUMPDEST PUSH32 0x4E487B7100000000000000000000000000000000000000000000000000000000 PUSH0 MSTORE PUSH1 0x11 PUSH1 0x4 MSTORE PUSH1 0x24 PUSH0 REVERT JUMPDEST PUSH0 DUP2 PUSH1 0x1 SHR SWAP1 POP SWAP2 SWAP1 POP JUMP JUMPDEST PUSH0 DUP1 DUP3 SWAP2 POP DUP4 SWAP1 POP JUMPDEST PUSH1 0x1 DUP6 GT ISZERO PUSH2 0x1C09 JUMPI DUP1 DUP7 DIV DUP2 GT ISZERO PUSH2 0x1BE5 JUMPI PUSH2 0x1BE4 PUSH2 0x1B87 JUMP JUMPDEST JUMPDEST PUSH1 0x1 DUP6 AND ISZERO PUSH2 0x1BF4 JUMPI DUP1 DUP3 MUL SWAP2 POP JUMPDEST DUP1 DUP2 MUL SWAP1 POP PUSH2 0x1C02 DUP6 PUSH2 0x1BB4 JUMP JUMPDEST SWAP5 POP PUSH2 0x1BC9 JUMP JUMPDEST SWAP5 POP SWAP5 SWAP3 POP POP POP JUMP JUMPDEST PUSH0 DUP3 PUSH2 0x1C21 JUMPI PUSH1 0x1 SWAP1 POP PUSH2 0x1CDC JUMP JUMPDEST DUP2 PUSH2 0x1C2E JUMPI PUSH0 SWAP1 POP PUSH2 0x1CDC JUMP JUMPDEST DUP2 PUSH1 0x1 DUP2 EQ PUSH2 0x1C44 JUMPI PUSH1 0x2 DUP2 EQ PUSH2 0x1C4E JUMPI PUSH2 0x1C7D JUMP JUMPDEST PUSH1 0x1 SWAP2 POP POP PUSH2 0x1CDC JUMP JUMPDEST PUSH1 0xFF DUP5 GT ISZERO PUSH2 0x1C60 JUMPI PUSH2 0x1C5F PUSH2 0x1B87 JUMP JUMPDEST JUMPDEST DUP4 PUSH1 0x2 EXP SWAP2 POP DUP5 DUP3 GT ISZERO PUSH2 0x1C77 JUMPI PUSH2 0x1C76 PUSH2 0x1B87 JUMP JUMPDEST JUMPDEST POP PUSH2 0x1CDC JUMP JUMPDEST POP PUSH1 0x20 DUP4 LT PUSH2 0x133 DUP4 LT AND PUSH1 0x4E DUP5 LT PUSH1 0xB DUP5 LT AND OR ISZERO PUSH2 0x1CB2 JUMPI DUP3 DUP3 EXP SWAP1 POP DUP4 DUP2 GT ISZERO PUSH2 0x1CAD JUMPI PUSH2 0x1CAC PUSH2 0x1B87 JUMP JUMPDEST JUMPDEST PUSH2 0x1CDC JUMP JUMPDEST PUSH2 0x1CBF DUP5 DUP5 DUP5 PUSH1 0x1 PUSH2 0x1BC0 JUMP JUMPDEST SWAP3 POP SWAP1 POP DUP2 DUP5 DIV DUP2 GT ISZERO PUSH2 0x1CD6 JUMPI PUSH2 0x1CD5 PUSH2 0x1B87 JUMP JUMPDEST JUMPDEST DUP2 DUP2 MUL SWAP1 POP JUMPDEST SWAP4 SWAP3 POP POP POP JUMP JUMPDEST PUSH0 PUSH2 0x1CED DUP3 PUSH2 0x17A0 JUMP JUMPDEST SWAP2 POP PUSH2 0x1CF8 DUP4 PUSH2 0x19A3 JUMP JUMPDEST SWAP3 POP PUSH2 0x1D25 PUSH32 0xFFFFFFFFFFFFFFFFFFFFFFFFFFFFFFFFFFFFFFFFFFFFFFFFFFFFFFFFFFFFFFFF DUP5 DUP5 PUSH2 0x1C12 JUMP JUMPDEST SWAP1 POP SWAP3 SWAP2 POP POP JUMP JUMPDEST PUSH0 PUSH2 0x1D37 DUP3 PUSH2 0x17A0 JUMP JUMPDEST SWAP2 POP PUSH2 0x1D42 DUP4 PUSH2 0x17A0 JUMP JUMPDEST SWAP3 POP DUP3 DUP3 MUL PUSH2 0x1D50 DUP2 PUSH2 0x17A0 JUMP JUMPDEST SWAP2 POP DUP3 DUP3 DIV DUP5 EQ DUP4 ISZERO OR PUSH2 0x1D67 JUMPI PUSH2 0x1D66 PUSH2 0x1B87 JUMP JUMPDEST JUMPDEST POP SWAP3 SWAP2 POP POP JUMP JUMPDEST PUSH2 0x1D77 DUP2 PUSH2 0x1765 JUMP JUMPDEST DUP3 MSTORE POP POP JUMP JUMPDEST PUSH32 0x50697A7A6120507572636861736564205375636365737366756C6C7900000000 PUSH0 DUP3 ADD MSTORE POP JUMP JUMPDEST PUSH0 PUSH2 0x1DB1 PUSH1 0x1C DUP4 PUSH2 0x16A6 JUMP JUMPDEST SWAP2 POP PUSH2 0x1DBC DUP3 PUSH2 0x1D7D JUMP JUMPDEST PUSH1 0x20 DUP3 ADD SWAP1 POP SWAP2 SWAP1 POP JUMP JUMPDEST PUSH0 PUSH1 0x40 DUP3 ADD SWAP1 POP PUSH2 0x1DDA PUSH0 DUP4 ADD DUP5 PUSH2 0x1D6E JUMP JUMPDEST DUP2 DUP2 SUB PUSH1 0x20 DUP4 ADD MSTORE PUSH2 0x1DEB DUP2 PUSH2 0x1DA5 JUMP JUMPDEST SWAP1 POP SWAP3 SWAP2 POP POP JUMP JUMPDEST PUSH32 0x496E76616C6964205370656E6465722041646472657373000000000000000000 PUSH0 DUP3 ADD MSTORE POP JUMP JUMPDEST PUSH0 PUSH2 0x1E27 PUSH1 0x17 DUP4 PUSH2 0x16A6 JUMP JUMPDEST SWAP2 POP PUSH2 0x1E32 DUP3 PUSH2 0x1DF3 JUMP JUMPDEST PUSH1 0x20 DUP3 ADD SWAP1 POP SWAP2 SWAP1 POP JUMP JUMPDEST PUSH0 PUSH1 0x20 DUP3 ADD SWAP1 POP DUP2 DUP2 SUB PUSH0 DUP4 ADD MSTORE PUSH2 0x1E54 DUP2 PUSH2 0x1E1B JUMP JUMPDEST SWAP1 POP SWAP2 SWAP1 POP JUMP JUMPDEST PUSH32 0x496E76616C696420526563656976657220416464726573730000000000000000 PUSH0 DUP3 ADD MSTORE POP JUMP JUMPDEST PUSH0 PUSH2 0x1E8F PUSH1 0x18 DUP4 PUSH2 0x16A6 JUMP JUMPDEST SWAP2 POP PUSH2 0x1E9A DUP3 PUSH2 0x1E5B JUMP JUMPDEST PUSH1 0x20 DUP3 ADD SWAP1 POP SWAP2 SWAP1 POP JUMP JUMPDEST PUSH0 PUSH1 0x20 DUP3 ADD SWAP1 POP DUP2 DUP2 SUB PUSH0 DUP4 ADD MSTORE PUSH2 0x1EBC DUP2 PUSH2 0x1E83 JUMP JUMPDEST SWAP1 POP SWAP2 SWAP1 POP JUMP JUMPDEST PUSH32 0x746F6B656E206D696E746564205375636365737366756C6C7920746F20416363 PUSH0 DUP3 ADD MSTORE PUSH32 0x6F756E7400000000000000000000000000000000000000000000000000000000 PUSH1 0x20 DUP3 ADD MSTORE POP JUMP JUMPDEST PUSH0 PUSH2 0x1F1D PUSH1 0x24 DUP4 PUSH2 0x16A6 JUMP JUMPDEST SWAP2 POP PUSH2 0x1F28 DUP3 PUSH2 0x1EC3 JUMP JUMPDEST PUSH1 0x40 DUP3 ADD SWAP1 POP SWAP2 SWAP1 POP JUMP JUMPDEST PUSH0 PUSH1 0x60 DUP3 ADD SWAP1 POP PUSH2 0x1F46 PUSH0 DUP4 ADD DUP6 PUSH2 0x1D6E JUMP JUMPDEST DUP2 DUP2 SUB PUSH1 0x20 DUP4 ADD MSTORE PUSH2 0x1F57 DUP2 PUSH2 0x1F11 JUMP JUMPDEST SWAP1 POP PUSH2 0x1F66 PUSH1 0x40 DUP4 ADD DUP5 PUSH2 0x183C JUMP JUMPDEST SWAP4 SWAP3 POP POP POP JUMP JUMPDEST PUSH0 PUSH1 0x60 DUP3 ADD SWAP1 POP PUSH2 0x1F80 PUSH0 DUP4 ADD DUP7 PUSH2 0x1D6E JUMP JUMPDEST PUSH2 0x1F8D PUSH1 0x20 DUP4 ADD DUP6 PUSH2 0x183C JUMP JUMPDEST PUSH2 0x1F9A PUSH1 0x40 DUP4 ADD DUP5 PUSH2 0x183C JUMP JUMPDEST SWAP5 SWAP4 POP POP POP POP JUMP JUMPDEST PUSH0 PUSH1 0x20 DUP3 ADD SWAP1 POP PUSH2 0x1FB5 PUSH0 DUP4 ADD DUP5 PUSH2 0x1D6E JUMP JUMPDEST SWAP3 SWAP2 POP POP JUMP JUMPDEST PUSH0 PUSH2 0x1FC5 DUP3 PUSH2 0x17A0 JUMP JUMPDEST SWAP2 POP PUSH2 0x1FD0 DUP4 PUSH2 0x17A0 JUMP JUMPDEST SWAP3 POP DUP3 DUP3 ADD SWAP1 POP DUP1 DUP3 GT ISZERO PUSH2 0x1FE8 JUMPI PUSH2 0x1FE7 PUSH2 0x1B87 JUMP JUMPDEST JUMPDEST SWAP3 SWAP2 POP POP JUMP JUMPDEST PUSH0 PUSH1 0x40 DUP3 ADD SWAP1 POP PUSH2 0x2001 PUSH0 DUP4 ADD DUP6 PUSH2 0x1D6E JUMP JUMPDEST PUSH2 0x200E PUSH1 0x20 DUP4 ADD DUP5 PUSH2 0x1912 JUMP JUMPDEST SWAP4 SWAP3 POP POP POP JUMP INVALID LOG2 PUSH5 0x6970667358 0x22 SLT KECCAK256 DUP10 DUP1 LOG4 0xB6 XOR XOR 0xC7 DUP15 BLOCKHASH PUSH13 0x5040448EBEE421AF4C3A181FBF 0xE3 0xC9 DUP8 PUSH16 0xAF4E9FAE4D64736F6C63430008160033 "
				},
				"gasEstimates": {
					"creation": {
						"codeDepositCost": "1653400",
						"executionCost": "infinite",
						"totalCost": "infinite"
					},
					"external": {
						"BURNER_ROLE()": "392",
						"DEFAULT_ADMIN_ROLE()": "374",
						"MINTER_ROLE()": "413",
						"SPEND_ALLOWANCER()": "414",
						"allowance(address,address)": "infinite",
						"approve(address,uint256)": "infinite",
						"balanceOf(address)": "2940",
						"buyPizza(uint256)": "infinite",
						"decimals()": "471",
						"getRoleAdmin(bytes32)": "infinite",
						"grantRole(bytes32,address)": "infinite",
						"hasRole(bytes32,address)": "3255",
						"mint(address,uint256)": "infinite",
						"name()": "infinite",
						"renounceRole(bytes32,address)": "infinite",
						"revokeRole(bytes32,address)": "infinite",
						"spendAllowance(address,uint256,address)": "infinite",
						"supportsInterface(bytes4)": "741",
						"symbol()": "infinite",
						"tokenBalanceLeadger(address)": "2892",
						"totalSupply()": "2544",
						"transfer(address,uint256)": "infinite",
						"transferFrom(address,address,uint256)": "infinite"
					}
				},
				"methodIdentifiers": {
					"BURNER_ROLE()": "282c51f3",
					"DEFAULT_ADMIN_ROLE()": "a217fddf",
					"MINTER_ROLE()": "d5391393",
					"SPEND_ALLOWANCER()": "6b5d9a81",
					"allowance(address,address)": "dd62ed3e",
					"approve(address,uint256)": "095ea7b3",
					"balanceOf(address)": "70a08231",
					"buyPizza(uint256)": "3125e46e",
					"decimals()": "313ce567",
					"getRoleAdmin(bytes32)": "248a9ca3",
					"grantRole(bytes32,address)": "2f2ff15d",
					"hasRole(bytes32,address)": "91d14854",
					"mint(address,uint256)": "40c10f19",
					"name()": "06fdde03",
					"renounceRole(bytes32,address)": "36568abe",
					"revokeRole(bytes32,address)": "d547741f",
					"spendAllowance(address,uint256,address)": "40bed364",
					"supportsInterface(bytes4)": "01ffc9a7",
					"symbol()": "95d89b41",
					"tokenBalanceLeadger(address)": "122faf73",
					"totalSupply()": "18160ddd",
					"transfer(address,uint256)": "a9059cbb",
					"transferFrom(address,address,uint256)": "23b872dd"
				}
			},
			"storageLayout": {
				"storage": [
					{
						"astId": 538,
						"contract": "PIZZA_BITES_TOKEN/contracts/PizzaBitesToken.sol:PizzaBitesToken",
						"label": "_balances",
						"offset": 0,
						"slot": "0",
						"type": "t_mapping(t_address,t_uint256)"
					},
					{
						"astId": 544,
						"contract": "PIZZA_BITES_TOKEN/contracts/PizzaBitesToken.sol:PizzaBitesToken",
						"label": "_allowances",
						"offset": 0,
						"slot": "1",
						"type": "t_mapping(t_address,t_mapping(t_address,t_uint256))"
					},
					{
						"astId": 546,
						"contract": "PIZZA_BITES_TOKEN/contracts/PizzaBitesToken.sol:PizzaBitesToken",
						"label": "_totalSupply",
						"offset": 0,
						"slot": "2",
						"type": "t_uint256"
					},
					{
						"astId": 548,
						"contract": "PIZZA_BITES_TOKEN/contracts/PizzaBitesToken.sol:PizzaBitesToken",
						"label": "_name",
						"offset": 0,
						"slot": "3",
						"type": "t_string_storage"
					},
					{
						"astId": 550,
						"contract": "PIZZA_BITES_TOKEN/contracts/PizzaBitesToken.sol:PizzaBitesToken",
						"label": "_symbol",
						"offset": 0,
						"slot": "4",
						"type": "t_string_storage"
					},
					{
						"astId": 26,
						"contract": "PIZZA_BITES_TOKEN/contracts/PizzaBitesToken.sol:PizzaBitesToken",
						"label": "_roles",
						"offset": 0,
						"slot": "5",
						"type": "t_mapping(t_bytes32,t_struct(RoleData)21_storage)"
					},
					{
						"astId": 1234,
						"contract": "PIZZA_BITES_TOKEN/contracts/PizzaBitesToken.sol:PizzaBitesToken",
						"label": "tokenBalanceLeadger",
						"offset": 0,
						"slot": "6",
						"type": "t_mapping(t_address,t_uint256)"
					}
				],
				"types": {
					"t_address": {
						"encoding": "inplace",
						"label": "address",
						"numberOfBytes": "20"
					},
					"t_bool": {
						"encoding": "inplace",
						"label": "bool",
						"numberOfBytes": "1"
					},
					"t_bytes32": {
						"encoding": "inplace",
						"label": "bytes32",
						"numberOfBytes": "32"
					},
					"t_mapping(t_address,t_bool)": {
						"encoding": "mapping",
						"key": "t_address",
						"label": "mapping(address => bool)",
						"numberOfBytes": "32",
						"value": "t_bool"
					},
					"t_mapping(t_address,t_mapping(t_address,t_uint256))": {
						"encoding": "mapping",
						"key": "t_address",
						"label": "mapping(address => mapping(address => uint256))",
						"numberOfBytes": "32",
						"value": "t_mapping(t_address,t_uint256)"
					},
					"t_mapping(t_address,t_uint256)": {
						"encoding": "mapping",
						"key": "t_address",
						"label": "mapping(address => uint256)",
						"numberOfBytes": "32",
						"value": "t_uint256"
					},
					"t_mapping(t_bytes32,t_struct(RoleData)21_storage)": {
						"encoding": "mapping",
						"key": "t_bytes32",
						"label": "mapping(bytes32 => struct AccessControl.RoleData)",
						"numberOfBytes": "32",
						"value": "t_struct(RoleData)21_storage"
					},
					"t_string_storage": {
						"encoding": "bytes",
						"label": "string",
						"numberOfBytes": "32"
					},
					"t_struct(RoleData)21_storage": {
						"encoding": "inplace",
						"label": "struct AccessControl.RoleData",
						"members": [
							{
								"astId": 18,
								"contract": "PIZZA_BITES_TOKEN/contracts/PizzaBitesToken.sol:PizzaBitesToken",
								"label": "hasRole",
								"offset": 0,
								"slot": "0",
								"type": "t_mapping(t_address,t_bool)"
							},
							{
								"astId": 20,
								"contract": "PIZZA_BITES_TOKEN/contracts/PizzaBitesToken.sol:PizzaBitesToken",
								"label": "adminRole",
								"offset": 0,
								"slot": "1",
								"type": "t_bytes32"
							}
						],
						"numberOfBytes": "64"
					},
					"t_uint256": {
						"encoding": "inplace",
						"label": "uint256",
						"numberOfBytes": "32"
					}
				}
			},
			"userdoc": {
				"kind": "user",
				"methods": {},
				"notice": "PizzaBitesToken is a blockchain-based digital currency designed for use within the PizzaBites restaurant ecosystem, facilitating secure and transparent transactions for virtual pizza purchases.*",
				"version": 1
			}
		}
	}
}